:020000040000FA
:10080000A4EF26F01200FFFFE7EF24F01200FFFF35
:10081000FFFFFFFFFFFFFFFFE3EF24F01200FFFFEA
:10082000FFFFFFFFFFFFFFFFFFFF0400FA4D000087
:10083000C800000022000000E24D00001801000086
:10084000180000007A4D0000600000006800000001
:10085000704D00003A0100000A00000057EC0EF055
:1008600067EC0EF04FEC0FF067EC0EF0020E03ECAD
:100870000EF067EC0EF0040E03EC0EF067EC0EF0D9
:10088000060E03EC0EF067EF0FF057EC0EF0090EBA
:10089000E1269DEC0EF0EFCFDFFFF00EDF14200815
:1008A00002E1200EDF6EDF50020A5EE0220A1FE046
:1008B000300A6EE1B1EC0EF0DE5228C0DEFF29C036
:1008C000DDFFDD52020EE66EFCEC0DF0180E31EC91
:1008D0000FF01B0E31EC0FF01D0E31EC0FF01F0E60
:1008E00031EC0FF0210E31EC0FF0370E4FD0B1ECA0
:1008F0000EF0030E28C0DBFF040E29C0DBFF030E41
:10090000DBCFE9FF040EDBCFEAFFA1EC0FF0D4EC64
:100910000EF0050EE9CFDBFF060EEACFDBFF050E7A
:10092000DBCF02F0060EDBCF03F0030EDB50025CE0
:10093000006E040EDB50035845EC0EF0005C28E21C
:10094000D950050FA8EC0FF0EECF00F0EDCF01F07D
:10095000080EEE26000EEF2200C0E6FF01C0E6FF03
:100960007DDFE552E552DBD7B1EC0EF0070E28C073
:10097000DBFF080E29C0DBFF040E72EC0FF003EC66
:100980000EF0020E72EC0FF00FEC0FF003EC0EF015
:10099000F56E090EE15C02E2E16AE55248EF0EF005
:1009A00057EC0EF0060EE126D2C0E6FFE5EC0EF0A5
:1009B000040EF36E030EF3CFDBFFD950040FA8EC47
:1009C0000FF0420EEE6E010EED6E030EDBCFF3FF65
:1009D000DB06F35000093EE0DECF00F0DDCF01F092
:1009E0000F0E0016000E0116020E00C0DBFF0A0EED
:1009F000F36E020EDBCFF4FFF350F45C04E2020E60
:100A0000DB50300F04D0020EDB50F60F410FE66EC4
:100A1000D950040FA8EC0FF0EECFF3FFEDCFF4FFA9
:100A2000020EEE5E000EEF5AF3CFE9FFF4CFEAFFBD
:100A3000E552E750EE6EED6AD9CFE9FFDACFEAFF73
:100A4000040E0F0BC2E0EC52D890ED32EF32E80604
:100A5000FAE1BBD7F56E060EE15C02E2E16AE5520F
:100A600048EF0EF057EC0EF0030EE126600EE66E36
:100A7000000EE66E060EE66E6C0EE66E000EEDECF7
:100A80000EF0760EE66E000EE66E060EE66E820E36
:100A9000E66E000EEDEC0EF0F5EC0EF0000EEE6ED4
:100AA000020EED6EDF50006E016A020EBBEC0EF01E
:100AB00003E24BEC0EF0F6D7F5EC0EF0000EEE6E06
:100AC000060EED6EDF50006E016A040EBBEC0EF0F8
:100AD00003E24BEC0EF0F6D7F56E030EE15C02E29A
:100AE000E16AE55248EF0EF000018F6B9069916961
:100AF00092699369946B956B966B976B986B996BF6
:100B0000AEC0F4F0AEC0F3F0F3C0E9FFEA6AE9BEAC
:100B1000EA68A5EC0EF09A6B9B6B8E6B9C6BD7EC26
:100B20000EF09D6B9E6B9F6BA16BA26BAF6B32EF58
:100B300005F057EC0EF0060EE126CCC0E6FFE5EC22
:100B40000EF0D9CFE9FF12EC0FF00AE0D9CFE9FFA0
:100B5000DACFEAFFFF0EEE180BE1FF0EED1808E109
:100B6000E20EE66EB00EE66ECCC0E6FFCAEC0EF00A
:100B7000CEC0E6FF2AEC1EF0E552020EF3CFDBFFFB
:100B8000030EF4CFDBFFD950020FE96E12EC0FF029
:100B90000AE0D950020FA8EC0FF0FF0EEE180BE19F
:100BA000FF0EED1808E11B0EE66E2E0EE66ECEC0AF
:100BB000E6FFCAEC0EF0D0C0E6FF75EC1DF0E55282
:100BC000E76E040EE7CFDBFFDB5004E0040EDB50E2
:100BD000FF0806E1260EE66ED0C0E6FF5CEC0EF0E4
:100BE0000001BF0EA46F030EA56F140EA66FB20E08
:100BF000A76F010EA86F020EA96FDEC0E6FF06EC1C
:100C00000EF006E1450EE66EDEC0E6FF5CEC0EF08F
:100C1000E0C0E6FF06EC0EF006E13C0EE66EE0C03A
:100C2000E6FF5CEC0EF0E2C0E6FF06EC0EF006E13B
:100C3000E40EE66EE2C0E6FF5CEC0EF0E4C0E6FF18
:100C400006EC0EF006E1330EE66EE4C0E6FF5CEC67
:100C50000EF0E6C0E6FF06EC0EF006E1290EE66EA9
:100C6000E6C0E6FF5CEC0EF0E8C0E6FF06EC0EF036
:100C700006E1140EE66EE8C0E6FF5CEC0EF0CAC0BA
:100C8000E6FF06EC0EF008E1DEC0E6FF40EC0EF0F9
:100C9000CAC0E6FF5CEC0EF0D4C0E6FF06EC0EF036
:100CA00008E1E0C0E6FF40EC0EF0D4C0E6FF5CECEB
:100CB0000EF0D6C0E6FF06EC0EF008E1E2C0E6FF5B
:100CC00040EC0EF0D6C0E6FF5CEC0EF0D8C0E6FFBC
:100CD00006EC0EF008E1E4C0E6FF40EC0EF0D8C0F0
:100CE000E6FF5CEC0EF0DAC0E6FF06EC0EF008E181
:100CF000E6C0E6FF40EC0EF0DAC0E6FF5CEC0EF07A
:100D0000DCC0E6FF06EC0EF008E1E8C0E6FF40ECD0
:100D10000EF0DCC0E6FF5CEC0EF042DEC8EC10F03A
:100D2000E3DE0001AA0EA36FDCEC0EF054EC17F02A
:100D3000CEEC0EF0F56E060EE15C02E2E16AE552E1
:100D400048EF0EF000019E519F1108E09EC0E6FFA3
:100D50009FC0E6FF7BEC0FF0BFEC0EF0120016EF29
:100D600015F057EC0EF00A0EE12692EC0EF0EE5262
:100D7000EF50030806E100018F0503E17FEC0BF063
:100D8000EBD2F4C0E6FF05D0B7C0FAFF0001B651C0
:100D9000F96EFADFE5520001AC510001F35D02E1AA
:100DA0000001BA6B00019C5106E0000E9C6FC26FFF
:100DB000C36B010EC76F8F0519E1E868901908E150
:100DC000E868911905E1E868921902E1E868931969
:100DD0000DE0960EE96E000EEA6E9051EE5C9151B8
:100DE000EE589251EE589351EE5806E28150040BA2
:100DF00003E18350200B08E08F6B010EF36EFE0EB3
:100E0000F3CFDBFFDCEC0EF00001C75106E0000180
:100E1000F35103E10001C76B9FD2FE0EDB5001E0EE
:100E200076D000019E519F1172E1C4EC0EF0F3CF19
:100E30009EF0F4CF9FF00001F350F41063E036EC25
:100E40000FF0050EEF6E96C000F00F0E0016016A4F
:100E5000026A036A008A36EC0FF0EE5200C0EFFF20
:100E60003DEC0EF0EF6A0001F351006E3DEC0EF028
:100E70000050030BF36EFC0EEF14F310EF6E3DEC1D
:100E80000EF0EE52EF6A3DEC0EF0A1EC0FF0EF6ABF
:100E900066DF0001C56F8F0505E1C5C0E6FF4EECBA
:100EA00018F0E5520001965197119811991102E13D
:100EB000C5C0C6F0C651C55D016EE83405E3C65134
:100EC000C55DFF0DF35002D0C651C55D006E040E26
:100ED000E76E0018E8AE02D0E73402D0E750005CBD
:100EE00005E33DEC0EF0EF8CC5C0C6F09BEC0FF0B7
:100EF000E9CFBFF0EACFC0F0C16B962B97239823C0
:100F0000992305D0BB2B000EBC23BD23BE230001BB
:100F10009E519F1101E159D1C46BAC510001F35DA9
:100F200001E09BD000019D5128E09D0505E11CC119
:100F300000F01DC101F004D024C100F025C101F072
:100F400087EC0FF09D0505E11EC100F01FC101F007
:100F500004D026C100F027C101F08DEC0EF0FAECB0
:100F60000EF09D0505E120C100F021C101F057D030
:100F700028C100F029C101F052D0FF0E01011C155B
:100F8000036AE83404E31C51FF0DF35001D01C51F7
:100F9000700806E3FF0E1C15006EFE0E1D1505D031
:100FA00001012451006E010E2511016E87EC0FF036
:100FB000FF0E01011E15036AE83404E31E51FF0D04
:100FC000F35001D01E51700806E3FF0E1E15006E8F
:100FD000FE0E1F1505D001012651006E010E2711CE
:100FE000016E8DEC0EF0FAEC0EF0FF0E01012015F3
:100FF000026E036AE83404E32051FF0DF35001D080
:101000002051260806E3FF0E2015006EFE0E211566
:1010100005D001012851006E010E2911016E8DECE1
:101020000EF0040E00C0EBFF050E01C0EBFF8DECCF
:101030000EF0060E22C1EBFF070E23C1EBFF97EC6B
:101040000EF0C151006E016A0F0EBBEC0EF002E211
:10105000000E01D0010EC46F29D08DEC0EF06BECA8
:101060000EF097EC0EF08DEC0EF07CEC0EF08DECAB
:101070000FF0006E36EC0FF0E850EF26BA510AE0A0
:10108000C1417F0B006E016A070EBBEC0EF008E356
:10109000010E09D0C1417F0B026E020E025C02E21A
:1010A000000E01D0010EC46FF3C0F5F0FE0EDB5050
:1010B00003E1C45101E189D00001F35125E00001B1
:1010C000C151020821E2BA511FE19BEC0FF0E9CFB8
:1010D000DEFFEACFDDFF9BEC0FF0020EC15D080DD5
:1010E000E950F324006EEA50F420016E020E00C0B5
:1010F000DBFF030E01C0DBFF10EC0EF010EC0EF076
:1011000036EC0FF0150EEF6E0001F35106E1000111
:10111000A05103E0D7EC0EF0A06BD880FF0E0001C9
:10112000BB55FF0EBC55000EBD55000EBE5504E26A
:10113000BB69BC69BD6BBE6BBCC001F0006A026AD2
:10114000036A080ED8900332023201320032E806F8
:10115000F9E136EC0FF0EF500001EA6A9E25E96EE6
:101160009F51EA2200C0EFFF36EC0FF0EF2ABB518F
:10117000E66E3DEC0EF0020E38EC0EF0D7EC0EF001
:1011800036EC0FF0EF50026E036A050ED880025461
:10119000000E035404E2820E006E000E03D06C0EAB
:1011A000006E000E016E040E00C0DBFF050E01C0D4
:1011B000DBFF9EC0E6FF9FC0E6FF040EDBCFE6FF2D
:1011C000050EDBCFE6FFBFEC0EF00001F351010A84
:1011D0004AE0030A48E0020A01E0ABD00001945162
:1011E000951101E1A1D0C151006E016A0E0EBBEC58
:1011F0000EF001E299D0C151006E016A0E0E001886
:1012000017E1015015E1C22B000EC3239451C25DBA
:101210009551C35902E2AC5108D01CEC0FF003E128
:101220000001AD5102D00001AE510001F46F81D038
:101230009451C25D9551C35902E2AC5108D01CECE7
:101240000FF003E10001AD5102D00001AE510001E9
:10125000F36F0001AC510001F35D66E000011CEC8E
:101260000FF027E029D00001C26BC36BBA513FE0F9
:10127000C1417F0BE76E060EE7CFDBFF070EDB6E8B
:10128000DB04F36E060EDBCFF4FFF350F45C4FE3A8
:10129000070EDB04F36E060EDB50F35C10E1B807BB
:1012A000000EB95BB851B911D8743EE11CEC0FF0D7
:1012B00003E1ADC0F4F03DD0AEC0F4F03AD0B85187
:1012C000B9110BE01CEC0FF003E1ADC0F4F002D05B
:1012D000AEC0F4F0F4C0F3F02CD0ACC0F4F0ACC06D
:1012E000F3F0BA6BBB69BC69BD69BE6922D0C1416C
:1012F0007F0BE76E080EE7CFDBFF020EF36E090EE1
:10130000F3CFDBFFDB50F36E080EDB50F35C05E13F
:10131000ACC0F4F0ACC0F3F00CD0090EDB04F36EFB
:10132000080EDB50F35C03E1ACC0F4F002D0F3C074
:10133000F4F0F3C0E9FFEA6AE9BEEA68A5EC0EF052
:10134000FE0EDB5009E0000101EC0FF08E87020E6B
:10135000A95D02E1CEEC0EF0F56E0A0EE15C02E250
:10136000E16AE55248EF0EF057EC0EF06BEC0FF02F
:10137000030EBBEC0EF025E36BEC0FF07E0ED88075
:101380000054000E01541DE39DEC0EF0EF50030AD3
:1013900012E0010A09E0030A14E16BEC0FF0040EFD
:1013A000BBEC0EF010E20DD06BEC0FF0080EBBECB6
:1013B0000EF009E206D06BEC0FF0030EBBEC0EF062
:1013C00002E2F36A02D0010EF36EF46A67EF0FF0E7
:1013D00057EC0EF0E652090EE66EEA0EE66E000ECF
:1013E000E66E70EC1FF0A4EC0FF0DF6EDF5006E04D
:1013F000E0EC0EF045EC04F0E552E552DF50E5522A
:1014000067EF0FF057EC0EF0040EE1262AEC0FF018
:10141000A1EC0FF0EF5001E14AD11C0A01E141D1EA
:10142000070A01E13BD10B0A01E121D11F0A01E1C9
:1014300015D1150A01E10ED1030A01E106D1010A15
:1014400001E1FED00F0A01E1F6D0010A01E1EED080
:10145000030A01E1E6D0010A01E1DED0070A01E159
:10146000D6D0010A01E1CED0030A01E1C6D01F0A9D
:1014700001E1BED0030A01E1B6D0010A01E1AFD01B
:10148000070A01E1A3D0010A01E199D0030A01E1B1
:101490008DD0010A01E183D00F0A01E17BD0010A5E
:1014A00073E0030A6AE0060A3AE0010A33E0030A3D
:1014B00001E0FBD0ACEC0FF006E1010118511DE09A
:1014C00054EC17F01AD00101185102E1E2EC16F0C9
:1014D00020EC0FF052EC15F0E552000902E0000E8E
:1014E00001D0010E0001E8B08E81E8A08E918E51EE
:1014F000010B02E08E8301D08E93ACEC0FF001E182
:10150000D6D000018E51010B01E0D1D078DBEFCFB6
:10151000A3F0CDD020EC0FF0CAC0E6FFA3D0DE6A66
:10152000DD6A020EDB6A030EDB6AD9CFE6FFDACF93
:10153000E6FFD950020FE66E000EDA20E66E5AEC96
:1015400016F0A4EC0FF0E552000914E0020EDBCF18
:10155000E6FF030EDBCFE6FFCCC0E6FFCAEC0EF0E1
:10156000DECFE6FFDDCFE6FFCEC0E6FF39EC1EF0B2
:10157000E5527AD000018E839AD054EC17F0000126
:101580008E8B010E9A6F93D020EC0FF00001D229C0
:10159000E66E68D020EC0FF0D2C0E6FF63D0000109
:1015A000A46BACEC0FF0006E016A04D00001A56BD7
:1015B00080EC0FF00050A4130150A51378D0000167
:1015C000A76BACEC0FF0006E016A04D00001A86BB1
:1015D00080EC0FF00050A7130150A81368D00FDB68
:1015E000EFCFA6F064D020EC0FF0D4C0E6FF3AD0E5
:1015F00020EC0FF0D6C0E6FF35D020EC0FF0D8C0BD
:10160000E6FF30D020EC0FF0DAC0E6FF2BD020EC64
:101610000FF0DCC0E6FF26D020EC0FF0DEC0E6FFC6
:1016200021D020EC0FF0E0C0E6FF1CD020EC0FF042
:10163000E2C0E6FF17D020EC0FF0E4C0E6FF12D0C6
:1016400020EC0FF0E6C0E6FF0DD020EC0FF0E8C074
:10165000E6FF08D0D4DAEFCF9DF029D020EC0FF0D0
:10166000D0C0E6FF7EEC1DF0E552E55220D0ACEC98
:101670000FF0020A0AE0030A08E0010A04E0040A83
:1016800002E0070A12E1E66A02D0010EE66E65EC9E
:1016900017F0E552B4DAEFCFA9F009D00001AF6B33
:1016A00006D00001010EAF6F02D000018E8D000147
:1016B000010E9B6FF56E040EE15C02E2E16AE552F9
:1016C000E7D2F5DA020EE1268350400B01E0010E6D
:1016D000DF6EDF5003E00001AA5102E0000E01D0EE
:1016E000010EE76E010EE7CFDBFFDFCFAAF0DB5084
:1016F000F56E020EE15C02E2E16AE552C9D260DBFE
:1017000033DEE552E5521CDBF350F41001E1AFD0BB
:1017100009DBEF50E66E54DB32EC22F0A4EC0FF064
:10172000006E00DBEF500001EA6A8C25E96E8D51F6
:10173000EA22EF50005C02E08E859BD0010EE66E3F
:10174000F8EC17F0E552EEDAEE52EF50030A01E141
:101750007CD0010A0CE0030A01E089D000018F056A
:1017600001E187D02DDB4EDEE552E55282D000014B
:101770008F0501E17ED045DBD5DAE3DBEECF90F0DB
:10178000EECF91F0EECF92F0EFCF93F0CBDA020EE6
:1017900046DB59DBEECF94F0EDCF95F0010E8F6F65
:1017A000ADC0F5F09C6F03DBA06F0001F66BF76B2B
:1017B000F86B020E0001A95D04E1E66A65EC17F022
:1017C000E552A7C0E6FFA8C0E6FFA2EC17F0E5527D
:1017D000E552640E0001B86FB96BAEC0F4F0AEC054
:1017E000F3F0010EBA6FAA6FAB6BA951030A02E0C6
:1017F000070A03E166DF0009FDE0F3C0E9FFEA6ADA
:10180000E9BEEA68D890E936EA36B00EE926000E5D
:10181000EA22EECFB6F0EDCFB7F0F3C0E6FF05D089
:10182000B7C0FAFF0001B651F96EFADFE552950E26
:10183000CB6E9E929D0EE66E43EC26F0E552CC6A8E
:101840009F82D08EF29CF28E14D000018F6BB4DA9E
:10185000A2EC06F0020E0001A95D01E19FDA000191
:10186000A16BA26B32EC05F000018E8902D0000161
:101870008E8D58DAEE52EF6A120019DA030EE12665
:1018800004DAE76EFD0EDBCF00F0FE0EDBCF01F0D9
:10189000E7500026000E012200C0DEFF01C0DDFF80
:1018A0004CDA020EEFCFDBFFDB50F00B200805E136
:1018B000200EF36E020EF3CFDBFF020EDB5020088A
:1018C00005E0A6DA45EC04F0E552E552DED9E66E15
:1018D0009FDA32EC22F038DBE66EDECFE9FFDDCFB7
:1018E000EAFFE552E750EF6EDECFE9FFDDCFEAFF1A
:1018F000EF50F56E030EE15C02E2E16AE552C8D1F9
:10190000D6D9FD0EDBCF02F1FE0EDBCF03F1A2DA5A
:10191000EF280101066F0101076B0101010E016F44
:10192000D6D2C5D9050EE126DF6A2EDADE52F3CF14
:10193000DEFFF4CFDDFFDD52D950010FE96E72DA20
:1019400001E100D1950ECB6E9E929D0EE66E43ECAA
:1019500026F0E552CC6A9F82D08EF29CF28EF29CE9
:10196000F29E9E92030EDB6A040EDB6A030EDBCF4F
:1019700000F0040EDBCF01F0D890015004E60A0E0F
:10198000005C000E01580DE29EA2FED79E92E66A10
:1019900003EC11F0E552030EDB2A040EE7E3DB2A29
:1019A000E5D70ADA8DDA3B0EEF6E8ADAEE52100EC8
:1019B000EF6E0101185102E100018E8181A402D075
:1019C00000018E8319D9140EEF6E16D9EE52110E46
:1019D000EF6E12D9B6DA7FD90FD90A0E34DA8CD964
:1019E0000BD9120E30DAA3C0EFFFAFEC06F0E66EB3
:1019F00003D9130E3DD900D9140E25DA8EC0EFFF9E
:101A0000FBD8150E20DAEF6A6ADAEF6A81A402D0F9
:101A100066DAEF8283AA02D062DAEF808AA602D069
:101A20005EDAEF84CAC0E6FF12DA170E21D9D2C0FF
:101A3000E6FF41DA180E82DA1A0E05DA050EEF6EAD
:101A4000CCC0E6FF38DA1B0E3CD9CEC0E6FF33DA55
:101A50001D0E74DA1F0EF7D9A4C0EEFFA5C0EDFF6E
:101A6000CBD8210EF0D9A7C0EEFFA8C0EDFFC4D897
:101A7000230EE9D9A6C0EFFFD4C0E6FFE8D9240EB3
:101A8000F7D8D6C0E6FFE3D9250EF2D8D8C0E6FFD6
:101A9000DED92D0EEDD8DAC0E6FFD9D92E0EE8D862
:101AA000DCC0E6FFD4D92F0EE3D8DEC0E6FFCFD9E5
:101AB000300EDED8E0C0E6FFCAD9310ED9D8E2C078
:101AC000E6FFC5D9320ED4D8E4C0E6FFC0D9330E44
:101AD000CFD8E6C0E6FFBBD9340ECAD8E8C0E6FFCF
:101AE000B6D9350EC5D825EC18F039DA260EE9D866
:101AF0000DEC18F034DA280E21DA2A0E90D9EF6EA8
:101B0000D0C0E6FFA4D92B0EB3D876D82C0E9BD923
:101B1000A9C0EFFF71D8360E96D9F6C0EFFF6CD88A
:101B2000370E91D9F7C0EEFFF8C0EDFF0001AF51BD
:101B300002E0D5D9EF86F8D9820EE66E000EE66E89
:101B4000A9D9DF6EDF50F56E050EE15C02E2E16AB5
:101B5000E5529ED000018F0506E016EC15F0E66E0A
:101B60004EEC18F0E55200019A5104E131DC000915
:101B700001E0C5DD00019B5102E18E5107E0D1DE9D
:101B8000000904E000018E6B8EC09BF00101015141
:101B900032E10001A151A21106E049D9ACD97AD9AC
:101BA0000001A16BA26B820EE66E000EE66EF0ECF9
:101BB00023F0E552E552F3CFA1F0F4CFA2F00001FB
:101BC000F350F41008E033D958DEE552E5522FD92E
:101BD00097DEE552E55200019A510DE08A510BE182
:101BE000A151A21108E19A6B0001030EF66FF76B89
:101BF000F86B99EC05F0120063D923EF0FF02AD9A6
:101C0000A0D9EE5212001FD94FEF0FF075EC1DF066
:101C1000E552E76E050EE7CFDBFFDB50FF08120051
:101C2000D950020FE96E27D9EECF00F0EECF01F0C8
:101C3000EECF02F0EECF03F0EECF04F0EECF05F0E2
:101C4000EECF06F0EFCF07F0D9CFE9FF14D900C0EF
:101C5000EEFF01C0EEFF02C0EEFF03C0EEFF04C0C6
:101C6000EEFF05C0EEFF06C0EEFF07C0EEFF12005C
:101C7000EAD8E552E750EF6E1200F8D8A1EF0FF066
:101C800075EC1DF0E552E66E1200E4D8EF5012003C
:101C9000E16EF5501CD148D92ED9FCD8DF2AD95095
:101CA000010F56D97F0EEE26000EEF221200D9CF7B
:101CB000E6FFE1CFD9FF12007EEC1DF0E552E552C0
:101CC0001200C1D8F3CFEEFF01C0EDFF1200020EEB
:101CD000E66E2AEF0FF01CC1EEFF1DC1EEFF1EC124
:101CE000EEFF1FC1EEFF20C1EEFF21C1EEFF22C1BA
:101CF000EEFF23C1EEFF120024C1EEFF25C1EEFF6F
:101D000026C1EEFF27C1EEFF28C1EEFF29C1EEFF7D
:101D10002AC1EEFF2BC1EEFF1200BFC0E9FFC0C019
:101D2000EAFF12008CC0E9FF8DC0EAFF120000013B
:101D3000F4D89CD8E850EF2612008CD8EE5212004E
:101D4000F3CF00F0F4CF01F01200D890E936EA3674
:101D5000B00EE926000EEA22EECFB6F0EDCFB7F0D6
:101D60001200FD0EDBCF28F0FE0EDBCF29F01200B3
:101D7000160E23EF0FF0005C000E015812008AD8F7
:101D800000019E6B9F6B1200B6D8F0EC23F0E55279
:101D9000E552120039EC1EF0A4EF0FF0010EE66ED2
:101DA00065EC17F0E5521200030E23EF0FF0BB6B4A
:101DB000BC6BBD6BBE6B1200F29CF29EB5EF26F0C1
:101DC0008CC0E6FF8DC0E6FF12002AEC1EF0E55243
:101DD000F3CFDEFFF4CFDDFF1200E66EA5EC23F0BB
:101DE000F56E050EE15EF5501200DF6AD950010F65
:101DF000A8EF0FF0020E00C0EBFF030E01C0EBFFD7
:101E00001200966B976B986B996B9E6B9F6B120091
:101E1000FD0EDBCFE6FFFE0EDBCFE6FF120013D890
:101E2000040E1200DACFEAFFEE50ED101200A1C04E
:101E3000E6FFA2C0E6FF1200AE510001F55D120000
:101E40008BD8E66E1200E926000EEA22120018DF97
:101E5000FCEF0DF0FD0EDBCFE9FFFE0EDBCFEAFF5E
:101E60001200D1DE020EE66EFCEF0DF09EC0E9FF1F
:101E70009FC0EAFF1200DACFEAFFEECFF3FFEDCF0B
:101E8000F4FF080EEE26000EEF22F3CFE9FFF4CFA9
:101E9000EAFF1200D0EC23F057D8E5521200E9CF48
:101EA00000F0EACF01F0E9CFE6FFEACFE6FFB2ECBF
:101EB00021F0A4EF0FF02AEC1EF0E552AFEF0FF087
:101EC000010EDBCFE9FF020EDBCFEAFF1200E55285
:101ED000E7CFD9FF1200D9DE006E016A12008CDE56
:101EE000B8EF0EF0E66E070EDBCFE9FF080EDBCF92
:101EF000EAFF020E12006C0EE66E000EE66E120095
:101F00007EDEEFCF00F000C001F0006A120005DFB6
:101F100000C0EEFF01C0EDFF1200080EBF27000E4B
:101F2000C023C12B080E1200010EDBCFE6FF020E0C
:101F3000DBCFE6FF1200A1DED4EF0EF0C2DEFCEF35
:101F40000DF0020E23EF0FF0E552E552E5521200BC
:101F5000E96EDACFEAFF120052DEEF501200F0DE37
:101F6000FCEF0DF0BAEC18F0046A056A066A400E40
:101F7000076E0A0E0C6ED70E0D6E230E0E6E3C0E03
:101F80000F6EFE0EDBCF14F014C029F0A8EC19F090
:101F900027C010F028C011F029C012F02AC013F099
:101FA000BFEC18F00CC027F00DC028F00EC029F0CF
:101FB0000FC02AF0B8EC1AF027C008F028C009F0CA
:101FC00029C00AF02AC00BF0BFEC18F004C027F0BB
:101FD00005C028F006C029F007C02AF0CFEC19F0A0
:101FE00027C000F028C001F029C002F02AC003F089
:101FF00027C026F028C027F029C028F02AC029F0E1
:10200000AAEF18F0BAEC18F0080EE126CCC0E6FFF3
:10201000E7EC18F027C0DEFF28C0DEFF29C0DEFF96
:102020002AC0DDFFDD52DD52CEC0E6FFE7EC18F03E
:10203000040E27C0DBFF050E28C0DBFF060E29C0FB
:10204000DBFF070E2AC0DBFF39EC19F0EECF02F000
:10205000EECF03F0EECF04F0EFCF05F0FB0EDBCFB9
:1020600012F0FC0EDBCF13F0FD0EDBCF14F0FE0EF2
:10207000DBCF15F02C6A2D6A200E2E6E400E2F6ECF
:1020800012C027F013C028F014C029F015C02AF0A0
:10209000CEEC19F027C00EF028C00FF029C010F0C8
:1020A0002AC011F0040EDBCF1AF0050EDBCF1BF0B7
:1020B000060EDBCF1CF0070EDBCF1DF039EC19F05C
:1020C000EECF1EF0EECF1FF0EECF20F0EFCF21F0DD
:1020D0001EC02CF01FC02DF020C02EF021C02FF00C
:1020E0001AC027F01BC028F01CC029F01DC02AF020
:1020F000CEEC19F027C016F028C017F029C018F050
:102100002AC019F0BFEC18F00EC027F00FC028F05D
:1021100010C029F011C02AF0B8EC1AF027C00AF05C
:1021200028C00BF029C00CF02AC00DF0BC0E2C6E9C
:10213000490E2D6ECC0E2E6E3F0E2F6E65EC1AF0F2
:1021400027C006F028C007F029C008F02AC009F00F
:10215000BFEC18F002C027F003C028F004C029F03B
:1021600005C02AF0CFEC19F025EC1BF028C000F0D8
:1021700029C001F028C0F3FF29C0F4FFF56E080E56
:10218000E15C02E2E16AE552E16EF550AAEF18F077
:10219000C8EC18F0E3EC18F00F0EC112070EB412E1
:1021A000AB9EC00E9216F50E9316150E93123B0EB3
:1021B0009416030E9412E00E95169512F80E9616CC
:1021C0008B8C8994899A75EC19F06FEC17F0A2EC5E
:1021D00018F0F3EC17F0E66AF8EC17F0E55220EC93
:1021E00019F0010EE66E44EC18F0E552E80EE66ECA
:1021F000030EE66E68EC25F0E552E552E66A44EC23
:1022000018F0E5521200D9CFE6FFE1CFD9FF030E57
:10221000E126FE0EDB5002E1000E01D0010EDF6E62
:10222000FE0EDB50020802E0000E01D0010EE76E48
:10223000010EE7CFDBFF0001AF5102E1B40E01D088
:10224000F40EE76E020EE7CFDBFFE66AE66AE66AA7
:10225000ECEC25F0E552E552E5528C96FC0E8C161E
:10226000E66A79EC26F0E552030E8C128982DF5083
:10227000E8B08980E8A08990010EDB50E8B089843D
:10228000E8A08994000000000000000000000000A9
:10229000000000000000000000000000000000003E
:1022A000000000000000000000000000000000002E
:1022B000000000000000000000000000000000001E
:1022C000000000000000000000008C90100EC96E9D
:1022D000C7A0FED7C9CFFEF28992100EC96EC7A063
:1022E000FED7C9CFFFF2FEC224F1FFC225F18C92C6
:1022F000100EC96EC7A0FED7C9CFFEF2100EC96E70
:10230000C7A0FED7C9CFFFF2FEC21CF1FFC21DF16C
:10231000030E8C128988DF50E8B08986E8A0899680
:10232000010EDB50E8B0898AE8A0899A000000001D
:10233000000000000000000000000000000000009D
:10234000000000000000000000000000000000008D
:10235000000000000000000000000000000000007D
:10236000000000000000000000000000000000006D
:1023700000008C90200EC96EC7A0FED7C9CFFEF218
:102380008998200EC96EC7A0FED7C9CFFFF2FEC242
:1023900026F1FFC227F18C92200EC96EC7A0FED78E
:1023A000C9CFFEF2200EC96EC7A0FED7C9CFFFF27B
:1023B000FEC21EF1FFC21FF1030E8C128D82DF5090
:1023C000E8B08D80E8A08D900000000000000000C3
:1023D00000000000000000000000000000000000FD
:1023E00000000000000000000000000000000000ED
:1023F00000000000000000000000000000000000DD
:1024000000000000000000000000000000008C90B0
:10241000B40EC96EC7A0FED7C9CFFEF28D92B40E1E
:10242000C96EC7A0FED7C9CFFFF2FEC228F1FFC216
:1024300029F18C808C92B40EC96EC7A0FED7C9CF8B
:10244000FEF2B40EC96EC7A0FED7C9CFFFF2FEC21E
:1024500020F1FFC221F10001AF5110E1030E8C1AEF
:10246000B40EC96EC7A0FED7C9CFFEF2B40EC96EB6
:10247000C7A0FED7C9CFFFF28C8006D00DEC18F0B4
:10248000F3CFFEF2F4CFFFF2FC0E0201FF1783AC94
:1024900002D00201FF8383AE02D00201FF81FEC29F
:1024A0002AF1FFC22BF1FEC222F1FFC223F1F56E29
:1024B000030EE15C02E2E16AE552E16EF550E5529D
:1024C000E7CFD9FF1200D9CFE6FFE1CFD9FF020E47
:1024D000E126FE0EDB5002E1000E01D0010EDF6EA0
:1024E000FE0EDB50020802E0000E01D0010EE76E86
:1024F000010EE7CFDBFFE66AE66AE66AECEC25F060
:10250000E552E552E552FC0E8C16E66A79EC26F0AF
:10251000E552030E8C128982010EDB50E8B08984EB
:10252000E8A08994DF50E8B08980E8A08990000095
:10253000000000000000000000000000000000009B
:10254000000000000000000000000000000000008B
:10255000000000000000000000000000000000007B
:10256000000000000000000000000000000000006B
:10257000000000008C90100EC96EC7A0FED7C9CF16
:10258000FEF28992100EC96EC7A0FED7C9CFFFF226
:10259000FEC224F1FFC225F18C92100EC96EC7A0B5
:1025A000FED7C9CFFEF2100EC96EC7A0FED7C9CFA5
:1025B000FFF2FEC21CF1FFC21DF1030E8C128988CE
:1025C000010EDB50E8B0898AE8A0899ADF50E8B0B4
:1025D0008986E8A089960000000000000000000045
:1025E00000000000000000000000000000000000EB
:1025F00000000000000000000000000000000000DB
:1026000000000000000000000000000000000000CA
:102610000000000000000000000000008C90200E70
:10262000C96EC7A0FED7C9CFFEF28998200EC96E29
:10263000C7A0FED7C9CFFFF2FEC226F1FFC227F125
:102640008C92200EC96EC7A0FED7C9CFFEF2200E15
:10265000C96EC7A0FED7C9CFFFF2FEC21EF1FFC2EE
:102660001FF1030E8C128D82DF50E8B08D80E8A040
:102670008D9000000000000000000000000000003D
:10268000000000000000000000000000000000004A
:10269000000000000000000000000000000000003A
:1026A000000000000000000000000000000000002A
:1026B00000000000000000008C90B40EC96EC7A09E
:1026C000FED7C9CFFEF28D92B40EC96EC7A0FED759
:1026D000C9CFFFF2FEC228F1FFC229F18C808C9293
:1026E000B40EC96EC7A0FED7C9CFFEF2B40EC96E34
:1026F000C7A0FED7C9CFFFF2FEC220F1FFC221F171
:102700000001AF5110E1030E8C1AB40EC96EC7A0C0
:10271000FED7C9CFFEF2B40EC96EC7A0FED7C9CF8F
:10272000FFF28C8006D00DEC18F0F3CFFEF2F4CF60
:10273000FFF2FC0E0201FF1783AC02D00201FF83FF
:1027400083AE02D00201FF81FEC22AF1FFC22BF14B
:10275000FEC222F1FFC223F1F56E020EE15C02E23D
:10276000E16AE552E16EF550E552E7CFD9FF12007C
:10277000D9CFE6FFE1CFD9FF030EE126FE0EDB50F5
:1027800002E1000E01D0010EDF6EFE0EDB500208EA
:1027900002E0000E01D0010EE76E010EE7CFDBFF75
:1027A0000001AF5102E1B40E01D0F40EE76E020E4B
:1027B000E7CFDBFFE66AE66AE66AECEC25F0E55275
:1027C000E552E552FC0E8C16E66A79EC26F0E552ED
:1027D000030E8C128982010EDB50E8B08984E8A0D8
:1027E0008994DF50E8B08980E8A08990000000005B
:1027F00000000000000000000000000000000000D9
:1028000000000000000000000000000000000000C8
:1028100000000000000000000000000000000000B8
:1028200000000000000000000000000000000000A8
:1028300000008C90100EC96EC7A0FED7C9CFFEF263
:102840008992100EC96EC7A0FED7C9CFFFF2FEC293
:1028500024F1FFC225F18C92100EC96EC7A0FED7DD
:10286000C9CFFEF2100EC96EC7A0FED7C9CFFFF2C6
:10287000FEC21CF1FFC21DF1030E8C128988010EED
:10288000DB50E8B0898AE8A0899ADF50E8B08986F1
:10289000E8A0899600000000000000000000000091
:1028A0000000000000000000000000000000000028
:1028B0000000000000000000000000000000000018
:1028C0000000000000000000000000000000000008
:1028D000000000000000000000008C90200EC96E77
:1028E000C7A0FED7C9CFFEF28998200EC96EC7A037
:1028F000FED7C9CFFFF2FEC226F1FFC227F18C92AC
:10290000200EC96EC7A0FED7C9CFFEF2200EC96E39
:10291000C7A0FED7C9CFFFF2FEC21EF1FFC21FF152
:10292000030E8C128D82DF50E8B08D80E8A08D9070
:102930000000000000000000000000000000000097
:102940000000000000000000000000000000000087
:102950000000000000000000000000000000000077
:102960000000000000000000000000000000000067
:102970000000000000008C90B40EC96EC7A0FED706
:10298000C9CFFEF28D92B40EC96EC7A0FED7C9CFD3
:10299000FFF2FEC228F1FFC229F18C808C92B40EA6
:1029A000C96EC7A0FED7C9CFFEF2B40EC96EC7A0CC
:1029B000FED7C9CFFFF2FEC220F1FFC221F1000114
:1029C000AF5110E1030E8C1AB40EC96EC7A0FED72A
:1029D000C9CFFEF2B40EC96EC7A0FED7C9CFFFF2B1
:1029E0008C8005D01ADBF3CFFEF2F4CFFFF2FC0EA1
:1029F0000201FF1783AC02D00201FF8383AE02D035
:102A00000201FF81FEC22AF1FFC22BF1FEC222F1B8
:102A1000FFC223F1F56E030EE15C02E2E16AE552CA
:102A2000E16EF550E552E7CFD9FF1200A3DB020EAD
:102A3000E12694DB8C86B0EC26F0E76E010EE7CF42
:102A4000DBFFB0EC26F0DF6E39EC19F0020ED89007
:102A5000EE36ED36E806FBE18DEC19F0010EDB50A9
:102A6000F56E020EE15C02E2E16AE552E16EF550BC
:102A700071D380DB73DB8C944BEC19F0000E0016E5
:102A8000FF0E011601C000F052EC19F0FF0EE76EC8
:102A90004BEC19F0E750001652EC19F08C848DECD9
:102AA00019F058D367DB040EE126FE0EDBCFE6FFFC
:102AB000B2EC0FF0E55226C0DEFF27C0DEFF28C0D3
:102AC000DEFF29C0DDFFDD52DD52D3DBEECFE6FFB6
:102AD000EECFE6FFEECFE6FFEFCFE6FF02EC10F021
:102AE000E552E552E552E552F3CF1AF1F4CF1BF16E
:102AF000F3CFE6FFF4CFE6FFBCDFE552E552010E6F
:102B0000F56E040EE15C02E2E16AE552E16EF55019
:102B100021D3D9CFE6FF8250010B1CD3D9CFE6FFDA
:102B20008250020B01E0010E15D3D9CFE6FFE1CFB1
:102B3000D9FFFD0EDBCFE6FFFE0EDBCFE6FF99DF10
:102B4000E552E552C80EE66EE66A7EEC25F0E552E7
:102B5000E552FB0EDBCF00F0FC0EDBCF01F0FD0EEB
:102B6000DBCFE6FFFE0EDBCFE6FF04D001C0FAFFAD
:102B70000050F96EFBDFE552E552E552E7CFD9FF91
:102B80001200F8DA0C0EE126DE68DD68FC0EDB5080
:102B900002E0000E01D0FF0E006E016A00BE016867
:102BA000060E00C0DBFF070E01C0DBFFFC0EDB5092
:102BB00002E0FF0E01D0000E006E016A00BE016847
:102BC000080E00C0DBFF090E01C0DBFFFC0EDB506E
:102BD00002E0010E01D0FF0E006E016A00BE016826
:102BE0000A0E00C0DBFF0B0E01C0DBFF060EDBCFC1
:102BF00028F0070EDBCF29F0020E28C0DBFF030E02
:102C000029C0DBFF16DB080EDB50001803E1090EBC
:102C1000DB5001183EE071EC26F04BDB020EDBCFFF
:102C2000E6FF030EDBCFE6FF80DFE552E552E5521B
:102C3000E552E76E050EE7CFDBFFFBDA060EDB5051
:102C4000001803E1070EDB5001180DE0050EDB5004
:102C5000F36E040EDB50F35C06E0020EDBCFDEFF0A
:102C6000DBCFDDFF16D0050EDB50E76E040EE7CF9D
:102C7000DBFF0A0EDBCF00F00B0EDBCF01F0D950EB
:102C8000020FE96EDACFEAFF0050EE260150ED2286
:102C9000B9D7DECF00F0DDCF01F000C0F3FF01C0F7
:102CA000F4FFF56E0C0EE15C02E2E16AE552E16EC2
:102CB000F55050D25FDA0C0EE126DF6A010EDB6AB6
:102CC000020EA3C0DBFF030EDB6A040EDB6A050EF7
:102CD000DB6A060EDB6A070EDB6A080EDB6A090E8A
:102CE000DB6A0A0EDB6A0B0EDB6A0101185101E197
:102CF00069D8E6DAEE6AED6AEADAEE6AED6A48DA8F
:102D00000B0EDB6A010EF36E0B0EDBCFF4FFF350FC
:102D1000F45C1BE28350200B18E18150040B15E199
:102D2000010EE66E120EE66E2B0E5EDA030F69DA06
:102D3000010EE66E1C0EE66E2B0E56DA070F61DAF8
:102D40000B0EDB2A010EDB2ADDD72EDA030EDBCFDA
:102D500026F0040EDBCF27F0050EDBCF28F0060EA1
:102D600077DAAEDA26C0EEFF01C0EDFF1DDA070EFE
:102D7000DBCF26F0080EDBCF27F0090EDBCF28F0E3
:102D80000A0E66DAA4DA26C0EEFF01C0EDFF81501C
:102D9000040B03E18350200B02E0000E01D0010E72
:102DA000DF6EDF5005E0020EDBCFE6FF7BDEE55293
:102DB000DF50F56E0C0EE15C02E2E16AE552E16E75
:102DC000F550C8D1D7D9060EE1260101185102E00D
:102DD000010E61D035DA8C848C828C808C968B8C41
:102DE000A5DABCD9B1DAA3C0E6FF5CDEE552020E7B
:102DF000F36E040EF3CFDBFF050EDB6ADE6ADD6ADD
:102E0000DECF00F0DDCF01F0D890015004E6180EBF
:102E1000005C000E015828E2020EDB6A030EDB6A3A
:102E200008DAD890015004E60F0E005C000E01583D
:102E300011E28B8453DAF1D98B9450DA190ED880D1
:102E40000056000E0156E9D9020EDB2A030EE8E314
:102E5000DB2AE6D7DF2A010E01E3DB2A040EDB2A98
:102E6000050ECEE3DB2ACCD78B840A0E0001A65DCB
:102E700060DA640E78D9A7C0E6FFA8C0E6FF62D882
:102E8000E552E5528150040B02E0000E01D0010E24
:102E90000101186F1851F56E060EE15C02E2E16A5D
:102EA000E552E16EF55056D18C848C828C808C96E4
:102EB0003DDA8B943BDA52D939DA38DA45DA010156
:102EC000186B185101E0000C010C2CDA02E1000E25
:102ED00001D0010EE8B08D84E8A08D943BD14AD991
:102EE000E65219C1DFFFFD0EDB5004E0FE0EDB50A1
:102EF000DF1203D0FE0EDB1CDF1601011951DF5C6F
:102F000004E0D7D904D8E552E552E55223D132D9AD
:102F1000FD0EDB5005E0FE0EDB500101191304D05D
:102F2000FE0EDB1C010119178C988C968C808C820C
:102F30008C8414D919C1E6FF79EC26F0E5528C880F
:102F40008C9808D117D9030EE126010EDB6A020E18
:102F5000F36EDB6ECAD9D2D9E66A100EE66ECED910
:102F6000DF6A080EDF5C02E2E9D9FBD7DF6A0A0EEE
:102F7000DF5C28E2010EDBCF02F0020EDBCF03F0B4
:102F8000FD0EDB500214006EFE0EDB500314016ECA
:102F90000050011002E0010E01D0000EE66E400E5E
:102FA000E66EACD9D950010FE96EDACFEAFF010E17
:102FB0000F0B06E0EC52D890ED32EF32E806FAE162
:102FC000DF2AD5D7DF6A060EDF5C02E2B7D9FBD76E
:102FD0008CD994D9F56E030EE15C02E2E16AE55208
:102FE000E16EF550B7D0B0D90001A65199EF19F0B4
:102FF00099D902E0010E01D0000EE66E800E7AD95A
:10300000A9D08C90B40EC96EC7A0FED7C9CFFEF26E
:10301000B40EC96EC7A0FED724D1D5D88C968C82A9
:103020008C90F40EC96EC7A0FED728D9C7A0FED7D2
:10303000C9CFFFF28C8027D98C90F40EC96EC7A03F
:10304000FED71CD9C7A0FED70CD1BDD88C968C80DA
:103050008C92F40EC96EC7A0FED710D9C7A0FED7B8
:10306000C9CFFFF28C820FD98C92F40EC96EC7A023
:10307000FED704D9C7A0FED7C9CFFFF28C82FEC20B
:10308000F3FFFFC2F4FF12004DD902E1000E01D0A0
:10309000010EE8B08A86E8A08A965CD06BD8020E52
:1030A000E126D0C0E6FF75EC1DF0E552DF6EDFCF04
:1030B00002F0036A02BE0368033404E30250850889
:1030C000FF0E035407E2050EDF5C006E016A00AEDE
:1030D00004D002D0800E006E0168010E00C0DBFF3C
:1030E000FE0EDBCF00F0DF50E76E0018E8AE02D036
:1030F000003403D0E750D880005406E28A50080B11
:1031000003E1010EE66E13D0FE0EDBCF00F0010EE0
:10311000DB50E76E0018E8AE02D0003403D0E75071
:10312000D880005406E38A50080B03E0E66AACDF5F
:10313000E552F56E020EE15C02E2E16AE552E16EF3
:10314000F55008D0E552E552010EE66EDAD8E66A8F
:1031500081EF19F0E552E7CFD9FF1200E66AE66A7F
:10316000010EE66ED4D0E66EE66A68EC25F0E55214
:10317000E5521200D9CFE6FFE1CFD9FF120027C0F8
:103180002CF028C02DF029C02EF02AC02FF01200FC
:10319000C4D889908992898489968998898A8D90E2
:1031A0008D928A968D841200010EDBCF02F0036AA5
:1031B000046A056A02C02BF003C02CF004C02DF095
:1031C00005C02EF01200E66AE66AE66AA0D02AEC94
:1031D0001EF0E552F3CF00F0F4CF01F0F3CF28F06A
:1031E000F4CF29F0B9EF19F0E66ECBDCE552E552E9
:1031F000E552F3CF00F0F4CF01F0026A036AD95030
:103200001200E96EDACFEAFFF350EE260150EE220B
:103210000250EE220350EE221200D890013200320A
:1032200000C0E6FF01C0E6FF7EEC25F0E552E55266
:103230001200020EDBCF00F0030EDBCF01F0120014
:10324000A4C0E6FFA5C0E6FF7DDEE552E552120010
:10325000DBCF29F01FEC26F026C000F027C001F0DC
:103260001200C9CFFFF28C80FEC2F3FFFFC2F4FF51
:103270001200D9CFE9FFDACFEAFF1200C9CFFEF280
:10328000F40EC96E1200040EE66EE66A7EEC25F0BE
:10329000E552E5521200FD0EDBCF00F0FE0EDBCF53
:1032A00001F01200016A0050E66E79EC26F0E5525A
:1032B0001200FD0EDBCFE6FFFE0EDBCFE6FF1200B5
:1032C000FD0EDBCFE9FFFE0EDBCFEAFF1200FB0EA7
:1032D000DBCFE9FFFC0EDBCFEAFF1200040EDBCFF1
:1032E00000F0050EDBCF01F01200010EE66E100EAD
:1032F000E66E1200E66EF3DDA2EF18F008DEA2EF34
:1033000018F0200EE66EEBDDE552E5521200ECEC13
:1033100025F0E552E552E55212008C808C828C84B7
:103320008C96120027DFFE0EDB5012000A0EB3EF60
:1033300018F019DFE66A010E7AEF19F0E66A400E1E
:10334000E66EDCDFDF2A1200010EE66E7AEF19F07E
:10335000319E05D0319E29AE02D0296C318E29C014
:1033600023F0226A356A346A860E246E256A70EF6D
:103370001BF0319E08D0319E29AE05D0286C291E45
:10338000E86A2922318E29C023F028C022F0356A4C
:10339000346A8E0E246E256A70EF1BF02F7E316A20
:1033A000ACEC1BF0C4EC1BF031B654EF1BF031A2B7
:1033B0000AD031AA03D031BE54EF1BF031A460EF24
:1033C0001BF05DEF1BF031AA05D031AC60EF1BF0B4
:1033D0005DEF1BF031A00AD031A808D031BE04D077
:1033E00031A402D069EF1BF06DEF1BF0346A256A3F
:1033F0002F502A5C336E10E327C035F028C022F02E
:1034000029C023F02AC032F02CC027F02DC028F0AC
:103410002EC029F0313A09D02CC035F02DC022F051
:103420002EC023F02FC032F0336C319E31BC318E70
:1034300032C024F031B09CEF1BF01A0E33609CEFC9
:103440001BF0246A2A6A31A408D0276C281E291E82
:103450002A1EE86A282229222A2231AC08D0356C9B
:10346000221E231E241EE86A222223222422266AE8
:10347000335207E02A342932283227322632332EBB
:10348000F9D72750352628502222295023222A50A6
:10349000242226C034F0319E24AE0BD0346C351E6D
:1034A000221E231E241EE86A3522222223222422E1
:1034B000318E24A006D0D8802332223235323432E5
:1034C000322A32C024F070EF1BF0316AACEC1BF0F2
:1034D000C4EC1BF031B654EF1BF031A205D031BA69
:1034E00054EF1BF05BEF1BF031BA67EF1BF031A01C
:1034F00005D031B854EF1BF067EF1BF031B85BEF2C
:103500001BF0256A7F0E2A24246EE86A25222F509C
:10351000245EE86A255A1A0E326E2A6A346A356ABF
:10352000226A236A2C50275E2D50285A2E50295A81
:10353000000E2A5A09E72C5027262D5028222E50FB
:103540002922000E2A2201D0348AD8902736283624
:1035500029362A36D8903436353622362336322E5E
:10356000E1D7295028102710D8A4348A70EF1BF017
:10357000316AACEC1BF0C4EC1BF031B654EF1BF01D
:1035800031A205D031B854EF1BF05BEF1BF031AA2C
:1035900005D031B054EF1BF05BEF1BF031B002D01F
:1035A00031A802D067EF1BF0256A2F502A24246E21
:1035B000E86A25227E0E245EE86A255A346A356A56
:1035C000226A236A2E502902F4CF23F0F3CF22F08F
:1035D0002D502902F3503526F4502222000E2322CA
:1035E0002E502802F3503526F4502222000E2322BA
:1035F0002C502902F3503426F4503522000E22229A
:1036000023222D502802F3503426F4503522000E88
:10361000222223222E502702F3503426F450352242
:10362000000E222223222C502802F4503426000EB1
:103630003522222223222D502702F4503426000E58
:1036400035222222232270EF1BF0316AACEC1BF0F2
:1036500031B62FEF1BF031A20ED031B405D07F0E62
:10366000296EFF0E286E1FD0800E296E286A1BD08F
:10367000296A286A18D031B0FBD78F0E2A60EDD79F
:103680007E0E2A64F5D78E0E2A5C05E0D89029328A
:1036900028322A2AF8D731A406D0286C291EE86AD5
:1036A000292229AEE5D712007F0E2A6EFF0E296E61
:1036B000286E276E12007F0E31BEFF0E2A6E02D0DA
:1036C0007F0E2A6E800E296E286A276AF3D731AEE4
:1036D00004D0800E2A6E296AF7D72A6A296AF4D79D
:1036E0002350221035103410F8E025BEF0D723BE49
:1036F0000CD024502510EBE0D890343635362236E5
:1037000023362406D8A02506F2D72550D4E1242854
:10371000D2E034AE11D07F0E341402E135A00CD0CB
:10372000352AE86A2222232207E3D8802332223274
:103730003532242A2428BFE02450C9E035C027F0C0
:1037400022C028F02334296E24302A6E29322A9E82
:1037500031BE2A8E5AEF1BF029362A3602E3318415
:10376000317E06E131802A6A296A286A276A1200B6
:103770002A2803E0D88029321200D890293202E1A9
:1037800031821200318612002E362F3602E3318C40
:10379000317E06E131882F6A2E6A2D6A2C6A12006A
:1037A0002F2803E0D8802E321200D8902E32EAE182
:1037B000318A12006C500CE16896040100513C0BF8
:1037C000E842E8420D0802E10AD8010C3BD8010C9E
:1037D000040E6C5C03E1689644D8010C000C74D9AB
:1037E000E652040104BF046B01014C6B446B456B52
:1037F0004A6B4B6B72EC20F0DF6ADF50006E016A9F
:10380000010E005C000E01581AE20101455117E15A
:10381000F76ADF34FE0BF736F66EC30EF626490E56
:10382000F7220900F5CF00F00800F5CF01F004D031
:1038300001C0FAFF0050F96EFBDFDF2ADED7B0D8F7
:10384000E55247D1020E0101445D09E17BD8040134
:1038500000BD02D0C80E01D0880E006F120009EF23
:103860001DF0040E0701FC5D09E122C46EFF6E50DD
:10387000000802E2050E01D0030EFC6F01014405B1
:1038800010E111D8020E01014C5D03E10401840E28
:1038900006D0040104BD02D0C80E01D0880E046F0A
:1038A000120009EF1DF010D9020EE1260101080EE9
:1038B0004A5D000E4B590DE24AC1DEFF4BC1DDFFF0
:1038C0004C5102E1010E03D04C0506E1020E4C6F93
:1038D00003D0080EDE6EDD6A040104930491010E2C
:1038E000DB500413DFCF05F4000EDB5001014A5F0B
:1038F000010EDB504B5B280E486F040E496F070129
:10390000FDA30CD0DAD815E046C1F6FF47C1F7FF9A
:103910000800F550C2D8F6E2DB06F4D7CED809E0AD
:1039200046C1E9FF47C1EAFFEF50B7D8F7E2DB062F
:10393000F5D7F56E020EE15C02E2E16AE552E16E56
:10394000F550C7D0C1D8020EE126030E04010015C0
:10395000E76E010EE7CFDBFF01C4DFFFDE500101A0
:103960004A27DD504B23280E466F040E476FA5D81B
:103970000EE046C1E9FF47C1EAFFEF5048C1E9FF49
:1039800049C1EAFFEF6EA9D8F2E2DB06F0D7F56E87
:10399000020EE15C02E2E16AE552E16EF55099D077
:1039A0006D980101455105E180D8840E006F040136
:1039B0001DD0040120AF1CD001014A510401265D35
:1039C00001014B510401275904E226C44AF127C4DE
:1039D0004BF169DF0101010E446F67D8800E006F63
:1039E0000401280E066F040E076FC80E046F120044
:1039F0000101020E446F0401056BC80E046F04013F
:103A0000080E016F280E026F040E036FC80E006FC0
:103A100012005AD8E652020E0101445D35E16D50A4
:103A2000100B32E004010151006E016A080E00180B
:103A30002BE1015029E100513C0BE842E8420D081E
:103A400023E10051800B20E1200E026F040E036F72
:103A5000DF6ADF50006E016A080E005C000E01583C
:103A60001AE2DF50EA6A280FE96E040EEA22EF50EC
:103A7000E66EDF50EA6A200FE96E040EEA22E55294
:103A8000E750EF6EDF2AE5D70101446B0ED88C0EAC
:103A9000006F0401046BE5521CD048C1E9FF49C125
:103AA000EAFFEF6E01016DEF1DF00401080E016FDA
:103AB000200E026F040E036F1200D9CFE9FFDACF98
:103AC000EAFFEE50ED101200D9CFE6FFE1CFD9FFAB
:103AD0001200E552E7CFD9FF1200482B000E492310
:103AE000462B4723DF06010E120009D9FE0EDB50DC
:103AF000A96EA69CA69EA680A85074D100D9020EDD
:103B0000E12633D9FD0EDB50DF5C23E0F250800B61
:103B100001E0010EE76E010EE7CFDBFFF29CF29EA3
:103B2000FE0EDB50A96EFD0EDB50A86EA69CA69E75
:103B3000A684550EA76EAA0EA76EA682A6B2FED7C1
:103B4000A198A694010EDB50E8B0F28EE8A0F29E98
:103B50000CD9FD0EDB50DF5C02E0000E01D0010E3F
:103B6000006E016A00BE016807D902E2E16AE5520F
:103B7000B5D0C5D8030EE126FB0EDB50DF6ECFD8E3
:103B80000BD90BE010D9B1DFE552E66EFDD801E3A9
:103B9000DB2AE552E750EF6EF3D7DF50F56E030EE8
:103BA000E15C02E2E16AE55299D0A9D8040EE1266F
:103BB000DF6AB5D8010EF36E030EF3CFDBFF030E01
:103BC000DB5012E0E9D810E0DFD801E3DB2AEF5048
:103BD000E66EE9D893DFE552E552030EF3CFDBFF43
:103BE000DB50EDE0DF2AEBD7DF50F56E040EE15C31
:103BF00002E2E16AE55272D082D8ABD804E6110E37
:103C0000005C000E015807E2D5D801E2E5D894D84F
:103C1000B0DFDDD8DF6EDF50F56E020EE15C02E250
:103C2000E16AE5525BD06BD894D804E6110E005CD3
:103C3000000E015807E2BED801E2CED87DD8B5DF2C
:103C4000C6D8DF6EDF50F56E020EE15C02E2E16A7B
:103C5000E55244D054D8020EE126DE6ADD6A54D81B
:103C6000DECF00F0DDCF01F087D802E2E16AE55255
:103C700035D045D8020EE66ED950FC0F32D03FD871
:103C8000040EE126DE6ADE6ADE6ADD6ADD52DD529E
:103C90003BD8DECF26F0DECF27F0DECF28F0DDCF19
:103CA00029F0DD52DD52F56E040EE15C02E2E16ABC
:103CB000E55214D024D8040EE66ED950FA0F11D074
:103CC000FD0EDBCFE9FFFE0EDBCFEAFFD890E93631
:103CD000EA36C80EE926000EEA221200E16EF5501F
:103CE00081D0E66EFF0EDA20E66EFE0EDBCFE6FF39
:103CF0005CDF6DD8016AF36E01C0F4FF73D0D9CFD9
:103D0000E6FFE1CFD9FF1200E66ED9CFE6FFDACFAA
:103D1000E6FFFE0EDBCFE6FF2CDFE7EF1EF0FC0E2A
:103D2000DBCF28F0FD0EDBCF29F0DE5228C0DEFF0E
:103D300029C0DDFFDD521200FA0EDBCFE6FFFB0EDD
:103D4000DBCFE6FFFC0EDBCFE6FF010EDBCFE6FFAD
:103D50001200020EE126DF6AFD0EDBCF00F0FE0E40
:103D6000DBCF01F0D89001501200FE0EDBCFE6FF52
:103D7000BCDEE552DF6E120000C0F3FF01C0F4FFAD
:103D8000F56E020EE15C1200010EDBCFE9FFDB2ACB
:103D9000020EDBCFEAFF1200FB0EDBCFF3FFDB06E8
:103DA000F35000091200FE0EDBCFF3FFDB2AF350C5
:103DB000E66E120085DF010EEFCFDBFFFA0EDBCFE0
:103DC00000F07EDFEE52EF50D88000541200E55232
:103DD000E552E552E552120073DFEE52FA0EEFCFD4
:103DE000DBFF1200E552E7CFD9FF1200040120519A
:103DF0001F0B010801E012002051600BE842E8426D
:103E0000E842E842E842010801E01200245103E0E0
:103E1000240501E012002151230A39E0010A33E0B0
:103E2000030A25E0010A1CE0240A31E0070A2FE01A
:103E3000010A2DE0030A0EE0010A01E012004ED94A
:103E40000101100E466F010E476F0701FD9301013E
:103E5000080E17D043D90101100E486F010E05D08E
:103E60003DD90101080E486F010E496F120036D985
:103E70000101080E466F010E476F0701FD93010116
:103E8000070E4A6F12002AD922C40FF11200120045
:103E90000101086BC20E096F010E0A6F0B6B0C6BF0
:103EA0000D6B080E0E6F016B006B1A0E726E1E0EFC
:103EB000736E0401000E166F050E176F400E146F1F
:103EC0000401196F080E1A6F050E1B6F880E186F0C
:103ED0000401480E1E6F050E1F6F400E1C6F12006E
:103EE000D9CFE6FFE1CFD9FF0101006B040118BF74
:103EF00030D0FC0EDBCF00F01951D880005403E223
:103F0000FC0E19C4DBFF0101006BFC0EDB50005DF1
:103F100019E20051EA6A080FE96E050EEA22EF5035
:103F2000E66E0051E76EFD0EDBCFE9FFFE0EDBCF44
:103F3000EAFFE750E926000EEA22E552E750EF6E6D
:103F4000002BE3D70401400E196F1817187D880E57
:103F5000181301010051E552E7CFD9FF1200ACD888
:103F60000101015114E1DF6AB2D802E101500BE016
:103F7000FD0EDBCFE9FFDB2AFE0EDBCFEAFF01E31C
:103F8000DB2AEF50F1E175D8076B010E016F9AD073
:103F900093D80101015115E1DF6A99D802E101507E
:103FA0000CE0FD0EDBCFF6FFDB2AFE0EDBCFF7FFCA
:103FB00001E3DB2A0800F550F0E15BD8010E076F42
:103FC000016F80D079D804011CBF52D0030E0101CB
:103FD000015D01E1016B01514BE0020E015D03E166
:103FE00004011D6B3CD001053DE1400E006E016AED
:103FF0000651005C000E015803E2400EDF6E02D055
:1040000006C1DFFFDFCF1DF4DF50065D066F480EEF
:10401000046F050E056F07050AE1DF5011E002C1CC
:10402000F6FF03C1F7FF0800F5503AD8F6D7DF5086
:1040300007E002C1E9FF03C1EAFFEF5031D8F7D72B
:10404000010106510FE104011D51006E016A400E8D
:10405000001805E1015003E10101020E02D0010147
:10406000030E016F400E04011C171C7D880E1C13EB
:1040700029D0DF50006E016AD950FD0FE96EFF0EA6
:10408000DA20EA6E0050EE5E0150ED5AFD0EDBCFF5
:1040900002F1FE0EDBCF03F1DFCF06F101011200CA
:1040A00004C1E9FF05C1EAFFEF6E042B000E0523F2
:1040B000022B0323DF061200D9CFE6FFE1CFD9FFA1
:1040C000E6521200E552E552E7CFD9FF1200DF2A8F
:1040D000DF50006E016AFF0E001812000101030E8E
:1040E000456F120004012051600BE842E842E842AB
:1040F000E842E842000901E012002151070A40E0CD
:104100000B0A3EE0070A33E0010A23E00B0A1FE036
:10411000020A1DE0030A19E0080A10E0010A0CE097
:104120000F0A08E0030A01E0120014D90701040E87
:10413000FC6F1200C1EF20F0F8EF20F00BD9010165
:10414000FE0E466F070E476F0CD013EF21F047EFBE
:1041500021F004D90101466F476BFF0E4627070E79
:1041600047230701FD930101010E4A6F1200F6D8A3
:10417000EA6AFF0FE96E070EEA2222C4EFFF12007F
:104180001200800E0401205D32E12351030A1FE07A
:10419000010A0AE0030A29E1DDD80101F40E466FA5
:1041A000480E476F120E1ED0AFD8B50EF626490E38
:1041B000BDD8020E0101F76A4625F66E4751F72277
:1041C0000900F5CF4AF10A00F5CF4BF10ED09CD88B
:1041D000BA0EF626490EAAD846C1F6FF47C1F7FF28
:1041E0000800F55001014A6F4B6B0701FD83120077
:1041F000B1D80F0EE66E710EE66E0F0E9FD8010E4F
:10420000E66EFF0EE66E070E99D822C4FEF7040193
:10421000225104E10701050EFC6F12000701060E92
:10422000FC6F48EF1FF00401286B296B040120513B
:104230001F0B020A11E0030A0DE0010A1AE18AD8F5
:1042400080A402D0040128810701FDA112D004013D
:1042500028830FD07FD80DD04BD801E0010E5DD858
:1042600048C1E9FFEA6EEF50040B03E00401010EC0
:10427000286F010145050AE10101280E466F040E71
:10428000476F0701FD930101020E4A6F12000401FE
:1042900022050EE120511F0B00090AE15BD8030E35
:1042A0000401215D03E10701FD8102D00701FD91B9
:1042B000040122511CE120511F0B020818E1245176
:1042C0000F0B000914E014D801E0010E26D8030EEC
:1042D0000401215D04E1840E38D8EF6E120024AF92
:1042E00003D033D8EF6A1200880E2FD8EF6E120079
:1042F00035D80F0B080DF350016A000F006E040E45
:1043000001222451800B120025D804012251F66E9F
:10431000F76AD890F636F7361200040DF350010113
:104320000024486F000E0120496F1200F722090097
:10433000F5CF46F10A00F5CF47F11200E66E90EC9A
:1043400023F0E552E552E552120048C1E9FF49C1A8
:10435000EAFF12000101010E456F1200FBDF0401AC
:1043600024511200F8D8040EE126FD0EDBCFDEFF4B
:10437000DBCFDDFFFC0EDB50E76EDFCF00F0010E80
:10438000DBCF01F0E7500026000E01220006015AA3
:10439000020E00C0DBFF030E01C0DBFFD9CFE9FF37
:1043A000DACFEAFFEE50ED102FE0DECF00F0DDCFE8
:1043B00001F0020EDBCF02F0030EDBCF03F0025060
:1043C000005C0350015820E2D5D8EFCF02F0DECFD9
:1043D000E9FFDDCFEAFF0250EF1AEFCF01F0CAD8B4
:1043E0000150EF1AEFCF00F0DECFE9FFDDCFEAFF9B
:1043F0000050EF1ADF2A010E01E3DB2A020EDB0672
:10440000030ED3E2DB06D1D7F56E040EE15C02E2C7
:10441000E16AE552E16EF550A3D09DD8FB0EA4D819
:1044200007E0D950FD0F87D8FC0EDBCFEFFFF6D7A2
:1044300097D091D8E150FD0FA4D813E0D950FB0FCD
:10444000A0D80FE0FA0E90D80CE0D950FB0F73D82B
:10445000EF50E66ED950FD0F6ED8E552E750EF6E83
:10446000F1D77ED078D8030EE126DF6AFD0EDBCFD0
:1044700028F0FE0EDBCF29F0DE5228C0DEFF29C077
:10448000DDFFDD52D950010FE96EDACFEAFFEE50C1
:10449000ED100FE0FC0E68D80CE0010EDBCFE9FF59
:1044A000DB2A020EDBCFEAFF01E3DB2AEF50DF2637
:1044B000F1D7DF50F56E030EE15C02E2E16AE552EE
:1044C000E16EF5504DD047D8FD0EDBCF02F0FE0E69
:1044D000DBCF03F0FB0EDBCF04F0FC0EDBCF05F0EF
:1044E0000250045C035005580FE3FB0EDBCF06F0CF
:1044F000FC0EDBCF07F0FD0EDB50065C006EFE0EFF
:10450000DB500758016E12D0FD0EDB1C086EFE0E4C
:10451000DB1C096EFB0EDB500824006EFC0EDB502A
:104520000920016E010E0026000E012200C0F3FFDB
:1045300001C0F4FF15D0E96EFF0EDA20EA6EEECF6F
:10454000F3FFEDCFF4FF000EEE26EF22F3CFE9FFED
:10455000F4CFEAFF1200D9CFE6FFE1CFD9FF120076
:10456000E552E7CFD9FF1200DBCFF3FFDB06F350B4
:1045700000091200020EDBCFE9FF030EDBCFEAFFDA
:104580001200E96EFF0EDA20EA6EEE50ED10120016
:1045900081A804D06DB604D00FD802D06DB613D860
:1045A0000701FC0508E16DBA06D0686A696A69808E
:1045B0006988020EFC6F12006D6A696A6D860701D8
:1045C000010EFC6F12006D6A696A0701FC6B120034
:1045D000E3EF22F00701FC5101E112006850040BE7
:1045E00004E06950040B01E046D86DB21200685037
:1045F000010B04E06950010B01E06AD86850100B10
:1046000004E06950100B01E02ED86850400B04E024
:104610006950400B01E048D86850200B04E0695015
:10462000200B01E043D86850020B04E06950020BF4
:1046300001E04CD8030E0701FC5D01E2120000010D
:10464000F96B040EF95D0EE26850080B0BE069503F
:10465000080B08E0DAEC1BF0000901E168960001A4
:10466000F92BEFD71200698468986D82A19AA08A0D
:104670000300A09A12006D92699468A402D0689415
:10468000FCD712000701FDA10ED06D926D840001D0
:10469000080EFA6F070EFB6FFA07000EFB5BFA516C
:1046A000FB11FAE16D941200689C120070A00CD00E
:1046B000800E0401005D07E1840E0401045D03E146
:1046C00004018C0E006F7090689A12006A6A1200E2
:1046D0006A6A686A9F0E6B6E7B0E696E6E6A0F0E59
:1046E000E66E710EE66E0F0EE66E1AD8E552E552D2
:1046F000E552160E706E68A608D06896000000009D
:104700000000000000000000F6D76D9809EC1DF0D5
:104710000701FD910701FE6B0701030EFC6F1200FC
:10472000D9CFE6FFE1CFD9FFFD0EDBCFE9FFFE0ECB
:10473000DBCFEAFFFC0EDB5004E0EE6AFC0EDB068A
:10474000F9D7E552E7CFD9FF120086D828E079D80B
:10475000040E7ED897D875D895D8FC0E036ADB3442
:10476000FE0B0336026EFA0EDB500224006EFB0EC7
:10477000DB500320016E020E005E000E015A61D86C
:10478000060EAFD85ED8020EACD85BD8090E60D842
:10479000FC0EDBCFEFFF91D8EF6A010EDF6E79D010
:1047A0005BD81DE08AD8EFCF00F04BD8090E50D867
:1047B000EF50005C14E245D8060E71D803E281D8B0
:1047C000060E8FD83ED8060E8FD8FB0EDBCFEEFF3D
:1047D000FC0EDBCFEDFF71D8EF2AEFCFDFFF59D012
:1047E000D9CFE6FFE1CFD9FF020EE126DE6ADD6A0E
:1047F0006FD813E062D8EF5010E023D8040E74D8BD
:10480000EECFDEFFEDCFDDFF1CD8040E48D803E26B
:1048100058D8040E66D851D8EF06DECF00F0DDCFB1
:1048200001F000C0F3FF01C0F4FFF56E020EE15C81
:1048300002E2E16AE552E16EF550E552E7CFD9FFB9
:104840001200FD0EDBCFE9FFFE0EDBCFEAFF120008
:10485000E926000EEA221200D9CFE6FFE1CFD9FF08
:10486000E652DF6A68EF24F0EECF02F0EFCF03F0FC
:104870000050025C01500358120000C0EEFF01C05E
:10488000EDFF1200FA0EDBCFEEFFFB0EDBCFEDFFEC
:104890001200DF50E552E552E7CFD9FF1200D8DF12
:1048A000020EEE26000EED22EECF00F0EDCF01F06D
:1048B000C8DF020ECDDF34EF24F0C3DF080E28EF8F
:1048C00024F0BFDFEECF00F0EFCF01F021EF24F0B6
:1048D000D950FD0FE96EFF0EDA20EA6EEE50ED10B2
:1048E0001200B6DF3DEF24F0B3DFEE50EFCFEAFF6A
:1048F000E96E12001201000202000008D80423FE33
:104900000000010200010902430002010080320997
:104910000400000102020100052400100104240229
:104920000205240600010524010001070582030891
:10493000000209040100020A00000007050302400A
:104940000000070583024000000403090430034D02
:10495000006F006E0073006F006F006E0020005348
:10496000006F006C007500740069006F006E0073CA
:10497000002C00200049006E0063002E0038034D1B
:10498000006F00620069006C006500200044006553
:10499000007600690063006500200050006F00771A
:1049A000006500720020004D006F006E0069007409
:1049B000006F007200064906490249494D497D4988
:1049C0003A0104EC3DCF5BD8E652E55250D057D8BF
:1049D000E2CFDAFFE9CFE4FFEACFE4FFF6CFE4FF6E
:1049E000F7CFE4FFF5CFE4FFF3CFE4FFF4CFE4FF2C
:1049F000FACFE4FF00EE22F0140EE80403E3EECF5A
:104A0000E4FFFBD700EE00F0220EE80403E3EECF54
:104A1000E4FFFBD7E6529EA208D000018F0504E117
:104A2000E66AB1EC06F0E5529E92E55200EE21F006
:104A3000220EE80403E3E5CFEDFFFBD700EE35F0EF
:104A4000140EE80403E3E5CFEDFFFBD7E5CFFAFF53
:104A5000E5CFF4FFE5CFF3FFE5CFF5FFE5CFF7FFB7
:104A6000E5CFF6FFE5CFEAFFE5CFE9FF00D0E5CFE0
:104A7000DAFFE550E5CFE0FFE5CFD8FF1000D8CF53
:104A8000E4FFE0CFE4FFE46EDACFE4FF1200D9CF19
:104A9000E6FFE1CFD9FF020EE1269D0EDE6E030E8A
:104AA000DD6EDFCF00F0DF06010EDBCF01F001E2AB
:104AB000DB0600500110F5E1F56E020EE15C02E24A
:104AC000E16AE552E16EF550E552E7CFD9FF1200F9
:104AD000D9CFE6FFE1CFD9FFFD0EDBCF00F0DB063B
:104AE000FE0EDBCF01F001E2DB060050011002E018
:104AF000CEDFF2D7E552E7CFD9FF1200D9CFE6FFDC
:104B0000E1CFD9FFFD0EDBCF00F0DB06FE0EDBCFE1
:104B100001F001E2DB06005001100BE00000000094
:104B20000000000000000000000000000000000085
:104B3000E9D7E552E7CFD9FF12002A0EF66E080E2C
:104B4000F76E000EF86E01010900F550356F09008F
:104B5000F550366F03E1356701D03DD00900F550BF
:104B6000306F0900F550316F0900F550326F0900C0
:104B70000900F550E96E0900F550EA6E09000900D8
:104B80000900F550336F0900F550346F0900090032
:104B9000F6CF37F1F7CF38F1F8CF39F130C1F6FF62
:104BA00031C1F7FF32C1F8FF0101335302E1345341
:104BB00007E00900F550EE6E3307F8E23407F9D745
:104BC00037C1F6FF38C1F7FF39C1F8FF01013507DA
:104BD000000E365BBFD71200D9CFE6FFDACFE6FF73
:104BE000E1CFD9FFE2CFDAFF3F0EC716C66AFD0E4E
:104BF000DB50C612FB0EDB50C712FC0EDB50030A63
:104C000009E0010A04E0020A06E1C78C04D0C78C5F
:104C1000C68801D0C688FD0EDB50050A03E0010AF4
:104C200004E1928A9382C79E01D09392949E9380CE
:104C3000C68AE552E5CFDAFFE7CFD9FF1200256A31
:104C4000246A236A226A200EE76ED8902636273619
:104C50002836293622362336243625362B50225C38
:104C60002C5023582D5024582E50255809E32B50F2
:104C7000225E2C50235A2D50245A2E50255A262A73
:104C8000E72EE4D71200D9CFE6FFDACFE6FFE1CF77
:104C9000D9FFE2CFDAFFFD0EDB50FB0BCA6ECC6A08
:104CA0009E92FD0EDBAE02D09D8201D09D92CA8401
:104CB000E552E5CFDAFFE7CFD9FF120004D811D8CB
:104CC00093EC26F0FCD70F0EC11293889284140E39
:104CD0006F6E0701FC6B0701FD6B0701FE6B91EF27
:104CE00026F0C8EC22F06FBE02D0EAEC22F0E2EF30
:104CF0001FF0D9CFE6FFDACFE6FFE1CFD9FFE2CF51
:104D0000DAFFFD0EDB50C96EC6AE02D0FF0E03D037
:104D1000C7A0FED7000EE552E5CFDAFFE7CFD9FFF7
:104D2000120099EF05F08150100B07E0060E070105
:104D3000FC5D03E36D50020B05E0E66AF8EC17F04A
:104D4000E5521200AAEF0DF013EE00F023EE00F092
:104D5000F86A319C9DEC25F05EEC26F0FDD7120040
:104D6000C96AC7A0FED7C9501200CA949D9212000A
:104D70000A0346004600460046000000000000000E
:104D80000000000000000000000000000000000023
:104D90000000000000000000000000000000000013
:104DA000000000000000EA000000FFFFFFFF00001D
:104DB00000000000000000000000010000AABF0386
:104DC00014B201020100000102000622C62470276D
:104DD0000622640001000000000000000000000046
:104DE00000010000FFFF00000000000000000000C4
:104DF00000000000000000000000000202010302A9
:104E00000502070108020A010B010C010D010E0148
:104E10000F0110011101120113011401FFFFFFFF27
:104E2000FFFFFFFFFFFFFFFFFFFFFFFFFFFFFFFF92
:104E3000FFFFFFFFFFFFFFFFFFFFFFFFFFFFFFFF82
:104E4000FFFFFFFFFFFFFFFFFFFFFFFFFFFFFFFF72
:104E5000FFFFFFFFFFFFFFFFFFFFFFFFFFFFFFFF62
:020000040030CA
:0E000000250E3F1E008181000FC00FE00F4053
:00000001FF
