:04080000D7EF2DF011
:04080800A2EF0FF05C
:100818003D80D8CF9DF0E8CF9EF0E0CF9FF0FACF93
:10082800A0F0FBCFA1F0E9CFA2F0EACFA3F0E1CF8F
:10083800A4F0E2CFA5F0D9CFA6F0DACFA7F0F3CF96
:10084800A8F0F4CFA9F0F6CFAAF0F7CFABF0F8CF25
:10085800ACF0F5CFADF053EC11F0ADC0F5FFACC086
:10086800F8FFABC0F7FFAAC0F6FFA9C0F4FFA8C005
:10087800F3FFA7C0DAFFA6C0D9FFA5C0E2FFA4C056
:10088800E1FFA3C0EAFFA2C0E9FFA1C0FBFFA0C02F
:10089800FAFF9FC0E0FF9EC0E8FF9DC0D8FF3D90D3
:0608A8001000D7EF2DF057
:1009000000A30943090B096101710938034D006F08
:1009100000620069006C00650020004400650076FC
:1009200000690063006500200050006F00770065DB
:1009300000720020004D006F006E00690074006FAF
:100940000072002E034D006F006E0073006F006F89
:10095000006E00200053006F006C00750074006989
:10096000006F006E007300200049006E0063002ECF
:100970000009022000010100C0320904000002FF4A
:100980000000000705010240000007058102400049
:100990000012010001FF000008B92A01001900013E
:1009A0000203010403090400126EC2EF07F0020EF5
:1009B00095EC33F0106E10500C6E0D6A0E6A0F6AD3
:1009C000BDEF08F0BDEF08F0030EE6EC32F006C014
:1009D0000CF007C00DF00E6A0F6ABDEF08F0BDEF16
:1009E00008F0050EE6EC32F006C00CF007C00DF082
:1009F0000E6A0F6ABDEF08F0BDEF08F0070E95EC28
:100A000033F0106E10500C6E0D6A0E6A0F6ABDEF57
:100A100008F0BDEF08F0080EE6EC32F006C00CF06E
:100A200007C00DF00E6A0F6ABDEF08F0BDEF08F0C9
:100A30000A0E95EC33F0106E10500C6E0D6A0E6AB3
:100A40000F6ABDEF08F0BDEF08F00B0E95EC33F028
:100A5000106E10500C6E0D6A0E6A0F6ABDEF08F032
:100A6000BDEF08F00C0E95EC33F0106E10500C6ECC
:100A70000D6A0E6A0F6ABDEF08F0BDEF08F00D0EAB
:100A800095EC33F0106E10500C6E0D6A0E6A0F6A02
:100A9000BDEF08F0BDEF08F00E0E95EC33F0106ED0
:100AA00010500C6E0D6A0E6A0F6ABDEF08F0BDEFB4
:100AB00008F00F0E95EC33F0106E10500C6E0D6AAE
:100AC0000E6A0F6ABDEF08F0BDEF08F0100E95EC4E
:100AD00033F0106E10500C6E0D6A0E6A0F6ABDEF87
:100AE00008F0BDEF08F0110E95EC33F0106E1050C9
:100AF0000C6E0D6A0E6A0F6ABDEF08F0BDEF08F0CC
:100B0000120E95EC33F0106E10500C6E0D6A0E6ADA
:100B10000F6ABDEF08F0BDEF08F0130E95EC33F04F
:100B2000106E10500C6E0D6A0E6A0F6ABDEF08F061
:100B3000BDEF08F0140E95EC33F0106E10500C6EF3
:100B40000D6A0E6A0F6ABDEF08F0BDEF08F0010EE6
:100B50000C6E000E0D6E000E0E6E000E0F6EBDEFD1
:100B600008F0BDEF08F0160E71EC32F006C00CF084
:100B700007C00DF008C00EF009C00FF0BDEF08F07F
:100B8000BDEF08F01A0E71EC32F006C00CF007C091
:100B90000DF008C00EF009C00FF0BDEF08F0BDEF7A
:100BA00008F01E0E71EC32F006C00CF007C00DF01C
:100BB00008C00EF009C00FF0BDEF08F0BDEF08F05F
:100BC000220E71EC32F006C00CF007C00DF008C028
:100BD0000EF009C00FF0BDEF08F0BDEF08F0260ED3
:100BE00071EC32F006C00CF007C00DF008C00EF03A
:100BF00009C00FF0BDEF08F0BDEF08F02A0E71EC50
:100C000032F006C00CF007C00DF008C00EF009C0AD
:100C10000FF0BDEF08F0BDEF08F02E0EE6EC32F05D
:100C200006C00CF007C00DF00E6A0F6ABDEF08F0A9
:100C3000BDEF08F0300EE6EC32F006C00CF007C055
:100C40000DF00E6A0F6ABDEF08F0BDEF08F0320E2E
:100C5000E6EC32F006C00CF007C00DF00E6A0F6A29
:100C6000BDEF08F0BDEF08F0340EE6EC32F006C040
:100C70000CF007C00DF00E6A0F6ABDEF08F0BDEF73
:100C800008F0360EE6EC32F006C00CF007C00DF0AE
:100C90000E6A0F6ABDEF08F0BDEF08F00001FE51CB
:100CA0000C6E0D6A0E6A0F6ABDEF08F0BDEF08F01A
:100CB0000001FD510C6E0D6A0E6A0F6ABDEF08F05F
:100CC000BDEF08F00001F831E832030B106E105050
:100CD0000C6E0D6A0E6A0F6ABDEF08F0BDEF08F0EA
:100CE0000001F851030B106E10500C6E0D6A0E6A65
:100CF0000F6ABDEF08F0BDEF08F0FCEC33F0106EAA
:100D000010500C6E0D6A0E6A0F6ABDEF08F0BDEF51
:100D100008F000EC34F0106E10500C6E0D6A0E6A84
:100D20000F6ABDEF08F0BDEF08F0F8EC33F0106E7D
:100D300010500C6E0D6A0E6A0F6ABDEF08F0BDEF21
:100D400008F0CAC00CF0CBC00DF0CCC00EF0CDC086
:100D50000FF0BDEF08F0FBC00CF0FCC00DF00E6A08
:100D60000F6ABDEF08F0BDEF08F0F9C00CF0FAC053
:100D70000DF00E6A0F6ABDEF08F0BDEF08F0E3EC6E
:100D800033F001C00CF002C00DF00E6A0F6ABDEF27
:100D900008F0BDEF08F0CDEF06F09FEC2EF008C094
:100DA0000CF009C00DF00E6A0F6ABDEF08F0BDEF40
:100DB00008F00001E9510C6E0D6A0E6A0F6ABDEF72
:100DC00008F0BDEF08F01EC10CF01FC10DF00E6A57
:100DD0000F6ABDEF08F0BDEF08F0190E0C6E000EA3
:100DE0000D6E000E0E6E000E0F6EBDEF08F0BDEF23
:100DF00008F0010E0C6E020E0D6E000E0E6E000E4F
:100E00000F6EBDEF08F0BDEF08F0050E0C6E000E82
:100E10000D6E000E0E6E000E0F6EBDEF08F0BDEFF2
:100E200008F0880E0C6E130E0D6E000E0E6E000E86
:100E30000F6EBDEF08F0BDEF08F036EC30F008C0E3
:100E40000CF009C00DF00E6A0F6ABDEF08F0BDEF9F
:100E500008F014EC30F008C00CF009C00DF00E6A78
:100E60000F6ABDEF08F0BDEF08F0F2EC2FF008C0FC
:100E70000CF009C00DF00E6A0F6ABDEF08F0BDEF6F
:100E800008F054C010F010500C6E0D6A0E6A0F6A14
:100E9000BDEF08F0BDEF08F04EC010F010500C6E22
:100EA0000D6A0E6A0F6ABDEF08F0BDEF08F04FC083
:100EB00010F010500C6E0D6A0E6A0F6ABDEF08F04C
:100EC000BDEF08F020EE56F0DECF10F0DDCF11F0D0
:100ED00010C00CF011C00DF00E6A0F6ABDEF08F0E3
:100EE000BDEF08F05CC00CF05DC00DF05EC00EF010
:100EF0005FC00FF0BDEF08F03BC10CF03CC10DF03E
:100F00003DC10EF03EC10FF0BDEF08F022C10CF064
:100F100023C10DF00E6A0F6ABDEF08F0BDEF08F0B7
:100F200024C10CF025C10DF00E6A0F6ABDEF08F068
:100F3000BDEF08F00CEC34F0106E10500C6E0D6A22
:100F40000E6A0F6ABDEF08F0BDEF08F008EC34F050
:100F5000106E10500C6E0D6A0E6A0F6ABDEF08F02D
:100F6000BDEF08F004EC34F0106E10500C6E0D6AFA
:100F70000E6A0F6ABDEF08F0BDEF08F0B9EF08F098
:100F8000B9EF08F01250020AD8B4D7EF04F0010A02
:100F9000D8B4CDEF06F00F0AD8B44EEF06F0010A30
:100FA000D8B418EF05F0030AD8B425EF05F0010A0C
:100FB000D8B4FEEF04F01F0AD8B458EF06F0010AC7
:100FC000D8B432EF05F0030AD8B43FEF05F0010AB8
:100FD000D8B44CEF05F0070AD8B459EF05F0010A70
:100FE000D8B466EF05F0030AD8B473EF05F0010A30
:100FF000D8B480EF05F00F0AD8B48DEF05F0010AE0
:10100000D8B49AEF05F0030AD8B4B3EF05F0010A9B
:10101000D8B4C2EF05F0070AD8B4D1EF05F0010A41
:10102000D8B4E0EF05F0030AD8B4EFEF05F0010AF9
:10103000D8B4FEEF05F03C0AD8B462EF06F0070A18
:10104000D8B470EF06F0010AD8B40DEF06F0030A29
:10105000D8B41AEF06F0010AD8B427EF06F00F0A49
:10106000D8B434EF06F0010AD8B441EF06F0190AFB
:10107000D8B47DEF06F0010AD8B489EF06F0030A70
:10108000D8B495EF06F0730AD8B4A1EF06F0030ABE
:10109000D8B40BEF05F0010AD8B4ABEF06F0070A9D
:1010A000D8B4B5EF06F0010AD8B4A7EF05F00F0ADF
:1010B000D8B4BFEF06F0CC0AD8B4CDEF06F00E0AD4
:1010C000D8B4E4EF04F0010AD8B4F1EF04F0030A55
:1010D000D8B4D9EF06F0010AD8B4E3EF06F04B0A12
:1010E000D8B4EDEF06F0010AD8B4F9EF06F0030A20
:1010F000D8B405EF07F0010AD8B411EF07F0060ADB
:10110000D8B41DEF07F0030AD8B429EF07F0010A9D
:10111000D8B435EF07F00E0AD8B441EF07F0030A50
:10112000D8B44CEF07F0010AD8B457EF07F0070A1C
:10113000D8B462EF07F0010AD8B472EF07F0030ADF
:10114000D8B47CEF07F0010AD8B486EF07F01F0A85
:10115000D8B490EF07F0010AD8B49AEF07F0030A69
:10116000D8B4A6EF07F0010AD8B4B2EF07F0B9EF90
:1011700008F00C680D680E680F68120000018A6F95
:10118000CFEF0AF083C002F0020E7AEC2CF06FEF82
:101190000BF083C079F084C07AF0030E35EC33F0A5
:1011A0006FEF0BF083C079F084C07AF0050E35EC58
:1011B00033F06FEF0BF083C002F0070E7AEC2CF0E7
:1011C0006FEF0BF083C079F084C07AF0080E35EC35
:1011D00033F083C009F084C00AF066EC27F06FEFAB
:1011E0000BF083C002F00A0E7AEC2CF06FEF0BF0DC
:1011F00083C002F00B0E7AEC2CF06FEF0BF083C083
:1012000002F00C0E7AEC2CF06FEF0BF083C002F0C2
:101210000D0E7AEC2CF06FEF0BF083C002F00E0E87
:101220007AEC2CF06FEF0BF083C002F00F0E7AEC2B
:101230002CF06FEF0BF083C002F0100E7AEC2CF064
:101240006FEF0BF083C002F0110E7AEC2CF06FEF11
:101250000BF083C002F0120E7AEC2CF06FEF0BF063
:1012600083C002F0130E7AEC2CF06FEF0BF083C00A
:1012700002F0140E7AEC2CF06FEF0BF083C079F0D3
:1012800084C07AF02E0E35EC33F06FEF0BF083C094
:1012900079F084C07AF0300E35EC33F06FEF0BF05C
:1012A00083C079F084C07AF0320E35EC33F06FEF02
:1012B0000BF083C079F084C07AF0340E35EC33F053
:1012C0006FEF0BF083C079F084C07AF0360E35EC06
:1012D00033F06FEF0BF083C0FEF06FEF0BF083C0C5
:1012E000FDF081EF09F0000EC7EC33F06FEF0BF06B
:1012F000010EC7EC33F06FEF0BF06FEF0BF06FEFF9
:101300000BF00001FD51000AD8B473EF09F0010A97
:10131000D8B478EF09F06FEF0BF06FEF0BF083C0EC
:1013200086F00001864786470001F85100018619C2
:10133000F30B86190001F86F0001F831E832030B56
:10134000E806D8B4A6EF09F0ABEF09F00001866B10
:10135000862BADEF09F00001866B20EE54F0000102
:10136000863B86478647DF5000018619BF0B8619EA
:10137000DF6E6FEF0BF085C086F00001876B886B26
:10138000896B87C089F086C088F00001876B866B07
:1013900000018351000186110001CA6F00018451D0
:1013A000000187110001CB6F000E000188110001C0
:1013B000CC6F000E000189110001CD6F0001CA51F0
:1013C0000001CB110001CC110001CD11D8A4EBEF2D
:1013D00009F0EDEF09F0F1EF09F017EC33F06FEFE2
:1013E0000BF0CAC038F0CBC039F0CCC03AF0CDC059
:1013F0003BF0D0EC2FF00009D8B401EF0AF006EF73
:101400000AF00001866B862B08EF0AF00001866B5C
:101410000001F15100018619FE0B86190001F16FE0
:101420000001F151010B0001876F000187470001A6
:10143000F15100018719FD0B87190001F16FB9EC1B
:101440002CF06FEF0BF06FEF0BF083C0FBF084C05C
:10145000FCF06FEF0BF083C0F9F084C0FAF0F9C034
:1014600005F0FAC006F00DEC25F06FEF0BF083C02D
:1014700036F084C037F027EC33F06FEF0BF000014B
:10148000F85100018319FC0B83190001F86F62EF1A
:101490000AF04BEF0AF020EE54F0DF986FEF0BF0FC
:1014A00020EE54F0DF8820EE54F0DF9A6FEF0BF05F
:1014B00020EE54F0DF8820EE54F0DF8A6FEF0BF05F
:1014C0006FEF0BF00001F851030B000AD8B44BEF9B
:1014D0000AF0010AD8B450EF0AF0030AD8B458EF62
:1014E0000AF04BEF0AF06FEF0BF00001835130EC84
:1014F00034F06FEF0BF00001835131EC34F06FEFFB
:101500000BF0000183512FEC34F06FEF0BF0000172
:10151000835100018411D8B490EF0AF092EF0AF0E1
:101520009AEF0AF083C058F084C059F0F9EC26F025
:101530006FEF0BF09BEC30F06FEF0BF06FEF0BF0F9
:1015400083C0E9F06FEF0BF083C01EF184C01FF180
:101550006FEF0BF083C070F084C071F097EC2AF04D
:101560006FEF0BF083C070F084C071F0A1EC29F034
:101570006FEF0BF083C001F084C002F007EC33F092
:101580006FEF0BF0B8EC1BF06FEF0BF06FEF0BF0A1
:10159000000E72EF0BF072EF0BF06FEF0BF000012B
:1015A0008A51020AD8B4C2EF08F0010AD8B4C2EFD7
:1015B0000AF00F0AD8B46BEF09F0010AD8B4F1EFC2
:1015C00008F0030AD8B4F8EF08F0010AD8B4DBEF4A
:1015D00008F01F0AD8B46FEF09F0010AD8B4FFEF82
:1015E00008F0030AD8B406EF09F0010AD8B40DEFE9
:1015F00009F0070AD8B414EF09F0010AD8B41BEFB8
:1016000009F0030AD8B422EF09F0010AD8B429EF8F
:1016100009F00F0AD8B430EF09F0010AD8B437EF57
:1016200009F03A0AD8B48FEF09F0070AD8B43FEFAF
:101630000AF0010AD8B43EEF09F0030AD8B447EF24
:1016400009F0010AD8B450EF09F00F0AD8B459EFE5
:1016500009F0010AD8B462EF09F0190AD8B475EF9D
:101660000AF0010AD8B47BEF0AF0030AD8B481EF7C
:101670000AF0730AD8B4BBEF09F0030AD8B4E2EF5A
:1016800008F0010AD8B425EF0AF0070AD8B42BEF06
:101690000AF00E0AD8B437EF0AF0350AD8B487EF4B
:1016A0000AF0F70AD8B4C9EF08F0010AD8B4D2EFAB
:1016B00008F0030AD8B4A0EF0AF0010AD8B4A4EFE6
:1016C0000AF0070AD8B4AAEF0AF0010AD8B4B2EFB8
:1016D0000AF0020AD8B4BAEF0AF0C8EF0AF0010E15
:1016E00072EF0BF0120020EE5CF0DE50DE10DE1028
:1016F000DE10D8A47EEF0BF080EF0BF084EF0BF040
:101700007AEC30F084EF0BF001012051010121113E
:10171000D8B48DEF0BF08FEF0BF0A7EF0BF020C1DB
:10172000D9FF21C1DAFF0101DFBE99EF0BF09EEF77
:101730000BF001014A6B4A2BA0EF0BF001014A6B41
:1017400001014A510101516F526BAEEF0BF0000ED7
:101750000101526F000E516FAEEF0BF001015151BC
:1017600001015211D8B4B7EF0BF0B9EF0BF0BDEF98
:101770000BF0A7EF0DF0A7EF0DF020EE54F0DFB067
:10178000C4EF0BF0C6EF0BF0D5EF0BF020EE4FF0EF
:1017900010EE4EF0DE50E618D8B4D1EF0BF0D3EFD8
:1017A0000BF0A7EF0DF0D5EF0BF01CC1AEF01DC193
:1017B000AFF0000E0001B16F3A0EB06F77EC31F070
:1017C000000E00010001AE2501015F6F060E000151
:1017D0000001AF210101606F010120EE02F05F51B5
:1017E000D9266051DA220101DF9C010120EE02F0CE
:1017F0005F51D9266051DA220101DF9E00EF0CF023
:101800004FC04EF14EC15BF101015C6B20EE54F014
:10181000DFA00DEF0CF00FEF0CF016EF0CF0000E48
:1018200001015E6F030E5D6F56EF0CF05BC14AF174
:101830005CC14BF101014A1F4B1F4A4B4B2B4EC061
:101840004CF101014C5101014A2501015D6F000E6F
:1018500001014B2101015E6F01015EBF34EF0CF00D
:1018600032EF0CF039EF0CF0100E01015D27000E85
:101870005E230F0E01015D17000E5E1701015EBFB2
:101880004DEF0CF001015E510AE1040E01015D5DB6
:10189000D8A04DEF0CF04FEF0CF056EF0CF0000E0F
:1018A00001015E6F030E5D6F56EF0CF0000E01013B
:1018B000586F000E576FFBEF0CF057C1AEF058C1D8
:1018C000AFF0000E0001B16F120EB06F77EC31F087
:1018D000040E00010001AE27000E0001AF2300013D
:1018E0000001AE5101015F250101596F00010001A6
:1018F000AF510101602101015A6F5BC14AF15CC126
:101900004BF101014A3B4B3BF00E4B174A510F0B79
:101910004B13F00E4A17000E01014A250101536FC7
:10192000030E01014B210101546F59C155F15AC1F8
:1019300056F1000E0101506F100E4F6FB6EF0CF014
:1019400053C1D9FF54C1DAFF55C1E1FF56C1E2FFCF
:10195000DFCFE7FF0101534B542B0101554B562BB1
:1019600001014F07D8A05007B6EF0CF001014F510D
:1019700001015011D8A4BFEF0CF0C1EF0CF0A0EFA3
:101980000CF0C3EF0CF0000E01015B25D96E010EC7
:1019900001015C21DA6E010110EE10F05951E126CF
:1019A0005A51E222DFCFE7FF000E01015B25D96E1D
:1019B000020E01015C21DA6E010110EE11F05951A5
:1019C000E1265A51E222DFCFE7FF010E01015B253C
:1019D00001014A6F000E01015C2101014B6F0F0EE6
:1019E00001014A1501015B6F01015C6B0101574B5D
:1019F000582BFBEF0CF001015D510101575D010116
:101A00005E5101015859D8A008EF0DF00AEF0DF012
:101A10005DEF0CF00CEF0DF020EE4FF0DE50010109
:101A20004E19D8A416EF0DF018EF0DF000EF0CF0E2
:101A30001AEF0DF020EE54F0DF9020EE4FF0DF5063
:101A400001015D2501014A6F0F0E01014A174AC1CC
:101A50004FF020EE56F05FC1E1FF60C1E2FFDECF44
:101A6000E6FFDDCFE5FF20EE54F0010110EE02F0BD
:101A70005F51E1266051E2220101E79ADFAE43EFB8
:101A80000DF00101E78A010120EE02F05F51D92635
:101A90006051DA220101DF8881A4DF98010120EE84
:101AA00002F05F51D9266051DA220101DF500101B5
:101AB0002619F00B26190101DF6E0101262B010109
:101AC00020EE03F05F51D9266051DA225DC1DFFFBD
:101AD000010E0101436F1CC1AEF01DC1AFF0000E3D
:101AE0000001B16F3A0EB06F77EC31F0000E0001DB
:101AF0000001AE250101446F060E00010001AF2177
:101B00000101456F01015D51120DF350040F0101F8
:101B1000466F010E63EC23F043C120F144C121F173
:101B200001011C4B1D2B01011C5101011D11D8B4D9
:101B30009CEF0DF09EEF0DF0A7EF0DF0000E0101F0
:101B40001D6F000E1C6FA7EF0DF0A7EF0DF0120038
:101B500004013205D8A4AFEF0DF0B1EF0DF0D2EFD4
:101B60000DF0040130511F0B0009D8A4BAEF0DF09D
:101B7000BCEF0DF0D2EF0DF00001C38F030E040196
:101B80003119D8A4C6EF0DF0C8EF0DF0CDEF0DF070
:101B9000010E0001E66FD2EF0DF0000E0001E66FBE
:101BA000D2EF0DF004013251D8A4D9EF0DF0DBEFE4
:101BB0000DF0A1EF0FF0040130511F0B020AD8A461
:101BC000E4EF0DF0E6EF0DF0A1EF0FF0040134515A
:101BD0000F0B0009D8B4EFEF0DF0F1EF0DF0A1EF0E
:101BE0000FF0040134510F0B0001936F030E00013D
:101BF0009361FDEF0DF0FFEF0DF0A1EF0FF0200E60
:101C00000001F219D8A407EF0EF009EF0EF0A1EFD2
:101C10000FF00001C38F040134BF11EF0EF013EF7A
:101C20000EF038EF0EF0040134510F0B0001936FEA
:101C300000019351020D100EF324D96E010EF42011
:101C4000DA6EDECF97F0DDCF98F0040134510F0B40
:101C50000001936F00019351010DCE0EF324D96E54
:101C6000000EF420DA6EDF500001966F5DEF0EF08B
:101C7000040134510F0B0001936F00019351020DC9
:101C8000BA0EF324D96E000EF420DA6EDECF97F090
:101C9000DDCF98F0040134510F0B0001936F000168
:101CA0009351010DD10EF324D96E000EF420DA6E9B
:101CB000DF500001966F5DEF0EF0000196B163EF0B
:101CC0000EF065EF0EF069EF0EF0000197956DEFE5
:101CD0000EF0000197856DEF0EF0040134BF73EF35
:101CE0000EF075EF0EF089EF0EF0040134510F0B7A
:101CF0000001936F00019351020D100EF324D96E71
:101D0000010EF420DA6E97C0DEFF98C0DDFF9DEF74
:101D10000EF0040134510F0B0001936F0001935139
:101D2000020DBA0EF324D96E000EF420DA6E97C0BD
:101D3000DEFF98C0DDFF9DEF0EF0030E04013119A8
:101D4000D8A4A5EF0EF0A7EF0EF0EFEF0EF097C0BE
:101D5000D9FF98C0DAFF0001DFAEB1EF0EF0B3EFAC
:101D60000EF0E1EF0EF0040134BFB9EF0EF0BBEF5F
:101D70000EF0CDEF0EF0040134510F0B0001936F04
:101D800000019351010DCE0EF324D96E000EF42004
:101D9000DA6E0001DF82E1EF0EF0040134510F0B27
:101DA0000001936F00019351010DD10EF324D96E00
:101DB000000EF420DA6E0001DF82E1EF0EF0E1EFB9
:101DC0000EF097C0D9FF98C0DAFF000EDB8497C0F1
:101DD000D9FF98C0DAFF000EDB8EA1EF0FF0040EE2
:101DE0000001971B97C0D9FF98C0DAFF0001DFAE52
:101DF000FCEF0EF0FEEF0EF01CEF0FF097C0D9FFD6
:101E000098C0DAFF7F0EDF1697C0D9FF98C0DAFFBF
:101E1000000EDB8C000E00018C6F050E8B6F97C0DF
:101E20008DF098C08EF0000E0001906F020E8F6F43
:101E300031EC28F024EF0FF097C0D9FF98C0DAFFFB
:101E4000000EDB8C24EF0FF0040E0001971B000145
:101E500096B32DEF0FF02FEF0FF03BEF0FF097C081
:101E6000D9FF98C0DAFF0001DFAE39EF0FF03BEF8A
:101E70000FF07FEF0FF0040134BF41EF0FF043EF9D
:101E80000FF055EF0FF0040134510F0B0001936F69
:101E900000019351010DCE0EF324D96E000EF420F3
:101EA000DA6E0001DF9267EF0FF0040134510F0B7F
:101EB0000001936F00019351010DD10EF324D96EEF
:101EC000000EF420DA6E0001DF9267EF0FF097C08A
:101ED000D9FF98C0DAFF3B0EDF16000E00018C6FB1
:101EE000050E8B6F97C08DF098C08EF0000E00012C
:101EF000906F020E8F6F31EC28F087EF0FF097C0D4
:101F0000D9FF98C0DAFF3B0EDF1687EF0FF0040110
:101F100034510F0B0001936F00019351010D700EAE
:101F2000F3240001946F0F0EF4200001956F94C00C
:101F3000D9FF95C0DAFFFE0EDF16A1EF0FF0A1EF7B
:101F40000FF01200F2AA1000F2A41000F294D8CF01
:101F5000F0F0536E6B0ED66EE9CFEFF0EACFEEF0F5
:101F6000C66AC79EC78C9392949E9380C68A140EAD
:101F70008C6E000EC96EC7A0FED7030EEA6E4E50DF
:101F8000E83AE96E00F000D054BC47EF10F0170EAD
:101F90008C6E898254A8899054B8898054AA8994F7
:101FA00054BA89840B0EF9EC2BF08C90100EC96E8C
:101FB000C7A0FED7C9CFEEFF8992100EC96EC7A089
:101FC000FED7C9CFEEFF8C92100EC96EC7A0FED708
:101FD000C9CFEEFF100EC96EC7A0FED7C9CFEEFF66
:101FE00000F000D0170E8C6E898854A8899654B8DA
:101FF000898654AA899A54BA898A0B0EF9EC2BF077
:102000008C90200EC96EC7A0FED7C9CFEEFF89986D
:10201000200EC96EC7A0FED7C9CFEEFF8C92200E4E
:10202000C96EC7A0FED7C9CFEEFF200EC96EC7A0EC
:10203000FED7C9CFEEFF00F000D0170E8C6E8D8258
:1020400054A88D9054B88D800C0EF8EC2BF08C9029
:10205000B40EC96EC7A0FED7C9CFEEFF8D92B40EE5
:10206000C96EC7A0FED7C9CFEEFF150E8C6EF40E59
:10207000C96EC7A0FED7C9CFEEFFF40EC96EC7A0C8
:10208000FED7C9CFEEFF00F000D0C5EF10F0170E5D
:102090008C6E898254A8899054B8898054AA8994F6
:1020A00054BA89840B0EF9EC2BF08C90100EC96E8B
:1020B000C7A0FED7C9CFEEFF8992100EC96EC7A088
:1020C000FED7C9CFEEFF8C92100EC96EC7A0FED707
:1020D000C9CFEEFF100EC96EC7A0FED7C9CFEEFF65
:1020E00000F000D0170E8C6E898854A8899654B8D9
:1020F000898654AA899A54BA898A0B0EF9EC2BF076
:102100008C90200EC96EC7A0FED7C9CFEEFF89986C
:10211000200EC96EC7A0FED7C9CFEEFF8C92200E4D
:10212000C96EC7A0FED7C9CFEEFF200EC96EC7A0EB
:10213000FED7C9CFEEFF00F000D0170E8C6E8D8257
:1021400054A88D9054B88D800C0EF8EC2BF08C9028
:10215000F40EC96EC7A0FED7C9CFEEFF8D92F40E64
:10216000C96EC7A0FED7C9CFEEFF150E8C6EF40E58
:10217000C96EC7A0FED7C9CFEEFFF40EC96EC7A0C7
:10218000FED7C9CFEEFF00F000D00C0EF9EC2BF01B
:102190008C820C0EF8EC2BF08C90B40EC96EC7A09C
:1021A000FED7C9CFEEFFB40EC96EC7A0FED7C9CF08
:1021B000EEFF8C92B40EC96EC7A0FED7C9CFEEFF5A
:1021C000B40EC96EC7A0FED7C9CFEEFF170E8C6E36
:1021D000E93AE9CF4EF0010EEA6E330EEF6E020ED1
:1021E000EA6E030E54B8E88854BAE88A83BCE88CD7
:1021F00083BEE88EEF6E4E504F5C0BE154804F3C37
:102200000F0B4F6E562804E1572803E0576EE86A1B
:10221000566E5C505D145E145F14E81E12E05C5054
:102220005D105E105F100DE05C0605E25D0603E2E6
:102230005E0601E25F065C505D105E105F1001E11A
:102240009D925A505B100BE05A06D8A05B0654A82A
:102250000ED0547654A6549A54B6548A08D0547862
:1022600054B8F7D7549A58C05AF059C05BF0C6BE5C
:102270005484C69E1F0E8C6EC680C76AC950C96A38
:10228000C7A0FED7C9CF25F1C96AC7A0FED7C9CF5D
:1022900024F1170E8C6EEEC0EAFFEFC0E9FF535039
:1022A000F0C0D8FF10000001F205D8A45AEF11F0D9
:1022B0005CEF11F06EEF11F06DBA61EF11F063EFAA
:1022C00011F06EEF11F0000E686E69806988020EE1
:1022D0000001F26F6EEF11F06EEF11F068A473EF72
:1022E00011F075EF11F081EF11F069A47AEF11F0A0
:1022F0007CEF11F081EF11F06894FAEC2EF081EF91
:1023000011F06DA286EF11F088EF11F08BEF11F054
:10231000A19AB3EF12F068A090EF11F092EF11F0D4
:10232000A2EF11F069A097EF11F099EF11F0A2EF71
:1023300011F0CCEC17F0A08A040E0001F26F689047
:10234000A2EF11F068A8A7EF11F0A9EF11F0B4EF18
:1023500011F069A8AEEF11F0B0EF11F0B4EF11F089
:1023600094EC31F0B4EF11F068ACB9EF11F0BBEFC1
:1023700011F0F5EF11F069ACC0EF11F0C2EF11F000
:10238000D6EF11F0000E00018C6F730E8B6F000EF4
:1023900000018D6F000E00018E6F000E0001906F26
:1023A000010E8F6F31EC28F0D6EF11F0689CAEEC87
:1023B0002FF00001E251D8B4E0EF11F0E2EF11F09C
:1023C000E6EF11F00001E207E6EF11F00001E25143
:1023D000D8A4EDEF11F0EFEF11F0F5EF11F082EC72
:1023E00024F0F5EF11F0F5EF11F068AAFAEF11F013
:1023F000FCEF11F007EF12F069AA01EF12F003EF02
:1024000012F007EF12F03DEC2EF007EF12F068A289
:102410000CEF12F00EEF12F02AEF12F069A213EF98
:1024200012F015EF12F02AEF12F07F0E00018C6F00
:102430008B69000E00018D6F000E00018E6F000E83
:102440000001906F010E8F6F31EC28F0000E6A6E64
:102450002AEF12F0040E0001F26131EF12F033EFB7
:1024600012F036EF12F0A19AB3EF12F069A63BEF2B
:1024700012F03DEF12F0B2EF12F0000E00019C6F6F
:10248000030E00019C6547EF12F049EF12F04DEF8B
:1024900012F0B2EF12F0B2EF12F068A652EF12F0A3
:1024A00054EF12F0B2EF12F06CCFF6F00001F631FB
:1024B000E832E8320F0B0001E46F68960001F6B5D0
:1024C00064EF12F066EF12F073EF12F00001E451C6
:1024D000010DCE0EF324D96E000EF420DA6E000149
:1024E000DF7080EF12F00001E451010DD10EF324F2
:1024F000D96E000EF420DA6E0001DF7080EF12F06A
:102500000001E451D8A487EF12F089EF12F08DEFAB
:1025100012F0C8EC1FF0A5EF12F0000E00018C6F56
:10252000720E8B6FF60E00018D6F000E00018E6F24
:10253000000E0001906F000E8F6F31EC28F0A5EFB8
:1025400012F0A5EF12F0B2EF12F000019C2B030E77
:1025500000019C65AEEF12F0B0EF12F04DEF12F0FB
:10256000B2EF12F0A19A12000BC00FF0106A116ABC
:102570000A340F3601E310800F50146E0EC00FF0B6
:10258000106A116A0D340F3601E310800F50136E7C
:102590001450D8B4CEEF12F0D0EF12F0E5EF12F0F5
:1025A0001350145CD8B0D7EF12F0D9EF12F0EDEF62
:1025B00012F01450000813240F6E180E0F64E3EF8E
:1025C00012F0E5EF12F0EDEF12F00CC009F00DC0C3
:1025D0000AF00EC00BF00DEF14F01350D8B4F3EF67
:1025E00012F0F5EF12F00AEF13F01450135CD8B0AC
:1025F000FCEF12F0FEEF12F012EF13F01350000890
:1026000014240F6E180E0F6408EF13F00AEF13F086
:1026100012EF13F009C009F00AC00AF00BC00BF06A
:102620000DEF14F0060E126E0BAE19EF13F01BEF48
:1026300013F01EEF13F0128E1EEF13F00EAE23EF09
:1026400013F025EF13F026EF13F0128C0A8EFF0E15
:102650000916FF0E0A16000E0B160D8EFF0E0C1635
:10266000FF0E0D16000E0E161350145CD8B03BEF83
:1026700013F03DEF13F073EF13F03FEF13F0D8902A
:102680000C360D360E36130614501318D8B44BEF13
:1026900013F04DEF13F066EF13F0120612C00FF0B7
:1026A000070E0F16D8A457EF13F059EF13F03FEFB2
:1026B00013F066EF13F066EF13F066EF13F0D890A7
:1026C0000B320A320932142A66EF13F01350141831
:1026D000D8A46DEF13F06FEF13F05FEF13F0B2EFCC
:1026E00013F0B2EF13F01450135CD8B07AEF13F07C
:1026F0007CEF13F0B2EF13F07EEF13F0D8900936B1
:102700000A360B36140614501318D8B48AEF13F097
:102710008CEF13F0A5EF13F0120612C00FF0070EA6
:102720000F16D8A496EF13F098EF13F07EEF13F086
:10273000A5EF13F0A5EF13F0A5EF13F0D8900E322C
:102740000D320C32132AA5EF13F013501418D8A42D
:10275000ACEF13F0AEEF13F09EEF13F0B2EF13F007
:10276000B2EF13F012AEB7EF13F0B9EF13F0C5EFFD
:1027700013F0FF0E091AFF0E0A1AFF0E0B1A010EB4
:102780000926000E0A22000E0B2212ACCAEF13F02B
:10279000CCEF13F0DAEF13F0FF0E0C1AFF0E0D1A48
:1027A000FF0E0E1A010E0C26000E0D22000E0E2238
:1027B000DAEF13F0000E126E09500C260A500D22AB
:1027C0000B500E220EAEE7EF13F0E9EF13F0F9EF26
:1027D00013F0FF0E0C1AFF0E0D1AFF0E0E1A010E4B
:1027E0000C26000E0D22000E0E22010E126EF9EFC5
:1027F00013F00CC001F00DC002F00EC003F014C0C5
:1028000004F012C005F005EC21F001C009F002C08F
:102810000AF003C00BF00DEF14F012000401305168
:102820001F0B0009D8B417EF14F019EF14F01DEFC7
:1028300014F02CEF15F02CEF15F004013039E832CC
:10284000030B020AD8B427EF14F029EF14F0FCEFC1
:1028500014F02CEF15F02CEF15F0FCEF14F0040140
:1028600030AF35EF14F037EF14F09FEF14F0A09A6B
:1028700032C40CF033C40DF004013451D4EC04F034
:102880000CC033F10DC034F10EC035F10FC036F17C
:10289000330E0001C06F010E0001C16F000E000178
:1028A000C56F040EC46F810E0001C36FA08A0001C2
:1028B000C38F2CEF15F09FEF14F067EF14F067EF64
:1028C00014F067EF14F067EF14F067EF14F00401F1
:1028D0003445E846FC0BAE0F0001EA6F370E0001ED
:1028E000B26F010E0001B36F000E0001B76F040E4E
:1028F000B66F0C0E0001B86F650E0001B96F0001D4
:10290000B58F2CEF15F032C483F033C484F004018A
:1029100035510001856F04013451BEEC08F0000907
:10292000D8B495EF14F097EF14F02CEF15F00001E8
:10293000B58F2CEF15F02CEF15F02CEF15F00401EE
:1029400034511A0AD8B467EF14F0010AD8B467EF0B
:1029500014F0070AD8B467EF14F0010AD8B467EF8F
:1029600014F0030AD8B467EF14F0010AD8B467EF83
:1029700014F083EF14F02CEF15F02CEF15F0F29A11
:1029800024EE32F0DECF58F0DDCF59F03B0E0001DF
:10299000B26F010E0001B36F000E0001B76F040E9D
:1029A000B66F500E0001B86F670E0001B96F0001DD
:1029B000B58F2CEF15F0DDEF14F09BEC30F000013B
:1029C000B58F2CEF15F02CEF15F02CEF15F02CEF48
:1029D00015F02CEF15F02CEF15F08BEC26F001C064
:1029E0001EF102C01FF1040E0001E96F2CEF15F07B
:1029F0002CEF15F02CEF15F004013151010AD8B479
:102A00002FEF14F0030AD8B4BFEF14F0010AD8B4C2
:102A1000DDEF14F0070AD8B4BFEF14F0010AD8B400
:102A2000DDEF14F0150AD8B42CEF15F0020AD8B473
:102A30002CEF15F0010AD8B42CEF15F0070AD8B422
:102A40002CEF15F0010AD8B42CEF15F0EA0AD8B42F
:102A5000EDEF14F02CEF15F01200A09A000E6A6E44
:102A6000000E686E000E706E710E0101416F0F0E48
:102A70000101426F000E0101446F000E436F000E12
:102A80000101466F020E456F23EC2FF0160E6F6E9C
:102A90009F0E6B6E7B0E696E000E0001B06F0B0E09
:102AA0000001B06556EF15F058EF15F05CEF15F02A
:102AB00074EF15F074EF15F00001B051040D000E25
:102AC000F324D96E040EF420DA6EDE6ADE6ADE6A62
:102AD000DD6A0001B02B0B0E0001B06572EF15F03E
:102AE00074EF15F05CEF15F06D8C000E6E6E6D9846
:102AF0006D9C7BEF15F06896000E0001C36F000E11
:102B00000001B56F000E0001B76F000EB66F68B61A
:102B10008CEF15F08EEF15F07BEF15F090EF15F0C0
:102B2000010E0001E06F010E0001DF6F000E0001D9
:102B3000DE6F000E0001DD6F000E0001E56F000E7C
:102B40000001B06F020E0001B065A9EF15F0ABEF08
:102B500015F0AFEF15F0ECEF15F0ECEF15F000010C
:102B6000B051020DBA0EF324D96E000EF420DA6EC5
:102B7000000EDE6E000EDD6E0001B051020D100E73
:102B8000F324D96E010EF420DA6E000EDE6E000E14
:102B9000DD6E0001B051010DD10EF324D96E000E8F
:102BA000F420DA6E000EDF6E0001B051010DCE0E82
:102BB000F324D96E000EF420DA6E000EDF6E0001F1
:102BC000B02B020E0001B065E8EF15F0EAEF15F04A
:102BD000AFEF15F0ECEF15F0080E0001BA6F040E20
:102BE0000001BB6F160E706E040E0401036F300EF1
:102BF000026F080E0401016F040E0401006F04014E
:102C0000008F000E0001F76F000E0001C66F000E6E
:102C1000C76F000EC86F000EC96F000E0001DC6F99
:102C2000000E0001F26F1200800E04013019D8A4CA
:102C30001CEF16F01EEF16F0F3EF16F0C00E0001B9
:102C4000C36FE1EF16F0910E0001C06F090E000195
:102C5000C16F000E0001C56F120EC46FF3EF16F0C6
:102C600004013251D8A437EF16F039EF16F07EEF99
:102C700016F004013251020D090EF324F66E090E0E
:102C8000F420F76E0900F5CFC0F00A00F5CFC1F0CF
:102C9000020E0001C025016E000E0001C121026E6E
:102CA00001C0F6FF02C0F7FFF86A070EF76403D011
:102CB0000800F55005D0F6CFE9FFF7CFEAFFEF5057
:102CC0000001C46F030E0001C025016E000E00015B
:102CD000C121026E01C0F6FF02C0F7FFF86A070EBD
:102CE000F76403D00800F55005D0F6CFE9FFF7CF21
:102CF000EAFFEF500001C56FF3EF16F0000E000180
:102D0000C36FF3EF16F0F3EF16F0040E0401326117
:102D10008CEF16F08EEF16F0D3EF16F0030E0401D1
:102D20003219D8A496EF16F098EF16F0ABEF16F024
:102D300004013251020D010EF324F66E090EF42047
:102D4000F76E0900F5CFC0F00A00F5CFC1F0000121
:102D5000C381BCEF16F004013251020D010EF324C1
:102D6000F66E090EF420F76E0900F5CFC0F00A00E8
:102D7000F5CFC1F0BCEF16F0C0C0F6FFC1C0F7FF41
:102D8000F86A070EF76403D00800F55005D0F6CFB7
:102D9000E9FFF7CFEAFFEF50016E01500001C46F69
:102DA000C56BF3EF16F0000E0001C36FF3EF16F0E2
:102DB000F3EF16F0000E0001C36FF3EF16F0F3EF20
:102DC00016F004013351010AD8B423EF16F0030AB8
:102DD000D8B430EF16F0010AD8B485EF16F0DAEF68
:102DE00016F0F3EF16F01200000120EE01F0D851BA
:102DF000D926D951DA22DF50136E13500001B65D87
:102E0000000EB759D8B007EF17F009EF17F00DEF24
:102E100017F0B6C013F00DEF17F013500001B65FB6
:102E2000000EB75B000E126E2AEF17F01250010D64
:102E3000380EF324D96E040EF420DA6EB2C0E1FF2E
:102E4000B3C0E2FFDFCFE7FF0001B24BB32B122A82
:102E50002AEF17F01350125CD8A031EF17F033EFC0
:102E600017F016EF17F035EF17F00001B65100011B
:102E7000B711D8B43EEF17F040EF17F07EEF17F020
:102E8000000120EE01F0D651D926D751DA22080EE2
:102E9000DF6E000120EE02F0D651D926D751DA229A
:102EA000380EDE6E040EDD6ED8C0D9FFD9C0DAFF51
:102EB0000001DFBC5EEF17F060EF17F06EEF17F068
:102EC000D6C0D9FFD7C0DAFF480EDF6ED6C0D9FF13
:102ED000D7C0DAFF000EDB8ECBEF17F0D6C0D9FFDC
:102EE000D7C0DAFF080EDF6ED6C0D9FFD7C0DAFF31
:102EF000000EDB8ECBEF17F0CBEF17F0000120EECA
:102F000001F0D651D926D751DA22080EDF6E000122
:102F100020EE02F0D651D926D751DA22300EDE6EDD
:102F2000040EDD6ED6C0D9FFD7C0DAFF040EDF6E07
:102F3000D6C0D9FFD7C0DAFF000EDB8E0001B85132
:102F40000001B911D8B4A7EF17F0A9EF17F0BAEF45
:102F500017F020EEB8F002D8B8EF17F00500FA6EBF
:102F6000DE50FD6EDE50FE6EF850FF6EFA5012001D
:102F7000BAEF17F00001B59F0001E151D8A4C3EFEB
:102F800017F0C5EF17F0CBEF17F082EC24F0CBEF82
:102F900017F0CBEF17F01200A09A000E6A6E000E29
:102FA000686E000E706E710E016E0F0E026E000ED6
:102FB000046E000E036E000E066E020E056EDDEC52
:102FC00030F0160E6F6E9F0E6B6E7B0E696E000EEC
:102FD000096E0B0E0964EFEF17F0F1EF17F0F5EF44
:102FE00017F00AEF18F00AEF18F00950040D000E60
:102FF000F324D96E040EF420DA6EDE6ADE6ADE6A2D
:10300000DD6A092A0B0E096408EF18F00AEF18F0C0
:10301000F5EF17F06D8C000E6E6E6D986D9C11EFD4
:1030200018F06896000E0001C36F000E0001B56F26
:10303000000E0001B76F000EB66F68B622EF18F0F1
:1030400024EF18F011EF18F026EF18F0010E000130
:10305000E06F010E0001DF6F000E0001DE6F000E59
:103060000001DD6F000E0001E56F000E096E020E1B
:1030700009643DEF18F03FEF18F043EF18F07AEFD6
:1030800018F07AEF18F00950020DBA0EF324D96E39
:10309000000EF420DA6E000EDE6E000EDD6E0950BA
:1030A000020D100EF324D96E010EF420DA6E000E1C
:1030B000DE6E000EDD6E0950010DD10EF324D96EC7
:1030C000000EF420DA6E000EDF6E0950010DCE0EF8
:1030D000F324D96E000EF420DA6E000EDF6E092A9A
:1030E000020E096476EF18F078EF18F043EF18F04D
:1030F0007AEF18F0080E0001BA6F040E0001BB6FE2
:10310000160E706E040E0401036F300E026F080E6F
:103110000401016F040E0401006F0401008F000E12
:103120000001F76F000E0001C66F000EC76F000EA2
:10313000C86F000EC96F000E0001DC6F000E0001A9
:10314000F26F1200000E0001766F000E756F000E18
:103150000001706F000E6F6F800E0001786F000E1F
:10316000776F60EF19F00001775100017511366E2D
:103170000001785100017611376E27EC33F021EC15
:103180002CF021EC2CF000017751000175113A6E02
:1031900000017851000176113B6E3A5000016F5DDD
:1031A0003B5000017059D8B0D8EF18F0DAEF18F0A2
:1031B000E5EF18F0010E24EC2CF01EEC2CF01BECCB
:1031C0002CF073EC33F0E9EF18F0DEEC33F0E9EFBC
:1031D00018F0000177510001751100016F6F0001B7
:1031E0007851000176110001706F000E0001746FBC
:1031F000000E736F000E0001726F000E716F2BEFE7
:1032000019F01EEC2CF073C06DF074C06EF0F2EC8F
:103210002FF008C073F009C074F000017351000171
:103220006D1909E10001745100016E19D8A41BEF5A
:1032300019F01DEF19F022EF19F00001714B722BFC
:103240002BEF19F0000E0001726F000E716F2BEF63
:1032500019F02BEF19F00001725108E1050E000181
:10326000715DD8B036EF19F038EF19F046EF19F06C
:103270005BEC33F00009D8B440EF19F042EF19F0DD
:1032800001EF19F046EF19F046EF19F04FEC33F06B
:103290000009D8B44EEF19F050EF19F05AEF19F0B9
:1032A0000001775100017513000178510001761378
:1032B0005AEF19F00001D8907833773360EF19F0A6
:1032C0000001775100017811D8A469EF19F06BEF74
:1032D00019F0B3EF18F075C038F076C039F012006D
:1032E000000E0001766F000E756F000E0001706F0A
:1032F000000E6F6F800E0001786F000E776F2EEF5B
:103300001AF00001775100017511366E00017851F5
:1033100000017611376E27EC33F021EC2CF021EC14
:103320002CF000017751000175113A6E00017851BF
:10333000000176113B6E3A5000016F5D3B50000179
:103340007059D8B0A6EF19F0A8EF19F0B3EF19F043
:10335000010E24EC2CF01EEC2CF01BEC2CF073EC8A
:1033600033F0B7EF19F0DEEC33F0B7EF19F00001EE
:1033700077510001751100016F6F00017851000154
:1033800076110001706F000E0001746F000E736FF4
:10339000000E0001726F000E716FF9EF19F01EEC54
:1033A0002CF073C06DF074C06EF0F2EC2FF008C01A
:1033B00073F009C074F00001735100016D1909E147
:1033C0000001745100016E19D8A4E9EF19F0EBEF78
:1033D00019F0F0EF19F00001714B722BF9EF19F0B1
:1033E000000E0001726F000E716FF9EF19F0F9EF26
:1033F00019F00001725108E1050E0001715DD8B0AD
:1034000004EF1AF006EF1AF014EF1AF05BEC33F049
:103410000009D8B40EEF1AF010EF1AF0CFEF19F040
:1034200014EF1AF014EF1AF067EC33F00009D8B477
:103430001CEF1AF01EEF1AF028EF1AF00001775176
:1034400000017513000178510001761328EF1AF07E
:103450000001D890783377332EEF1AF000017751BE
:1034600000017811D8A437EF1AF039EF1AF081EF84
:1034700019F075C038F076C039F012006D9800016F
:10348000C3BF45EF1AF047EF1AF097EF1AF00001AB
:10349000B5AF4DEF1AF04FEF1AF067EF1AF0020ECA
:1034A0000001E76F0001DD51D8A459EF1AF05BEF7E
:1034B0001AF05FEF1AF0CEEC27F05FEF1AF0000E73
:1034C0000001DF6F000E0001E06FFEEF1AF0000157
:1034D00020EE01F0D651D926D751DA22080EDF6E40
:1034E000000120EE02F0D651D926D751DA22300E53
:1034F000DE6E040EDD6ED6C0D9FFD7C0DAFF0C0E2B
:10350000DF6ED6C0D9FFD7C0DAFF000EDB8EBAC09F
:10351000D9FFBBC0DAFF040EDF6EBAC0D9FFBBC053
:10352000DAFF000EDB8EFEEF1AF0FEEF1AF0040158
:1035300030AF9DEF1AF09FEF1AF0C4EF1AF0010EB2
:103540000001E76F0001DE51D8A4A9EF1AF0ABEF3C
:103550001AF0AFEF1AF0CEEC27F0AFEF1AF0000E32
:103560000001DF6F000E0001E06F0001E151D8A4FF
:10357000BCEF1AF0BEEF1AF0FEEF1AF082EC24F066
:10358000FEEF1AF0FEEF1AF0020E0001E76F0001E5
:1035900020EE01F0D651D926D751DA22080EDF6E7F
:1035A000000120EE02F0D651D926D751DA22300E92
:1035B000DE6E040EDD6ED6C0D9FFD7C0DAFF040E72
:1035C000DF6ED6C0D9FFD7C0DAFF000EDB8E000E4B
:1035D0000001DF6F000E0001E06F0001E151D8A48F
:1035E000F4EF1AF0F6EF1AF0FEEF1AF082EC24F086
:1035F000FEEF1AF0FEEF1AF0FEEF1AF01200030EC3
:10360000E6EC32F006C009F007C00AF09BEC32F09D
:1036100009C066F00AC067F00BC068F0050EE6EC62
:1036200032F006C009F007C00AF09BEC32F009C086
:1036300060F00AC061F00BC062F04A0E276ECC0E3B
:10364000286E3F0E296E60C00CF061C00DF062C0A4
:103650000EF066C001F067C002F068C003F02FEC06
:1036600032F001C009F002C00AF003C00BF0B4EC64
:1036700012F009C018F00AC019F00BC01AF0000EC1
:103680000C6E200E0D6EC00E0E6E33C009F034C0ED
:103690000AF035C00BF0B4EC12F009C015F00AC006
:1036A00016F00BC017F024EC1FF015C024F016C064
:1036B00025F017C026F0F3EC23F024C063F025C0FA
:1036C00064F026C065F066C00CF067C00DF068C0FD
:1036D0000EF063C009F064C00AF065C00BF0B4ECF2
:1036E00012F009C015F00AC016F00BC017F06DEC0F
:1036F0001CF015C069F016C06AF017C06BF018C056
:103700006CF000016CBF89EF1BF087EF1BF094EFAA
:103710001BF0000E0001696F000E6A6F000E6B6FE8
:10372000000E6C6FB1EF1BF000016CBFA2EF1BF03D
:1037300000016C5109E100016B05D8A0A2EF1BF05C
:10374000A4EF1BF0B1EF1BF0FF0E0001696FFF0E3D
:103750006A6F000E6B6F000E6C6FB1EF1BF0B1EF74
:103760001BF069C033F06AC034F0B7EF1BF01200F1
:10377000000E0001826FCAC07DF0CBC07EF0CCC0CD
:103780007FF0CDC080F017EC33F0F4EC33F073EC45
:1037900033F0D4EC33F00009D8B4D1EF1BF0D3EF01
:1037A0001BF0E4EF1BF0D4EC33F000017B6F000161
:1037B0007B5101011E6F1F6B060E0001E96F000EA9
:1037C0006CEF1CF06CEF1CF0B9EC2CF0D9EC33F082
:1037D000D9EC33F0000E376E000E366E27EC33F066
:1037E000DEEC33F0DEEC33F0D4EC33F0030AD8B483
:1037F000FCEF1BF0FEEF1BF014EF1CF0D4EC33F0E9
:1038000000017B6F7C6B0C0E00017B1101011E6FB0
:1038100000017C5101011F6F060E0001E96F000ECF
:103820006CEF1CF06CEF1CF0A2EC18F038C079F0D3
:1038300039C07AF0030E35EC33F070EC19F038C073
:1038400079F039C07AF0050E35EC33F0000E000146
:10385000816F81B42EEF1CF030EF1CF03FEF1CF0B5
:103860005BEC33F00009D8A438EF1CF03AEF1CF001
:103870003FEF1CF0010E0001816F3FEF1CF081C093
:1038800082F0000182510001D8B449EF1CF04BEFE7
:103890001CF057EF1CF07DC038F07EC039F07FC0BF
:1038A0003AF080C03BF0D0EC2FF057EF1CF020EE48
:1038B00054F0DFAE5EEF1CF060EF1CF064EF1CF024
:1038C000B9EC2CF068EF1CF017EC33F068EF1CF04B
:1038D000000182516CEF1CF0120017C019F01A6A37
:1038E0001B6A1634193601E31A801950236E2350CF
:1038F000D8A47DEF1CF07FEF1CF08BEF1CF0000EC6
:10390000156E000E166E000E176E000E186E21EF6B
:103910001DF021EF1DF0170E196E15C01AF016C01C
:103920001BF017C01CF019281D6E9BEF1CF0D890DF
:103930001C321B321A321D2E97EF1CF01A501E6ECD
:10394000168EFF0E1516FF0E1616000E17161550C2
:103950001F6E1650206E1750216E226A8E0E235E47
:1039600023BEB7EF1CF0B5EF1CF0DBEF1CF02350CB
:10397000800A8F0FD8B0BFEF1CF0C1EF1CF0CFEF63
:103980001CF0000E156E000E166E000E176E000E67
:10399000186E21EF1DF021EF1DF0CFEF1CF0D89035
:1039A0002232213220321F32233ECFEF1CF005EFAE
:1039B0001DF005EF1DF0170E2364E1EF1CF0E3EF9F
:1039C0001CF0F9EF1CF0000E156E000E166E000EC6
:1039D000176E000E186E21EF1DF021EF1DF0F9EFAC
:1039E0001CF0D8901F362036213622362306F9EFF8
:1039F0001CF02350D8A4FFEF1CF001EF1DF0F1EFF5
:103A00001CF005EF1DF005EF1DF01E50D8B40BEFB4
:103A10001DF00DEF1DF017EF1DF0221E211E201EC0
:103A20001F6C000E20222122222217EF1DF01FC042
:103A300015F020C016F021C017F022C018F021EFB9
:103A40001DF01200BAC0D9FFBBC0DAFF0001000EA2
:103A5000DFBC010E126E040E0001BA1B080E00013D
:103A6000F219D8A436EF1DF038EF1DF050EF1DF01D
:103A7000040132517F0B6E6E6E50D8B442EF1DF0D0
:103A800044EF1DF049EF1DF0100E0001F26F50EFF2
:103A90001DF0040E0001F26F50EF1DF050EF1DF00D
:103AA0000001E705D8A457EF1DF059EF1DF0A6EF70
:103AB0001DF0000120EE02F0BA51D926BB51DA22E6
:103AC000380EDE6E040EDD6E7CEC1EF0020E000180
:103AD000E819D8A46EEF1DF070EF1DF07EEF1DF019
:103AE000BAC0D9FFBBC0DAFF040EDF6EBAC0D9FF7F
:103AF000BBC0DAFF000EDB8ED3EF1DF01250D8A44E
:103B000084EF1DF086EF1DF094EF1DF0BAC0D9FFD1
:103B1000BBC0DAFF480EDF6EBAC0D9FFBBC0DAFF08
:103B2000000EDB8ED3EF1DF0BAC0D9FFBBC0DAFFA9
:103B3000080EDF6EBAC0D9FFBBC0DAFF000EDB8E05
:103B4000D3EF1DF0D3EF1DF0D3EF1DF00001B5AFA3
:103B5000ACEF1DF0AEEF1DF0CEEF1DF00001B8513F
:103B60000001B911D8B4B7EF1DF0B9EF1DF0CAEFDD
:103B70001DF020EEB8F002D8C8EF1DF00500FA6E77
:103B8000DE50FD6EDE50FE6EF850FF6EFA501200F1
:103B9000CAEF1DF00001B59FCEEF1DF0000E000131
:103BA000E76FD3EF1DF0120004013039E832030B48
:103BB0000009D8B4DEEF1DF0E0EF1DF04BEF1EF072
:103BC0007BEF1EF07BEF1EF04BEF1EF00001C38F6A
:103BD000080E0001F26F7BEF1EF014EC16F07BEF85
:103BE0001EF0A1EC21F07BEF1EF0F70E0001C06F7C
:103BF000000E0001C16F0001C381010E0001C46FFE
:103C00000001C38F7BEF1EF03AEC22F07BEF1EF039
:103C10000AEF1EF0A8EC0DF07BEF1EF0040134510A
:103C2000010DF40EF3240001C06F000EF42000011A
:103C3000C16F0001C381010E0001C46F0001C38F79
:103C40007BEF1EF00001C38F04013451010DF40E0F
:103C5000F324D96E000EF420DA6E32C4DFFF7BEF5E
:103C60001EF0000E00018C6F020E8B6F000E000123
:103C70008D6F000E00018E6F000E0001906F000E20
:103C80008F6F31EC28F07BEF1EF07BEF1EF07BEFA7
:103C90001EF07BEF1EF004013151000AD8B404EF8E
:103CA0001EF0010AD8B40AEF1EF0020AD8B40AEFD7
:103CB0001EF0060AD8B4E6EF1DF0030AD8B4EDEF03
:103CC0001DF0010AD8B431EF1EF00F0AD8B4F5EF99
:103CD0001DF0010AD8B4F1EF1DF0030AD8B40EEFBD
:103CE0001EF0010AD8B422EF1EF0070AD8B47BEF09
:103CF0001EF07BEF1EF01200080E016E0001C55190
:103D000008E1080E0001C45DD8B089EF1EF08BEF0A
:103D10001EF0ADEF1EF0C4C001F00001E851D8A4C0
:103D200094EF1EF096EF1EF09BEF1EF0010E0001C7
:103D3000E86FADEF1EF00001E805D8A4A2EF1EF079
:103D4000A4EF1EF0ADEF1EF0020E0001E86FADEF24
:103D50001EF0ADEF1EF0ADEF1EF001500001C45F8C
:103D6000000EC55B000120EE01F0BA51D926BB510F
:103D7000DA2201C0DFFF380E0001D46F040E00010B
:103D8000D56F0001C3B1C7EF1EF0C9EF1EF017EFEA
:103D90001FF0EBEF1EF0EBEF1EF0C0C0F6FFC1C04E
:103DA000F7FFF86AD4C0D9FFD5C0DAFF070EF76471
:103DB00003D00800F55005D0F6CFE9FFF7CFEAFFB2
:103DC000EF50DF6E0001C04BC12B0001D44BD52B4F
:103DD0000106EBEF1EF00150D8A4F1EF1EF0F3EF57
:103DE0001EF0CDEF1EF023EF1FF023EF1FF017EFB3
:103DF0001FF0C0C0F6FFC1C0F7FFF86AD4C0D9FFFA
:103E0000D5C0DAFF070EF76403D00800F55005D0DF
:103E1000F6CFE9FFF7CFEAFFEF50DF6E0001C04BAE
:103E2000C12B0001D44BD52B010617EF1FF0015019
:103E3000D8A41DEF1FF01FEF1FF0F9EF1EF023EFC6
:103E40001FF023EF1FF0120017C01BF01C6A1D6A41
:103E500016341B3601E31C801B501E6E1E50D8A466
:103E600034EF1FF036EF1FF040EF1FF0000E156E1D
:103E7000000E166E000E176EC7EF1FF0C7EF1FF093
:103E80001AC01BF01C6A1D6A19341B3601E31C8022
:103E90001B50236E2350D8A450EF1FF052EF1FF099
:103EA0005CEF1FF0000E156E000E166E000E176E02
:103EB000C7EF1FF0C7EF1FF023507B0F1E2617C060
:103EC00023F01A50231A800E2316168E198EFF0E19
:103ED0001816FF0E1916000E1A16000E1F6E000E91
:103EE000206E000E216E070E226E77EF1FF015A0D8
:103EF0007CEF1FF07EEF1FF086EF1FF018501F269B
:103F0000195020221A50212286EF1FF0D890173224
:103F100016321532D890183619361A36222E77EF07
:103F20001FF093EF1FF0090E226E97EF1FF015A000
:103F30009CEF1FF09EEF1FF0A6EF1FF018501F26FA
:103F4000195020221A502122A6EF1FF0D8901732C4
:103F500016321532D890213220321F32222E97EF9E
:103F60001FF0B3EF1FF01FC001F020C002F021C00E
:103F700003F01EC004F023C005F005EC21F001C0E1
:103F800015F002C016F003C017F0C7EF1FF01200C3
:103F90002D0E0001E26FF6C099F0FD0E0001991799
:103FA000D8A4D5EF1FF0D7EF1FF057EF20F0F6C0E1
:103FB00099F00001D89099333F0E00019917000144
:103FC0009951040D000EF3240001D86F040EF42063
:103FD0000001D96FD8C0D6F0D9C0D7F0040E0001C7
:103FE000D61BD8C0D9FFD9C0DAFF0001DF30E832D4
:103FF0000F0B0D0AD8A4FFEF1FF001EF20F051EFD7
:1040000020F0000E00019B6F070E00019B650BEF77
:1040100020F00DEF20F011EF20F042EF20F042EF02
:1040200020F0000120EE02F0D851D926D951DA2231
:10403000DECF99F0DDCF9AF099C0D9FF9AC0DAFFB0
:1040400000019B51010D300EF324E16E040EF420AB
:10405000E26EDFCFE7FF000120EE02F0D851D92653
:10406000D951DA22DE2A000EDD2200019B2B070E39
:1040700000019B653EEF20F040EF20F011EF20F0B3
:1040800042EF20F0000120EE02F0D851D926D9519C
:10409000DA22300EDE6E040EDD6E46EC2AF068EF9A
:1040A00020F0B4EC2BF068EF20F068EF20F0000176
:1040B000F651FD0B040AD8A460EF20F062EF20F067
:1040C00068EF20F022EC1DF068EF20F068EF20F0A0
:1040D0001200A09A360E46EC32F042C152F143C1B2
:1040E00053F10101525101015311D8A47AEF20F08C
:1040F0007CEF20F080EF20F004EF21F004EF21F0BE
:104100000101522907E101015329D8A48AEF20F0C7
:104110008CEF20F098EF20F0250E0101536FC00EB8
:10412000526F52C149F153C14AF1360ED4EC32F00C
:104130002FEC2DF044C14EF145C14FF10101225148
:1041400001012311D8B4A7EF20F0A9EF20F0C6EFAA
:1041500020F0C00E0101525D080E01015359D8A094
:10416000B4EF20F0B6EF20F0BDEF20F00101C00E5B
:10417000525F080E535BC6EF20F0000E0101536F33
:10418000000E526FC6EF20F0C6EF20F001014E5135
:104190000101525D01014F5101015359D8B0D3EFD4
:1041A00020F0D5EF20F0F2EF20F052C14CF153C1D6
:1041B0004DF101014C1F4D1F4C4B4D2B01014E5138
:1041C00001014C2701014F5101014D23C00E010196
:1041D0004C250101506F240E01014D210101516F49
:1041E000F9EF20F0000E0101516F000E506FF9EF52
:1041F00020F050C1AEF051C1AFF0AFEC32F050C181
:1042000022F151C123F1A08A12000450D8B40BEF5F
:1042100021F00DEF21F019EF21F0015002100310F1
:10422000D8A415EF21F017EF21F02CEF21F019EFB2
:1042300021F0000E016E000E026E000E036EA0EF64
:1042400021F0A0EF21F02CEF21F0042AD8900332C6
:10425000023201322CEF21F0000E0114066E000E26
:104260000214076EFE0E0314086E065007100810A5
:10427000D8A43DEF21F03FEF21F025EF21F050EFE2
:1042800021F050EF21F0042A010E0126000E022237
:10429000000E0322D89003320232013250EF21F097
:1042A000000E0114066E000E0214076EFF0E0314BA
:1042B000086E065007100810D8A461EF21F063EFD4
:1042C00021F043EF21F06EEF21F06EEF21F00406B4
:1042D000D8900136023603366EEF21F002BE73EF3E
:1042E00021F075EF21F07FEF21F0020E04607BEFEB
:1042F00021F07DEF21F067EF21F07FEF21F004B096
:1043000084EF21F086EF21F089EF21F0029E89EF02
:1043100021F0D8900432045003120550D8B493EF22
:1043200021F095EF21F098EF21F0038E98EF21F026
:1043300001C001F002C002F003C003F0A0EF21F0C1
:1043400012000001C38F710E016E0F0E026E000E7F
:10435000046E000E036E000E066E020E056EDDEC9E
:1043600030F0000E016E040E026E000E046E000EA0
:10437000036E000E066E300E056EDDEC30F06D8CB7
:10438000000E0001936F020E00019365CAEF21F049
:10439000CCEF21F0D0EF21F0F3EF21F0F3EF21F09B
:1043A00000019351010DD10EF324D96E000EF420BB
:1043B000DA6E000EDF6E00019351010DCE0EF32474
:1043C000D96E000EF420DA6E000EDF6E0001932B22
:1043D000020E00019365EFEF21F0F1EF21F0D0EF35
:1043E00021F0F3EF21F0F40E016E000E026E000ECC
:1043F000046E000E036E000E066E020E056EDDECFE
:1044000030F06D9C080E0001BA6F040E0001BB6F06
:10441000000E0001D86F040E0001D96FD8C0D6F08D
:10442000D9C0D7F032C4F7F00001F751D8A41BEF80
:1044300022F01DEF22F022EF22F0100E0001F26FA9
:1044400039EF22F0000E00018C6F010E8B6FF70E1A
:1044500000018D6F000E00018E6F000E0001906F45
:10446000010E8F6F31EC28F0200E0001F26F39EF52
:1044700022F01200000E0401386F000E0401396FA3
:10448000A8EF22F00001C38F0401388148EF22F029
:104490000001E605D8A44FEF22F051EF22F0B9EF6A
:1044A00022F004013883B9EF22F0B9EF22F00001C5
:1044B000C38FB9EF22F00001C38F040134BF63EF53
:1044C00022F065EF22F077EF22F0040134510F0B58
:1044D000016E0150020D100EF324D96E010EF4206E
:1044E000DA6EDECF02F0DDCF03F089EF22F00401B7
:1044F00034510F0B016E0150020DBA0EF324D96E28
:10450000000EF420DA6EDECF02F0DDCF03F089EF8B
:1045100022F002C0D9FF03C0DAFFDFAE92EF22F033
:1045200094EF22F0B9EF22F002C0D9FF03C0DAFF06
:10453000DFA49DEF22F09FEF22F0B9EF22F0010EF1
:104540000401386FB9EF22F0B9EF22F0B9EF22F091
:10455000040130511F0B000AD8B442EF22F0010AC7
:10456000D8B457EF22F0030AD8B45BEF22F0B9EFCA
:1045700022F00001C3AFBFEF22F0C1EF22F0CEEF77
:1045800022F0380E0001C06F040E0001C16F00015F
:10459000C381020E0001C46FCEEF22F01200000EA4
:1045A0000101426F0001B1BFDAEF22F0D8EF22F033
:1045B000E4EF22F00001B06DB11FD8B0B12B010EB5
:1045C0000101426FE4EF22F00001AFBFECEF22F0F7
:1045D000EAEF22F0F6EF22F00001AE6DAF1FD8B087
:1045E000AF2B010E0101421BF6EF22F0000E01017C
:1045F000446F000E436F0001B0510001B111D8B4F7
:1046000004EF23F006EF23F04BEF23F0010E01013E
:10461000416F13EF23F00001D890B037B13701019B
:10462000412B13EF23F000010001B1AF1AEF23F08B
:104630001CEF23F00BEF23F020EF23F020EF23F00B
:104640000101D890433744370001B0510001AE5DFD
:104650000001B1510001AF59D8A031EF23F033EF81
:1046600023F03FEF23F00001B0510001AE5F0001E5
:10467000B1510001AF5B010143813FEF23F0000125
:10468000D890B133B0330101412F20EF23F04BEF2D
:1046900023F04BEF23F0010142510101D8B453EF55
:1046A00023F055EF23F05CEF23F00101436D441F2D
:1046B000D8B0442B5CEF23F043C1AEF044C1AFF05F
:1046C00062EF23F012000101476F01014351010124
:1046D000D8B46DEF23F06FEF23F07EEF23F00101EC
:1046E0004751020DBA0EF324D96E000EF420DA6E93
:1046F000DECF48F1DDCF49F18DEF23F001014751C5
:10470000020D100EF324D96E010EF420DA6EDECF06
:1047100048F1DDCF49F18DEF23F00101485101014E
:104720004911D8A496EF23F098EF23F0A2EF23F0DD
:10473000000E0101436F000E0101446FF2EF23F000
:10474000F2EF23F0010120EE02F04851D926495141
:10475000DA2244C1DEFF45C1DDFF010120EE01F098
:104760004851D9264951DA2246C1DFFF48C1D9FF55
:1047700049C1DAFF400EDF1648C1D9FF49C1DAFF4F
:10478000000EDB8648C1D9FF49C1DAFF000EDB8E7F
:10479000010143510101D8B4D0EF23F0D2EF23F04F
:1047A000DFEF23F001014751020DBA0EF324D96E59
:1047B000000EF420DA6E040EDF1AECEF23F0010194
:1047C0004751020D100EF324D96E010EF420DA6E5B
:1047D000040EDF1AECEF23F048C143F149C144F164
:1047E000F2EF23F0120026C02AF02B6A2C6A25343F
:1047F0002A3601E32B802A502E6E2E50D8A403EFC8
:1048000024F005EF24F00FEF24F0000E246E000ECC
:10481000256E000E266E81EF24F081EF24F029C072
:104820002AF02B6A2C6A28342A3601E32B802A507E
:10483000326E3250D8A41FEF24F021EF24F02BEF7A
:1048400024F0000E246E000E256E000E266E81EF01
:1048500024F081EF24F0000E2F6E000E306E000E5B
:10486000316E3250890F2E5E26C032F02950321A36
:10487000800E3216258EFF0E2416FF0E2516000E12
:104880002616288EFF0E2716FF0E2816000E291654
:10489000180E2D6E4CEF24F0D8902F36303631366E
:1048A0002750245C2850255829502658D8A05BEF63
:1048B00024F05DEF24F064EF24F02750245E2850AC
:1048C000255A2950265A2F80D89024362536263648
:1048D0002D2E4CEF24F06DEF24F02FC001F030C0EE
:1048E00002F031C003F02EC004F032C005F005EC38
:1048F00021F001C024F002C025F003C026F081EFB2
:1049000024F012000001E051D8A489EF24F08BEFCD
:1049100024F00CEF25F0010E0001E06F0001DF51E3
:10492000D8A495EF24F097EF24F00CEF25F0010EBA
:104930000001DF6F020E0001E719D8A4A2EF24F0F6
:10494000A4EF24F0BBEF24F0000120EE01F0BA51F7
:10495000D926BB51DA22000EDF6EBAC0D9FFBBC028
:10496000DAFF480EDF6EBAC0D9FFBBC0DAFF000E17
:10497000DB8E0CEF25F00001E705D8A4C2EF24F090
:10498000C4EF24F00CEF25F0000E0001E36F0001EE
:1049900020EE01F0D851D926D951DA22080EDF6E67
:1049A000000120EE02F0D851D926D951DA22300E7A
:1049B000DE6E040EDD6ED8C0D9FFD9C0DAFF040E5A
:1049C000DF6ED8C0D9FFD9C0DAFF000EDB8E010E32
:1049D0000001E36F000120EE01F0D651D926D75136
:1049E000DA22080EDF6E000120EE02F0D651D92641
:1049F000D751DA22300EDE6E040EDD6ED6C0D9FF3E
:104A0000D7C0DAFF800EDF6E0CEF25F00CEF25F03B
:104A10000CEF25F00CEF25F01200800E0A6E000E50
:104A2000096E010E026E100E6FEC2EF0000E026E7B
:104A3000100E6FEC2EF0000E0B6E070E0B6423EFC2
:104A400025F025EF25F029EF25F03BEF25F03BEF92
:104A500025F0000E026E400E6FEC2EF08AEC33F063
:104A60000B2A070E0B6437EF25F039EF25F029EFFD
:104A700025F03BEF25F0000E0B6E090E0B6443EFA3
:104A800025F045EF25F049EF25F06EEF25F06EEFAC
:104A900025F009500514076E0A500614086E0750D9
:104AA0000810D8A456EF25F059EF25F0010E5AEF63
:104AB00025F0000E026E400E6FEC2EF08AEC33F003
:104AC000D8900A3209320B2A090E0B646AEF25F0DE
:104AD0006CEF25F049EF25F06EEF25F0000E0B6E20
:104AE000050E0B6476EF25F078EF25F07CEF25F0CE
:104AF0008EEF25F08EEF25F0000E026E400E6FEC6B
:104B00002EF08AEC33F00B2A050E0B648AEF25F0A9
:104B10008CEF25F07CEF25F08EEF25F0010E026E74
:104B2000100E6FEC2EF01200270E01014B6F100ECD
:104B30004A6F000E01014D6F000E4C6F01014DBF19
:104B4000ADEF25F001014D510AE1050E01014C5D6B
:104B5000D8A0ADEF25F0AFEF25F0B3EF25F014EFBF
:104B600026F014EF26F045C1AEF046C1AFF04AC1C1
:104B7000B0F04BC1B1F0F1EC28F000010001AE51F2
:104B80000101496F010149510101476F486B300E26
:104B900001014727000E4823D89001014C35D96EFA
:104BA00001014D35DA6E630ED926010EDA2247C1B6
:104BB000DEFF48C1DDFF49C1AEF00001AF6B4AC165
:104BC000B0F04BC1B1F077EC31F000010001AE5113
:104BD0000101455F00010001AF510101465B010188
:104BE0004C4B4D2B4AC1AEF04BC1AFF0000E000153
:104BF000B16F0A0EB06FCFEC22F0AEC04AF1AFC079
:104C00004BF101014DBF10EF26F001014D510AE1BA
:104C1000050E01014C5DD8A010EF26F012EF26F032
:104C2000B3EF25F014EF26F01200000E066E04BE5E
:104C30001EEF26F01CEF26F026EF26F0036C041E74
:104C4000D8B0042A010E066E26EF26F002BE2DEF24
:104C500026F02BEF26F035EF26F0016C021ED8B0BF
:104C6000022A010E061A35EF26F0000E086E000E1D
:104C7000076E03500410D8B440EF26F042EF26F040
:104C800076EF26F0010E056E4CEF26F0D890033635
:104C90000436052A4CEF26F004AE51EF26F053EF10
:104CA00026F046EF26F057EF26F057EF26F0D89083
:104CB000073608360350015C04500258D8A063EF51
:104CC00026F065EF26F06CEF26F00350015E0450ED
:104CD000025A07806CEF26F0D89004320332052E7A
:104CE00057EF26F076EF26F076EF26F00650D8B490
:104CF0007CEF26F07EEF26F084EF26F0076C081E8E
:104D0000D8B0082A84EF26F007C001F008C002F0EE
:104D10008AEF26F01200110EF66E000EF76E0800F4
:104D2000F550EF0AD8A497EF26F099EF26F0A1EFFF
:104D300026F06D96370E24EC2CF008EF00F0A1EF72
:104D400026F0960EF66E060EF76E0900140EF51894
:104D500008E109000E0EF518D8A4B1EF26F0B3EF64
:104D600026F0ECEF26F0500EF66E070EF76E0900F7
:104D7000D80EF51808E10900040EF518D8A4C3EF01
:104D800026F0C5EF26F0ECEF26F0520EF66E070E79
:104D9000F76E09000B0EF5180900F510D8A4D3EF33
:104DA00026F0D5EF26F0ECEF26F0540EF66E070E47
:104DB000F76E0900F5500900F510D8A4E2EF26F0CF
:104DC000E4EF26F0ECEF26F06D96370E24EC2CF095
:104DD0004BEF03F0ECEF26F0100EF66E000EF76EC0
:104DE0000900F5CF01F00A00F5CF02F0F8EF26F048
:104DF0001200530ED56EF29EF29CD08E000E010171
:104E0000266F3BC15CF03CC15DF03DC15EF03EC130
:104E10005FF0200E0201006F000EE8CF4EF0000E92
:104E2000E8CF4FF0000EE8CF56F0000EE8CF57F075
:104E3000000E0001E96F000E01011F6F000E1E6FD2
:104E4000020E0001FD19D8A428EF27F02AEF27F061
:104E50002FEF27F0000EC7EC33F02FEF27F0F9C04B
:104E600005F0FAC006F00DEC25F0640EE8CF5AF01C
:104E7000000EE8CF5BF054C00CF0800E0C16100E44
:104E80000C120CC054F00001F831E832030BE806B4
:104E9000D8B44DEF27F051EF27F00C6A0C2A52EFEF
:104EA00027F00C6A20EE54F00C3A0C460C46DF500A
:104EB0000C18BF0B0C18DF6EF2946B0ED66EF184DB
:104EC000F28EF28CF28AD30ED56E1200270E0F6E80
:104ED000100E0E6E000E116E000E106E11BE7AEFE7
:104EE00027F0115009E1050E105CD8A07AEF27F0E9
:104EF0007CEF27F080EF27F0CDEF27F0CDEF27F004
:104F000009C001F00AC002F00EC003F00FC004F0A7
:104F100070EC2BF001500D6E0D500B6E0C6A300EC4
:104F20000B26000E0C22D8901034D96E1134DA6E94
:104F3000630ED926010EDA220BC0DEFF0CC0DDFFA6
:104F40000DC001F0026A0EC003F00FC004F05CEC6B
:104F500032F00150095E02500A5A104A112A0EC05E
:104F600001F00FC002F0000E046E0A0E036E15EC85
:104F700026F001C00EF002C00FF011BEC9EF27F0FD
:104F8000115009E1050E105CD8A0C9EF27F0CBEF56
:104F900027F080EF27F0CDEF27F01200000E000180
:104FA000DE6F000E0001DD6F020E0001E719D8A4CC
:104FB000DCEF27F0DEEF27F000EF28F0000120EE15
:104FC00001F0D651D926D751DA22080EDF6E000142
:104FD00020EE02F0D651D926D751DA22380EDE6EF5
:104FE000040EDD6ED6C0D9FFD7C0DAFF480EDF6EE3
:104FF000D6C0D9FFD7C0DAFF000EDB8E30EF28F025
:105000000001C4510401365D0001C5510401375946
:10501000D8B00DEF28F00FEF28F015EF28F036C4C8
:10502000C4F037C4C5F015EF28F07CEC1EF0000189
:1050300020EE02F0BA51D926BB51DA22380EDE6ECC
:10504000040EDD6EBAC0D9FFBBC0DAFF480EDF6EBA
:10505000BAC0D9FFBBC0DAFF000EDB8E30EF28F0FC
:10506000120056EF28F092EF28F093EC28F092EF20
:1050700028F093EC28F092EF28F093EC28F092EFD0
:1050800028F01A0E096E010ECEEC2EF092EF28F0E9
:1050900092EF28F00EEC14F092EF28F092EF28F047
:1050A00092EF28F092EF28F092EF28F08BC091F069
:1050B0008CC092F000019251000AD8B466EF28F03B
:1050C0007F0AD8B48AEF28F092EF28F000019151BE
:1050D000010AD8B441EF28F0030AD8B492EF28F0BF
:1050E000010AD8B44AEF28F0060AD8B492EF28F0A3
:1050F000770AD8B492EF28F0010AD8B435EF28F037
:10510000070AD8B43DEF28F0010AD8B439EF28F0E7
:1051100092EF28F000019151FF0AD8B492EF28F0E5
:1051200092EF28F012006DA298EF28F09AEF28F085
:10513000E5EF28F0010E17EC32F0F0EF28F0F0EF79
:1051400028F0E5EF28F0010EFFEC31F0EDEF28F04C
:105150000001DA050001DB11D8A4B1EF28F0B3EFAC
:1051600028F0B8EF28F0010EFFEC31F0EDEF28F059
:10517000320E0001DA190001DB11D8A4C2EF28F0C9
:10518000C4EF28F0C9EF28F0010E17EC32F0EDEF74
:1051900028F0B70E0001DA5D030E0001DB59D8A03C
:1051A000D4EF28F0D6EF28F0EDEF28F0000E000144
:1051B000DB6F000EDA6FEDEF28F0EDEF28F0EDEF8A
:1051C00028F0EDEF28F0EDEF28F00001F251200A71
:1051D000D8B4A3EF28F0A8EF28F00001DA4BDB2BBE
:1051E0001200000E0101436F000E426F0001B0512A
:1051F0000001B111D8B4FFEF28F001EF29F044EF1E
:1052000029F0010E0101416F0EEF29F00001D89045
:10521000B037B1370101412B0EEF29F00001000139
:10522000B1AF15EF29F017EF29F006EF29F01BEFCA
:1052300029F01BEF29F00101D890423743370001D4
:10524000B0510001AE5D0001B1510001AF59D8A0CD
:105250002CEF29F02EEF29F03AEF29F00001B051A0
:105260000001AE5F0001B1510001AF5B010142815D
:105270003AEF29F00001D890B133B0330101412F4A
:105280001BEF29F044EF29F042C1AEF043C1AFF06B
:105290001200066E000E076E040E086E0150026EBC
:1052A000036AD890023603360650046E056AD89019
:1052B00004360536D89004360536025004260350CD
:1052C0000522D89004360536D890043605360450A9
:1052D00007260550082207C0D9FF08C0DAFFDF9E65
:1052E0000150D8A476EF29F078EF29F086EF29F065
:1052F0000650020D100EF324D96E010EF420DA6E62
:1053000007C0DEFF08C0DDFF94EF29F00650020D54
:10531000BA0EF324D96E000EF420DA6E07C0DEFF59
:1053200008C0DDFF94EF29F007C0D9FF08C0DAFFFD
:10533000DF9C20EE04F00750D9260850DA22DF8CDB
:105340001200FF0E376E366827EC33F0B9EC2CF004
:10535000000E0001766F000E776F000E786F000E62
:10536000796FCFEF29F0000E376E000E366E27EC06
:1053700033F0DEEC33F0DEEC33F0FF0E376E3668E0
:1053800027EC33F073EC33F073EC33F0010E0001D3
:105390007627000E772378237923CFEF29F00001B9
:1053A00070510001726F000171510001736F0001B3
:1053B000746B0001756B000172510001765D000194
:1053C00073510001775900017451000178590001AF
:1053D000755100017959D8A0F0EF29F0F2EF29F0CA
:1053E000B3EF29F0F4EF29F012000101446F000E31
:1053F0000101476F41C145F142C146F1010E010172
:10540000486F28EF2AF045C1D9FF46C1DAFFDF50C7
:105410000001AF6F010144512AEC2BF000010001A3
:10542000AF510101486F0101454B462B0101442B4F
:10543000010148510101D8B420EF2AF022EF2AF0EF
:1054400028EF2AF00101472B28EF2AF028EF2AF055
:10545000010148510101D8B430EF2AF032EF2AF0AF
:1054600041EF2AF00101430701014329D8A43BEF92
:105470002AF03DEF2AF003EF2AF041EF2AF041EF46
:105480002AF00101475145EF2AF01200000E0001F9
:10549000E86F000E0001E16F000E0001DE6F000EEC
:1054A0000001DD6F000E0001E36F000E0001E76FE9
:1054B000BAC0D9FFBBC0DAFF7F0EDF16040E0001B1
:1054C000BA1BBAC0D9FFBBC0DAFF7F0EDF16040ECD
:1054D0000001BA1BD6C0D9FFD7C0DAFF7F0EDF1696
:1054E000000E0001C36F000E0001C56F000EC46FF7
:1054F000000E0001B56F000E0001B76F000EB66F11
:10550000D4EC1DF0000E00018C6F030E8B6F000EAB
:1055100000018D6F000E00018E6F000E0001906F74
:10552000000E8F6F31EC28F03EEC1AF01200B9EC4F
:105530002CF0000E376E000E366E27EC33F0000EA6
:105540000001766F000E776F000E786F000E796F96
:10555000BDEF2AF08B84D9EC33F0D9EC33F08B9487
:10556000F4EC33F0F4EC33F0010E00017627000E7A
:10557000772378237923BDEF2AF0000170510001D1
:10558000726F000171510001736F0001746B0001B3
:10559000756B000172510001765D000173510001CD
:1055A00077590001745100017859000175510001CB
:1055B0007959D8A0DEEF2AF0E0EF2AF0AAEF2AF01E
:1055C000E2EF2AF01200000EE8CF4EF0000EE8CF16
:1055D0004FF0000EE8CF54F0000EE8CF56F0000E6A
:1055E000E8CF57F0C2EC32F0000EA0EC2DF0080E20
:1055F00046EC32F042C145F143C146F194EC25F04E
:105600002DEC15F004EF2BF00AEC2EF069EC20F0F5
:10561000200E0001F2610FEF2BF011EF2BF015EFD0
:105620002BF004EF2BF004EF2BF06DA21AEF2BF010
:105630001CEF2BF020EF2BF004EF2BF004EF2BF0FE
:10564000A09A73EC0BF0A08A04EF2BF004EF2BF080
:1056500055EF04F00001B16F0001B1517FEC33F060
:105660000001AF19D8A437EF2BF039EF2BF042EF40
:105670002BF0000E0001B06F010EAF6F6FEF2BF03B
:105680006FEF2BF0B1C0A9FFAFC0A8FFA69EA69CEC
:10569000A684F29C550EA76EAA0EA76EA68251EFA5
:1056A0002BF0A6B256EF2BF058EF2BF051EF2BF06A
:1056B000F28CA694A1980001B1517FEC33F0000167
:1056C000AF19D8B466EF2BF069EF2BF0010E6AEF3B
:1056D0002BF0000E0001AF6FB06B6FEF2BF01200DC
:1056E000000E066E000E056E03500410D8B47BEF5A
:1056F0002BF07DEF2BF0AFEF2BF0010E076E87EF55
:105700002BF0D89003360436072A87EF2BF004AE2F
:105710008CEF2BF08EEF2BF081EF2BF092EF2BF034
:1057200092EF2BF0D890053606360350015C0450FA
:105730000258D8A09EEF2BF0A0EF2BF0A7EF2BF094
:105740000350015E0450025A0580A7EF2BF0D89059
:1057500004320332072E92EF2BF0AFEF2BF005C08F
:1057600001F006C002F01200020E0001E719D8A4F1
:10577000BCEF2BF0BEEF2BF0C2EF2BF0F4EC16F0E9
:10578000F7EF2BF0000E0001E76F0001E351D8A402
:10579000CCEF2BF0CEEF2BF0F0EF2BF0000120EE52
:1057A00001F0D651D926D751DA22080EDF6E00015A
:1057B00020EE02F0D651D926D751DA22300EDE6E15
:1057C000040EDD6ED6C0D9FFD7C0DAFF0C0EDF6E37
:1057D000D6C0D9FFD7C0DAFF000EDB8EF7EF2BF073
:1057E000000E0001E36FF7EF2BF0F7EF2BF0120044
:1057F00000F000F0E82EFED71200020EF8EF2BF0BA
:10580000020EF9EF2BF0050EFAEF2BF0040EF8EF75
:105810002BF00C0EF8EF2BF0E84E05D000D000D0A6
:1058200000D000D0F9D700D012000A0E0CEF2CF0F7
:10583000140E0CEF2CF0640E0CEF2CF0C80E0CEFD5
:105840002CF0FA0E0CEF2CF0556E554E0BD0FA0ED4
:10585000E3DF00D0FA0EE0DF00D0FA0EDDDFFA0E53
:10586000DBDFF3D7FA0ED8DFFA0ED6DFFA0ED4DF7D
:10587000FA0ED2DF1200086E000E0B6E05C009F0A2
:1058800006C00AF0010E0C6E61EF2CF009C0D9FFC2
:105890000AC0DAFFDF50026E08507AEC2CF002509A
:1058A0000C6E094A0A2A082A0C50D8B45AEF2CF078
:1058B0005CEF2CF061EF2CF00B2A61EF2CF061EF24
:1058C0002CF00C50D8B467EF2CF069EF2CF076EF89
:1058D0002CF007060728D8A470EF2CF072EF2CF0FC
:1058E00046EF2CF076EF2CF076EF2CF00B5079EFA2
:1058F0002CF01200046E045095EC33F00218D8A47A
:1059000084EF2CF086EF2CF08EEF2CF0000E036E5F
:10591000010E026EB8EF2CF0B8EF2CF004C0A9FF16
:1059200002C0A8FFA69EA69CA684F29C550EA76E58
:10593000AA0EA76EA6829DEF2CF0A6B2A2EF2CF0C5
:10594000A4EF2CF09DEF2CF0F28CA694A1980450BB
:1059500095EC33F00218D8B4B0EF2CF0B3EF2CF084
:10596000010EB4EF2CF0000E026E036AB8EF2CF0BB
:105970001200FBC005F0FCC006F00DEC25F08B8C8E
:105980000A0E24EC2CF0010EB9EC33F0CAC038F04A
:10599000CBC039F0CCC03AF0CDC03BF0D0EC2FF00A
:1059A0008B840001FE5124EC2CF0000EB9EC33F096
:1059B000640E24EC2CF0F9C005F0FAC006F00DECF2
:1059C00025F081A4E6EF2CF0E8EF2CF0EDEF2CF0C1
:1059D00020EE54F0DF9EF2EF2CF020EE54F0DF8E3C
:1059E000F2EF2CF0F4EF2CF012008E0E116E01EF9E
:1059F0002DF0D8900C320B320A320932112A01EF05
:105A00002DF0000E09140D6E000E0A140E6E000E1D
:105A10000B140F6EFF0E0C14106E0D500E100F10A5
:105A20001010D8A416EF2DF018EF2DF0F9EF2CF090
:105A30001AEF2DF009C001F00AC002F00BC003F00C
:105A400011C004F0000E056E05EC21F001C009F054
:105A500002C00AF003C00BF02EEF2DF01200F2AAE4
:105A600034EF2DF036EF2DF042EF2DF0E00E010176
:105A700024150101466FFF0E010125150101476F35
:105A80005DEF2DF0010E3BEC31F016EC34F0000E22
:105A90000001AF6F000E6AEC2FF0E00E0001000174
:105AA000AF150101466FFF0E00010001B0150101A5
:105AB000476F19EC34F05DEF2DF00101D8904637B7
:105AC000473746C144F147C145F167EF2DF0120059
:105AD0000001B06FF3C0B1F00001AF510001D8B4C4
:105AE00074EF2DF076EF2DF07CEF2DF00001B0512A
:105AF0000001B11381EF2DF00001B051FF0A000148
:105B0000B1170001F3510001B119D8A48AEF2DF0AB
:105B10008CEF2DF090EF2DF09FEF2DF09FEF2DF0FB
:105B2000000E3BEC31F013EC34F0B1C0F3F00001A7
:105B3000F351FDEC30F000EC2CF019EC34F01200D5
:105B40000001AF6FC6EF2DF0000E896EC00E926E91
:105B5000000E8A6EF50E936E400E8B6E3B0E946EA9
:105B6000070E8C6EE00E956E000E8D6EF80E966E22
:105B7000010E2EEC34F0020E1CEC31F0D6EF2DF0BD
:105B8000D6EF2DF0D6EF2DF0D6EF2DF00001AF516E
:105B9000000AD8B4A4EF2DF0010AD8B4D6EF2DF046
:105BA000030AD8B4D6EF2DF0D6EF2DF012009C0EDC
:105BB000F66E670EF76E000EF86E01EE61F010EEF5
:105BC0000CF00900F5CFEEFFE550E150FAE1200EB0
:105BD000F66E680EF76E000EF86E00EEF9F010EE3D
:105BE00006F00900F5CFEEFFE550E150FAE101EED5
:105BF00010F0310EEE6AE806FDE100EEB2F0470E5D
:105C0000EE6AE806FDE13D903D92000EF86E00015F
:105C1000E3EF2AF00001F251D8A411EF2EF013EFB8
:105C20002EF03CEF2EF081A818EF2EF01AEF2EF098
:105C30003CEF2EF0000E6D6E000E696E160E6F6E4C
:105C40009F0E6B6E7B0E696ED08EA29AA08AF28E2A
:105C5000F28C2CEF2EF06D866DA631EF2EF033EF27
:105C60002EF02BEF2EF035EF2EF0010E0001F26F2B
:105C70003CEF2EF03CEF2EF0120070A042EF2EF021
:105C800044EF2EF06DEF2EF0D8C0D9FFD9C0DAFF67
:105C9000800EDE18D8A44FEF2EF051EF2EF06CEFEF
:105CA0002EF0BAC0D9FFBBC0DAFF840EDE18D8A42C
:105CB0005CEF2EF05EEF2EF06CEF2EF0D8C0D9FF27
:105CC000D9C0DAFF0C0EDF6ED8C0D9FFD9C0DAFF19
:105CD000000EDB8E6CEF2EF07090689A1200036E4F
:105CE000F3C004F00250D8B478EF2EF07AEF2EF023
:105CF0007EEF2EF00350041281EF2EF00350FF0AC6
:105D000004160001F3510418D8A489EF2EF08BEF8C
:105D10002EF08FEF2EF09EEF2EF09EEF2EF0000E65
:105D2000CCEC31F02BEC34F004C0F3F00001F35173
:105D300059EC31F000EC2CF028EC34F01200F2AA0F
:105D4000A4EF2EF0A6EF2EF0B0EF2EF0E00E010142
:105D500024150A6EFF0E010125150B6EC4EF2EF0FF
:105D6000010ECCEC31F01FEC34F0000E026E000E90
:105D7000E7EC31F0E00E02140A6EFF0E03140B6E16
:105D800028EC34F0C4EF2EF0D8900A360B360AC057
:105D900008F00BC009F0CDEF2EF012000C6E09A434
:105DA000D4EF2EF0D6EF2EF0DDEF2EF0000E016EC8
:105DB0000C5049EC29F0DDEF2EF009A2E2EF2EF0B5
:105DC000E4EF2EF0EBEF2EF0010E016E0C5049ECDB
:105DD00029F0EBEF2EF00C50010D700EF3240A6E3B
:105DE0000F0EF4200B6E0AC0D9FF0BC0DAFF09C0FA
:105DF000DFFF1200000E0001E56F000E00018C6F46
:105E0000740E8B6F000E00018D6F000E00018E6FFF
:105E1000000E0001906F000E8F6F31EC28F06D9234
:105E2000699416EF2FF0689416EF2FF068B41BEF0B
:105E30002FF01DEF2FF013EF2FF01FEF2FF0000EBC
:105E40000001DC6F120041C1AEF042C1AFF034EF8F
:105E50002FF0AEC0D9FFAFC0DAFF43C1DFFF0001B2
:105E6000AE4BAF2B34EF2FF001014507D8A046070A
:105E70000101452907E101014629D8A442EF2FF08D
:105E800044EF2FF029EF2FF046EF2FF01200000122
:105E9000AE6FC69EAEC0C9FFC6AE51EF2FF053EF36
:105EA0002FF05DEF2FF020EE54F0DF84FF0E69EF4E
:105EB0002FF069EF2FF05DEF2FF0C7A062EF2FF00A
:105EC00064EF2FF05DEF2FF066EF2FF0C95069EF10
:105ED0002FF012000101416F0101415147EC2FF0F9
:105EE0000001B16F0001B1510101426F436B01012B
:105EF0004251436F426B0001AF5147EC2FF000015C
:105F0000B16F0001B1510101421342C1AFF043C171
:105F1000B0F08BEF2FF012000101416FA0EF2FF0D6
:105F2000010141517FEC33F0AFC0D9FFB0C0DAFFBF
:105F3000DF6E0101412B0001AF4BB02BA0EF2FF022
:105F40000001B1070001B129D8A4A9EF2FF0ABEFF0
:105F50002FF090EF2FF0ADEF2FF01200010E0001A7
:105F6000C627000EC723C823C9230001E551D8A4C2
:105F7000BCEF2FF0BEEF2FF0CFEF2FF00001DC2BA6
:105F80000001DC51D8A4C7EF2FF0C9EF2FF0CFEFFD
:105F90002FF00001DC69CFEF2FF0CFEF2FF01200D0
:105FA00038C033F039C034F03AC035F03BC036F079
:105FB000BCEC30F033C06DF034C06EF035C06FF023
:105FC0006DC033F06EC034F06FC035F0FFEC1AF0E6
:105FD00033C036F034C037F027EC33F0010EF1EF68
:105FE0002FF01200000ECCEC31F022EC34F0B40EA5
:105FF00059EC31F006EC2CF028EC34F009EC2CF0E4
:1060000022EC34F0230E026E010EE7EC31F002C0F8
:106010000AF003C00BF028EC34F00AC008F00BC003
:1060200009F013EF30F01200000ECCEC31F022EC4E
:1060300034F0F40E59EC31F006EC2CF028EC34F08E
:1060400009EC2CF022EC34F0000E026EF40EE7ECBA
:1060500031F002C00AF003C00BF028EC34F00AC0A3
:1060600008F00BC009F035EF30F01200000ECCEC58
:1060700031F025EC34F0F40E59EC31F006EC2CF054
:1060800028EC34F009EC2CF025EC34F0000E026E14
:10609000F40EE7EC31F002C00AF003C00BF028EC7C
:1060A00034F00AC008F00BC009F057EF30F01200CE
:1060B000016EC69E01C0C9FFC6AE61EF30F063EF4E
:1060C00030F06DEF30F020EE54F0DF84FF0E79EF0A
:1060D00030F079EF30F06DEF30F0C7A072EF30F0B4
:1060E00074EF30F06DEF30F076EF30F0C95079EFAB
:1060F00030F01200530ED56EF29A000EE8CF5CF02D
:10610000000EE8CF5DF0000EE8CF5EF0000EE8CFA5
:106110005FF0020E0001FD19D8A491EF30F093EF6B
:1061200030F098EF30F0010E9FEC33F098EF30F044
:10613000ECEC33F01200530ED56EF29A000EE8CF5D
:106140005CF0000EE8CF5DF0000EE8CF5EF0000ED0
:10615000E8CF5FF0020E0001FD19D8A4B2EF30F0D5
:10616000B4EF30F0B9EF30F0010EC7EC33F0B9EF17
:1061700030F0F0EC33F0120033C009F034C00AF014
:1061800035C00BF036C00CF0F5EC2CF009C024F053
:106190000AC025F00BC026F0000E276E800E286E78
:1061A000490E296EF3EC23F024C033F025C034F0FF
:1061B00026C035F0DCEF30F0120001C007F002C05D
:1061C00008F0EDEF30F007C0D9FF08C0DAFF03C0D8
:1061D000DFFF074A082AEDEF30F00506D8A00606D3
:1061E000052806E10628D8A4F8EF30F0FAEF30F0E1
:1061F000E3EF30F0FCEF30F012000001AE6FAEC004
:10620000C9FFC6AE06EF31F008EF31F012EF31F002
:10621000C69E20EE54F0DF841BEF31F01BEF31F00F
:1062200012EF31F0C7A017EF31F019EF31F012EF94
:1062300031F01BEF31F012000001AE6F2AEF31F0A8
:1062400093883AEF31F0958A3AEF31F03AEF31F036
:106250003AEF31F00001AE51000AD8B43AEF31F014
:10626000010AD8B420EF31F0030AD8B423EF31F09B
:106270003AEF31F012000001AE6F0001AE510001A3
:10628000D8B445EF31F047EF31F04DEF31F0010E6A
:10629000C66E000EC76E53EF31F0000EC66E400E94
:1062A000C76E53EF31F0C68AC69EC95058EF31F021
:1062B0001200016E01C0C9FFC6AE61EF31F063EF9D
:1062C00031F06DEF31F0C69E20EE54F0DF8476EFB2
:1062D00031F076EF31F06DEF31F0C7A072EF31F0B1
:1062E00074EF31F06DEF31F076EF31F01200000114
:1062F000AE510001B003F3CF41F1F4CF42F1000100
:10630000AE510001B103F350010142270001AF512A
:106310000001B003F3500101422741C1AEF042C178
:10632000AFF093EF31F01200698468986D82010E2E
:106330000001E56F000E0001DC6F000E00018C6FA4
