:04080000EFEF1AF00C
:04080800A0EF07F066
:100818004C80D8CFA5F0E8CFA6F0E0CFA7F0FACF6C
:10082800A8F0FBCFA9F0E9CFAAF0EACFABF0E1CF6F
:10083800ACF0E2CFADF0D9CFAEF0DACFAFF0F3CF76
:10084800B0F0F4CFB1F0F6CFB2F0F7CFB3F0F8CF05
:10085800B4F0F5CFB5F038EC11F0B5C0F5FFB4C081
:10086800F8FFB3C0F7FFB2C0F6FFB1C0F4FFB0C0E5
:10087800F3FFAFC0DAFFAEC0D9FFADC0E2FFACC036
:10088800E1FFABC0EAFFAAC0E9FFA9C0FBFFA8C00F
:10089800FAFFA7C0E0FFA6C0E8FFA5C0D8FF4C90AC
:0608A8001000EFEF1AF052
:1009000000A20942090A095E017038034D006F0018
:10091000620069006C0065002000440065007600FC
:10092000690063006500200050006F0077006500DB
:10093000720020004D006F006E00690074006F00AF
:1009400072002E034D006F006E0073006F006F0089
:100950006E00200053006F006C0075007400690089
:100960006F006E007300200049006E0063002E00CF
:1009700009022000010100C0320904000002FF004A
:100980000000070501024000000705810240000049
:1009900012010001FF000008B92A01001B0001023A
:0709A0000301040309040038
:1009A800116EF2D0020E0B6E0C6A0D6A0E6A000C04
:1009B8000001FD510B6E0C6A0D6A0E6A12000001EF
:1009C800FE510B6E0C6A0D6A0E6A12000001F831B6
:1009D800E832030B0B6E0C6A0D6A0E6A12000001F6
:1009E800F851030B0B6E0C6A0D6A0E6A120080EC4C
:1009F80022F00B6E0C6A0D6A0E6A120085EC22F06A
:100A08000B6E0C6A0D6A0E6A12007BEC22F00B6EFC
:100A18000C6A0D6A0E6A1200C4C00BF0C5C00CF057
:100A2800C6C00DF0C7C00EF01200F9C00BF0FAC036
:100A38000CF00D6A0E6A1200FBC00BF0FCC00CF043
:100A48000D6A0E6A12008AEC22F001C00BF002C097
:100A58000CF00D6A0E6A1200C1EC1DF007C00BF015
:100A680008C00CF00D6A0E6A12000001E5510B6E09
:100A78000C6A0D6A0E6A1200CAC00BF0CBC00CF0EB
:100A88000D6A0E6A12001B0E0B6E0C6A0D6A0E6A56
:100A9800000C010E0B6E020E0C6E0D6A0E6A000C35
:100AA800050E0B6E0C6A0D6A0E6A000C880E0B6E32
:100AB800130E0C6E0D6A0E6A000CF2AA03D0000128
:100AC800E68F02D00001E69FE6510B6E0C6A0D6AB4
:100AD8000E6A120020EE54F0DF500B6E0C6A0D6A9D
:100AE8000E6A120020EE4EF0DF500B6E0C6A0D6A93
:100AF8000E6A120020EE4FF0DF500B6E0C6A0D6A82
:100B08000E6A120020EE56F0DECF0FF0DDCF10F0A7
:100B18000FC00BF010C00CF00D6A0E6A12005CC01A
:100B28000BF05DC00CF05EC00DF05FC00EF012005F
:100B3800F0C00BF0F1C00CF0F2C00DF0F3C00EF0F5
:100B480012002AC10BF02BC10CF00D6A0E6A1200BC
:100B58002CC10BF02DC10CF00D6A0E6A12009BEC33
:100B680022F00B6E0C6A0D6A0E6A120097EC22F0E6
:100B78000B6E0C6A0D6A0E6A120093EC22F00B6E73
:100B88000C6A0D6A0E6A12001150030A01E164D75B
:100B98000F0A01E10DD71C0A01E111D7330A01E15F
:100BA80015D7070A01E11BD7140A01E120D7010A6A
:100BB80001E124D7030A01E128D7730A01E12CD700
:100BC800020A01E132D7070A01E136D7010A01E139
:100BD800E9D60F0A01E137D7CC0A01E13DD70C0A63
:100BE80001E143D7010A01E147D74B0A01E14BD79D
:100BF800010A01E14ED7030A01E152D7010A01E1D6
:100C080055D7070A01E159D70D0A01E163D7030A4D
:100C180001E168D7010A01E16DD7070A01E172D73E
:100C2800010A01E17CD7030A83E0010A8AE01F0A6E
:100C38008FE0010A94E0030A99E0010A9EE0F2AA13
:100C480021D1FE0E0B6E0C680D680E68FF0C020EAB
:100C580061EC22F00B6E0C6A0D6A0E6A1200030E2C
:100C6800D1EC20F006C00BF007C00CF00D6A0E6A3C
:100C78001200050ED1EC20F006C00BF007C00CF0F6
:100C88000D6A0E6A1200070E61EC22F00B6E0C6AF8
:100C98000D6A0E6A1200080ED1EC20F006C00BF0A7
:100CA80007C00CF00D6A0E6A12000A0E61EC22F001
:100CB8000B6E0C6A0D6A0E6A12000B0E61EC22F0C4
:100CC8000B6E0C6A0D6A0E6A12000C0E61EC22F0B3
:100CD8000B6E0C6A0D6A0E6A12000D0E61EC22F0A2
:100CE8000B6E0C6A0D6A0E6A12000E0E61EC22F091
:100CF8000B6E0C6A0D6A0E6A12000F0E61EC22F080
:100D08000B6E0C6A0D6A0E6A1200100E61EC22F06E
:100D18000B6E0C6A0D6A0E6A1200110E61EC22F05D
:100D28000B6E0C6A0D6A0E6A1200120E61EC22F04C
:100D38000B6E0C6A0D6A0E6A1200130E61EC22F03B
:100D48000B6E0C6A0D6A0E6A1200140E61EC22F02A
:100D58000B6E0C6A0D6A0E6A1200160EC8EC1FF0B4
:100D680006C00BF007C00CF008C00DF009C00EF06B
:100D780012001A0EC8EC1FF006C00BF007C00CF0EA
:100D880008C00DF009C00EF012001E0EC8EC1FF0CE
:100D980006C00BF007C00CF008C00DF009C00EF03B
:100DA8001200220EC8EC1FF006C00BF007C00CF0B2
:100DB80008C00DF009C00EF01200260EC8EC1FF096
:100DC80006C00BF007C00CF008C00DF009C00EF00B
:100DD80012002A0EC8EC1FF006C00BF007C00CF07A
:100DE80008C00DF009C00EF012002E0ED1EC20F054
:100DF80006C00BF007C00CF00D6A0E6A1200300E28
:100E0800D1EC20F006C00BF007C00CF00D6A0E6A9A
:100E18001200320ED1EC20F006C00BF007C00CF027
:100E28000D6A0E6A1200340ED1EC20F006C00BF0E9
:100E380007C00CF00D6A0E6A1200360ED1EC20F0D5
:100E480006C00BF007C00CF00D6A0E6A120081ECA8
:100E58001EF007C00BF008C00CF00D6A0E6A1200F5
:100E680062EC1EF007C00BF008C00CF00D6A0E6AA9
:100E7800120004EC1EF007C00BF008C00CF00D6A5D
:100E88000E6A12001150020A01E1E1D60F0A01E1CF
:100E98000CD7030A01E111D7010A01E1F4D61E0AB1
:100EA80001E113D7030A01E118D7010A01E11DD7AF
:100EB800070A01E122D7010A01E127D7030A01E164
:100EC8002CD7010A01E131D70F0A01E136D7010A0F
:100ED80001E13BD7030A01E140D7010A01E149D703
:100EE800070A01E152D7010A01E15BD7030A01E1D0
:100EF80064D7010A01E16DD73A0A01E176D7030AFE
:100F080001E17DD7010A85E00F0A8DE0010A95E02D
:100F18006B0A01E1C0D6CA0A01E1A1D6010A01E1C2
:100F2800A8D64C0A94E0030A9BE0010AA2E00B68E9
:100F38000C680D680E681200F2AA1000F2A41000E6
:100F4800F294D8CFD9F0536E6B0ED66EE9CFD6F0A7
:100F5800EACFD5F089CFD7F095CFDAF08CCFD8F09B
:100F6800280E896E5050D00B27098C6E956A89809F
:100F7800506EC66AC79EC78C9392949E9380C68A09
:100F88008C50D00B24098C6E840EC96EC7A0FED776
:100F9800030EEA6E4E50E83AE96E00F000D054BCF9
:100FA80079EF08F08C50D00B27098C6E8D8054A8EF
:100FB8008C9C54B88C8C54AA8C9E54BA8C8E0B0E74
:100FC800ADEC1AF08C90940EC96EC7A0FED7C9CFAD
:100FD800EEFF8D90940EC96EC7A0FED7C9CFEEFF65
:100FE8008C92940EC96EC7A0FED7C9CFEEFF940E9F
:100FF800C96EC7A0FED7C9CFEEFF00F000D08C5055
:10100800D00B27098C6E8D8489908CCF50F052C0FC
:101018008CFF898454A88C9C54B88C8C54AA8C9EC0
:1010280054BA8C8E89948CCF52F050C08CFF898032
:10103800070EADEC1AF08C90200EC96EC7A0FED733
:10104800C9CFEEFF8D94200EC96EC7A0FED7C9CFB9
:10105800EEFF8C92200EC96EC7A0FED7C9CFEEFF57
:10106800200EC96EC7A0FED7C9CFEEFF00F000D092
:101078008C50D00B27098C6E8D8289908CCF50F0C4
:1010880052C08CFF898454A88C9854B88C88899451
:101098008CCF52F050C08CFF8980080EACEC1AF04F
:1010A8008C90B40EC96EC7A0FED7C9CFEEFF8D9243
:1010B800B40EC96EC7A0FED7C9CFEEFF0D0EAEECB9
:1010C8001AF08C50D00B25098C6EF40EC96EC7A08F
:1010D800FED7C9CFEEFFF40EC96EC7A0FED7C9CFA1
:1010E800EEFF00F000D01AEF09F08C50D00B270962
:1010F8008C6E8D8054A88C9C54B88C8C54AA8C9E71
:1011080054BA8C8E0B0EADEC1AF08C90940EC96EFE
:10111800C7A0FED7C9CFEEFF8D90940EC96EC7A0A9
:10112800FED7C9CFEEFF8C92940EC96EC7A0FED72A
:10113800C9CFEEFF940EC96EC7A0FED7C9CFEEFF88
:1011480000F000D08C50D00B27098C6E8D848990CC
:101158008CCF50F052C08CFF898454A88C9C54B812
:101168008C8C54AA8C9E54BA8C8E89948CCF52F055
:1011780050C08CFF8980070EADEC1AF08C90200EC1
:10118800C96EC7A0FED7C9CFEEFF8D94200EC96ED9
:10119800C7A0FED7C9CFEEFF8C92200EC96EC7A09C
:1011A800FED7C9CFEEFF200EC96EC7A0FED7C9CFA4
:1011B800EEFF00F000D08C50D00B27098C6E8D828A
:1011C80089908CCF50F052C08CFF898454A88C9899
:1011D80054B88C8889948CCF52F050C08CFF898089
:1011E800080EACEC1AF08C90F40EC96EC7A0FED7AE
:1011F800C9CFEEFF8D92F40EC96EC7A0FED7C9CF36
:10120800EEFF0D0EAEEC1AF08C50D00B25098C6E4B
:10121800F40EC96EC7A0FED7C9CFEEFFF40EC96E93
:10122800C7A0FED7C9CFEEFF00F000D00C0EADEC82
:101238001AF08C820C0EACEC1AF08C90B40EC96EBD
:10124800C7A0FED7C9CFEEFFB40EC96EC7A0FED7A0
:10125800C9CFEEFF8C92B40EC96EC7A0FED7C9CF16
:10126800EEFFB40EC96EC7A0FED7C9CFEEFF8C50F3
:10127800D00B27098C6E89808CCF50F0E93AE9CFE2
:101288004EF0010EEA6E51C0EFFF020EEA6E5250A8
:101298000F0B54B8E88854BAE88A9568899683BCD5
:1012A800E88C83BEE88EEF6E89864E504F5C0BE16A
:1012B80054804F3C0F0B4F6E562804E1572803E02B
:1012C800576EE86A566E5C505D145E145F14E81E33
:1012D80012E05C505D105E105F100DE05C0605E2E8
:1012E8005D0603E25E0601E25F065C505D105E107B
:1012F8005F1001E19D925A505B100BE05A06D8A08E
:101308005B0654A80ED0547654A6549A54B6548A00
:1013180008D0547854B8F7D7549A58C05AF059C0DE
:101328005BF0C6BE5484C69E50C08CFF956A898007
:101338008C50D00B2F098C6EC680C76AC950C96AF9
:10134800C7A0FED7C9CF2DF1C96AC7A0FED7C9CF9C
:101358002CF18C50D00B27098C6E280E896ED8C0C2
:101368008CFFDAC095FFD5C0EAFFD6C0E9FF53501D
:10137800D9C0D8FF10000001906F010E8F6F71D097
:1013880088C0FDF097D188C0FEF008D0000EEEECC2
:1013980021F090D1010EEEEC21F08CD1FE51F6E057
:1013A800010AF8E087D188C08BF08B478B47F8514A
:1013B8008B19F30B8B19F86FF831E832030BE80639
:1013C80003E18B6B8B2B02D000018B6B20EE54F06A
:1013D8008B3B8B478B47DF5000018B19BF0B8B1959
:1013E800DF6E68D188C0F9F089C0FAF063D1F8518E
:1013F8008819FC0B8819F86F12D020EE54F0DF988A
:1014080059D120EE54F0DF8820EE54F0DF9A52D103
:1014180020EE54F0DF8820EE54F0DF8A4BD1F851EB
:10142800030BEBE0010AEDE0030AF2E0E6D788518E
:10143800891101E03FD125EC1FF03CD188C0E5F0CF
:1014480039D188C0CAF089C0CBF034D188C001F046
:1014580089C002F083EC20F02DD1F2BA000C8F6B1A
:1014680029D190510C0A8CE01C0A8DE0330A9BE0CC
:10147800070ABDE0670AB6E03C0AD9E0F50ADEE0F3
:10148800010ADFE0040AE2E0E8D788C002F0020EB1
:101498000CEC1DF0010C88C07DF089C07EF0030EB5
:1014A80061EC21F0010C88C07DF089C07EF0050E4A
:1014B80061EC21F0010C88C002F0070E0CEC1DF065
:1014C800010C88C07DF089C07EF0080E61EC21F027
:1014D80088C008F089C009F0DCEC17F0010C88C05E
:1014E80002F00A0E0CEC1DF0010C88C002F00B0E85
:1014F8000CEC1DF0010C88C002F00C0E0CEC1DF079
:10150800010C88C002F00D0E0CEC1DF0010C88C017
:1015180002F00E0E0CEC1DF0010C88C002F00F0E4C
:101528000CEC1DF0010C88C002F0100E0CEC1DF044
:10153800010C88C002F0110E0CEC1DF0010C88C0E3
:1015480002F0120E0CEC1DF0010C88C002F0130E14
:101558000CEC1DF0010C88C002F0140E0CEC1DF010
:10156800010C88C07DF089C07EF02E0E61EC21F060
:10157800010C88C07DF089C07EF0300E61EC21F04E
:10158800010C88C07DF089C07EF0320E61EC21F03C
:10159800010C88C07DF089C07EF0340E61EC21F02A
:1015A800010C88C07DF089C07EF0360E61EC21F018
:1015B800010C8AC08BF08C6B8D6B8E6B8CC08EF09F
:1015C8008BC08DF08C6B8B6B88518B11C46F8951DC
:1015D8008C11C56F000E8D11C66F000E8E11C76F6E
:1015E800C451C511C611C71103E1EEEC20F0010C7E
:1015F800C4C06DF0C5C06EF0C6C06FF0C7C070F053
:1016080043EC1EF0000904E100018B6B8B2B02D028
:1016180000018B6BE6518B19FE0B8B19E66FE651B7
:10162800010B8C6F8C47E6518C19FD0B8C19E66FFA
:1016380087EC1BF0010C88C0FBF089C0FCF0FBC0F4
:1016480002F0FCC003F0F8EC21F0010C88C04AF06D
:1016580089C04BF025EC21F0010C88518AEC21F06F
:10166800010C885118EC21F0010C885180EC21F014
:10167800010C8851891176E088C058F089C059F06A
:10168800F069F169F269F3698DEC18F0010C88C012
:1016980074F089C075F0E8EC1BF0010C88C074F098
:1016A80089C075F022EC1BF0010C34EC13F0010C2E
:1016B8008F51120000019051020A01E1E6D6010A99
:1016C800F4E00E0A01E10BD7030A01E10ED7010A83
:1016D80001E1F1D61E0A01E10ED7030A01E111D793
:1016E800010A01E114D7070A01E117D7010A01E14C
:1016F8001AD7030A01E11DD7010A01E120D70F0A11
:1017080001E123D7010A01E126D73C0A01E129D7E3
:10171800030A01E12ED7010A01E133D70F0A01E1DB
:1017280038D7010A01E13DD7190A97E0010A99E083
:10173800030A9BE0730A01E13CD7030A01E1C1D621
:10174800060A01E178D70E0A81E0350A92E0F70A25
:1017580001E1A1D6010A01E1A6D6050A98E0010A2D
:101768009DE0A6D7010C20EE5CF0DE50DE10DE1006
:10177800DE1002E10EEC1FF001012851291109E0E9
:1017880028C1D9FF29C1DAFF010EDFAE000E4D6F67
:1017980001D04D6B4E6B4D514E1101E0120020EE01
:1017A80054F0DFB008D020EE4FF010EE4EF0DE50CF
:1017B800E618D8B412003A0E01012603F3CF47F118
:1017C800F4CF48F12703F3504827000E47255C6FF4
:1017D800060E48215D6F20EE02F05C51D9265D515E
:1017E800DA22DF9C20EE02F05C51D9265D51DA2224
:1017F800DF9E4FC053F153C158F1596B20EE54F09E
:10180800DFA005D001015B6B030E5A6F1CD04EC0E0
:1018180047F101015851475D5A6F5951D8A05929CC
:101828005B6B5B5F5BAF04D0100E5A27000E5B2327
:101838000F0E5A17000E5B175BBF05D05B51E2E134
:10184800040E5A5DDFE2546B556B6DD0120E5403D3
:10185800F3CF47F1F4CF48F15503F35048275CC163
:1018680049F15DC14AF14751492748514A23040EBD
:101878004925566F000E4A21576F58C147F159C183
:1018880048F1473B483BF00E481747510F0B4813A8
:10189800F00E4717000E47254F6F030E4821506F73
:1018A80056C151F157C152F14C6B100E4B6F11D00C
:1018B8004FC1D9FF50C1DAFF51C1E1FF52C1E2FF68
:1018C800DFCFE7FF4F4B502B514B522B4B07D8A084
:1018D8004C074B514C11ECE1000E5825D96E010E06
:1018E8005921DA6E10EE10F05651E1265751E222D6
:1018F800DFCFE7FF000E5825D96E020E5921DA6EA8
:1019080010EE11F05651E1265751E222DFCFE7FFE2
:101918005829476F000E5921486F0F0E4715586F09
:10192800596B544B552B5A51545D5B5155598EE3A5
:1019380020EE4FF0DE50531901E05BD720EE54F053
:10194800DF9020EE4FF0DF5001015A25476F0F0E50
:10195800471747C14FF020EE56F05CC1E1FF5DC16B
:10196800E2FFDECFE6FFDDCFE5FF20EE54F010EE1C
:1019780002F05C51E1265D51E222E79ADFBEE78A78
:1019880020EE02F05C51D9265D51DA22DF8881A46D
:10199800DF9820EE02F05C51D9265D51DA22DF5043
:1019A8003119F00B3119DF6E312B20EE03F05C5149
:1019B800D9265D51DA225AC1DFFF010E406F3A0E77
:1019C8002603F3CF47F1F4CF48F12703F350482714
:1019D800000E4725416F060E4821426F5A51120DDD
:1019E800F350040F436F010E35EC18F040C128F195
:1019F80041C129F1264B272B26512711D8B41200B3
:101A0800266B276B1200040132050FE130511F0BC2
:101A18000CE10001C18F030E0401311904E1010E2C
:101A28000001DB6F02D00001DB6B04013251D8A446
:101A3800120030511F0B020AD8A4120034510F0BA8
:101A4800D8B4120034510F0B0001996F030E99613D
:101A5800030C200E01012E19D8A412000001C18F19
:101A6800040134BF17D034510F0B020D160EF324A6
:101A7800D96E010EF420DA6EDECF9EF0DDCF9FF036
:101A880034510F0B0001996F9A6B230E9925D96E6B
:101A9800010E16D034510F0B020D100EF324D96E1F
:101AA800010EF420DA6EDECF9EF0DDCF9FF03451C8
:101AB8000F0B0001996F9A6B200E9925D96E010EB4
:101AC8009A21DA6EDF509D6F9DB102D09E9501D0AC
:101AD8009E85040134BF08D034510F0B020D160E39
:101AE800F324D96E010E07D034510F0B020D100EDE
:101AF800F324D96E010EF420DA6E9EC0DEFF9FC07B
:101B0800DDFF030E31192DE19EC0D9FF9FC0DAFF1A
:101B18000001DFAE1AD0040134BF0AD034510F0BD4
:101B28000001996F9A6B230E9925D96E010E09D081
:101B380034510F0B0001996F9A6B200E9925D96EBD
:101B4800010E9A21DA6E0101DF829EC0D9FF9FC083
:101B5800DAFF000EDB849EC0D9FF9FC0DAFFDB8E60
:101B6800000C040E00019E1B9EC0D9FF9FC0DAFF27
:101B7800DFAE19D09EC0D9FF9FC0DAFF7F0EDF16F7
:101B88009EC0D9FF9FC0DAFF000EDB8C926B050E5A
:101B9800916F9EC093F09FC094F0966B020E956F64
:101BA800B9EC1BF006D09EC0D9FF9FC0DAFF000E2B
:101BB800DB8C040E00019E1B9DB306D09EC0D9FF8E
:101BC8009FC0DAFFDFAE2DD0040134BF0AD03451F4
:101BD8000F0B0001996F9A6B230E9925D96E010E90
:101BE80009D034510F0B0001996F9A6B200E99257B
:101BF800D96E010E9A21DA6EDF929EC0D9FF9FC07E
:101C0800DAFF3B0EDF160001926B050E916F9EC046
:101C180093F09FC094F0966B020E956FB9EC1BF091
:101C280006D09EC0D9FF9FC0DAFF3B0EDF16040125
:101C380034510F0B0001996F9A6B700E99259B6FA9
:101C48000F0E9A219C6F9BC0D9FF9CC0DAFFFE0E35
:101C5800DF16FE0C0BC00FF0106A116A0A340F363B
:101C680001E310800F50146E0EC00FF0106A116A55
:101C78000D340F3601E310800F50136E145009E035
:101C88001350145C0DE21450135C0F6E180E0F64A1
:101C980007D00CC009F00DC00AF00EC00BF01200FE
:101CA800135009E01450135C0DE21350145C0F6ECE
:101CB800180E0F6407D009C009F00AC00AF00BC05B
:101CC8000BF01200060E126E0BBE128E0EBE128C98
:101CD8000A8E0B6A0D8E0E6A1350145C18E2D890A7
:101CE8000C360D360E361306145013180CE0120677
:101CF80012C00FF0070E0F1606E0F1D7D8900B327E
:101D08000A320932142A135014181BE0F7D714505A
:101D1800135C17E2D89009360A360B3614061450AD
:101D280013180CE0120612C00FF0070E0F1606E08B
:101D3800F1D7D8900E320D320C32132A13501418E2
:101D4800F8E112AE07D0091E0A1E0B1E092A000E62
:101D58000A220B2212AC07D00C1E0D1E0E1E0C2AD6
:101D6800000E0D220E22126A09500C260A500D226E
:101D78000B500E220EAE09D00C1E0D1E0E1E0C2A84
:101D8800000E0D220E22010E126E0CC001F00DC0C5
:101D980002F00EC003F014C004F012C005F067ECA6
:101DA8001AF001C009F002C00AF003C00BF01200DB
:101DB800800E04013019D8A41200C00E0001C16FB2
:101DC8008ED0900E0001BE6FBE51D8A4090EBF6F11
:101DD800C36B120EC26F120C32513DE13251090F22
:101DE800016E01C0F6FF090EF76E0900F5CFBEF0CF
:101DF8000001BF6F020EBE25016E000EBF21026EEC
:101E080001C0F6FF02C0F7FFF86A070EF76403D0B7
:101E18000800F55005D0F6CFE9FFF7CFEAFFEF50FD
:101E28000001C26F030EBE25016E000EBF21026EB7
:101E380001C0F6FF02C0F7FFF86A070EF76403D087
:101E48000800F55005D0F6CFE9FFF7CFEAFFEF50CD
:101E58000001C36F12000001C16B1200040E326151
:101E680038D0030E321912E13251020DF350010F2E
:101E7800016E01C0F6FF090EF76E0900F5CFBEF03E
:101E88000A00F5CFBFF00001C1810FD03251020D19
:101E9800F350010F016E01C0F6FF090EF76E09003D
:101EA800F5CFBEF00A00F5CFBFF0BEC0F6FFBFC049
:101EB800F7FFF86A070EF76403D00800F55005D05D
:101EC800F6CFE9FFF7CFEAFFEF500001C26FC36B0F
:101ED80012000001C16B12000001C16B1200040165
:101EE8003351010A01E16DD7030A01E175D7010AEF
:101EF800B5E0F2D7040130511F0B01E01200303970
:101F0800E832030B020A73E0120030AF3ED0A09A09
:101F180032C40BF033C40CF03451D4EC04F00BC0D1
:101F2800E8F00CC0E9F00DC0EAF00EC0EBF0E80EE6
:101F38000001BE6FBF6BC36B040EC26F810EC16F11
:101F4800A08AC18F810C3451040DF350AE0F0001EB
:101F5800E36FEC0EB66FBB6B040EBA6F460EBC6F28
:101F6800410EBD6FB98F120032C488F033C489F0B6
:101F7800355100018A6F04013451BFEC09F00009A2
:101F8800D8B412000001B98F120034511A0ADBE0EC
:101F9800010AD9E0070AD7E0010AD5E0030AD3E02D
:101FA800010AD1E0E1D7F2BA1200F29A24EE32F037
:101FB800DECF58F0DDCF59F0F00E0001B66FBB6BE5
:101FC800040EBA6F3E0EBC6F450EBD6FB98F12007E
:101FD80025EC1FF00001B98F120016EC22F001C0A9
:101FE800CAF002C0CBF0040E0001E56F040C3151B9
:101FF800010A8BE0030AD7E0010AEAE0070AD3E006
:10200800010AE6E0150AD8B41200020AD8B4120090
:10201800010AD8B41200070AD8B41200010AD8B4C9
:102028001200EA0ADAE01200030ED1EC20F006C032
:1020380009F007C00AF0EDEC1FF009C066F00AC00D
:1020480067F00BC068F0050ED1EC20F006C009F06F
:1020580007C00AF0EDEC1FF009C060F00AC061F09B
:102068000BC062F04A0E2C6ECC0E2D6E3F0E2E6EFB
:1020780066C018F067C019F068C01AF060C015F0A3
:1020880061C016F062C017F0D9EC1EF015C01EF042
:1020980016C01FF017C020F00C6A200E0D6EC00E7F
:1020A8000E6E47C009F048C00AF049C00BF02EEC8C
:1020B8000EF009C01BF00AC01CF00BC01DF07CEC30
:1020C80014F01BC029F01CC02AF01DC02BF015EC21
:1020D80016F029C063F02AC064F02BC065F066C012
:1020E8000CF067C00DF068C00EF063C009F064C062
:1020F8000AF065C00BF02EEC0EF009C038F00AC0EB
:1021080039F00BC03AF0CEEC16F038C069F039C09F
:102118006AF03AC06BF03BC06CF000016CAF05D0C0
:10212800696B6A6B6B6B6C6B0BD06CBF09D06C51B5
:1021380002E16B0505E369696A69000E6B6B6C6BFC
:1021480069C047F06AC048F0120020EE01F0CE5195
:10215800D926CF51DA22DF50136E1350BA5D000E24
:10216800BB5902E2BAC013F01350BA5F000EBB5B52
:10217800126A0DD0380E1224D96EDA6A040EDA22E9
:10218800B651E16EE26ADFCFE7FFB62B122A135091
:10219800125CF0E3BA51BB1132E020EE01F0D051ED
:1021A800D926D151DA22080EDF6E20EE02F0D05186
:1021B800D926D151DA22380EDE6E040EDD6ECEC07D
:1021C800D9FFCFC0DAFFDFBC0DD0D0C0D9FFD1C056
:1021D800DAFF480EDF6ED0C0D9FFD1C0DAFF000E9B
:1021E800DB8E000CD0C0D9FFD1C0DAFF080EDF6E3D
:1021F800D0C0D9FFD1C0DAFF000EDB8E000C20EE74
:1022080001F0D051D926D151DA22080EDF6E20EE26
:1022180002F0D051D926D151DA22300EDE6E040EEA
:10222800DD6ED0C0D9FFD1C0DAFFDF6ED0C0D9FFD4
:10223800D1C0DAFF000EDB8EBC51BD110EE020EEDE
:10224800BCF001D80AD00500FA6EDE50FD6EDE50F3
:10225800FE6EF850FF6EFA5012000001B99FDF5170
:10226800D8B4B5EC15F0120001012E0507E16DBADE
:1022780005D0686A69806988020E2E6F68B469A4FF
:1022880003D068947BEC1FF06DA202D0A19A1200D3
:1022980068B069A006D03FEC12F0A08A040E2E6F39
:1022A800689068B869A802D073EC20F068AC17D0C1
:1022B80069AC0BD00001926B730E916F936B946BAA
:1022C800966B010E956FB9EC1BF0689CC2EC20F080
:1022D800E05101E0E007E05102E1B5EC15F068BA21
:1022E80069AA02D024EC1EF068B269A20CD07F0E55
:1022F8000001926F9169936B946B966B010E956FC9
:10230800B9EC1BF06A6A040E01012E6102D0A19A91
:10231800040C69A630D00001A46B68A62CD06CCF41
:10232800F7F0F731E832E8320F0BE46F6896F7B54B
:1023380006D0230EE425D96EDA6A010E05D0200EE8
:10234800E425D96EDA6A010EDA22DF700001E45161
:1023580003E183EC17F00AD0926B720E916FF70EBF
:10236800936F946B966B956BB9EC1BF00001A42BE3
:10237800030EA465D2D7A19A1200A09A6A6A686A65
:10238800706A710E406F0F0E416F436B426B456B65
:10239800020E446F3CEC1FF0160E6F6E9F0E6B6EB4
:1023A8007B0E696E486B4851040D000EF324D96EFC
:1023B800040EF420DA6EDE6ADE6ADE6ADD6A482B15
:1023C8000B0E4865F0D76D8C6E6A6D986D9C68969B
:1023D8000001C16BB96BBA6BBB6B68B6F8D7010E5D
:1023E80001012F6F306F0001DD6BDE6BDC6B0101CB
:1023F800486B4851020D100EF324D96E010EF420DB
:10240800DA6EDE6ADD6A4851020D160EF324D96EC3
:10241800010EF420DA6EDE6ADD6A200E4825D96ED8
:10242800DA6A010EDA22DF6A230E4825D96EDA6AE3
:10243800010EDA22DF6A482B020E4865DAD7080E49
:10244800106F040E116F160E706E040E0401036FE8
:10245800300E026F080E016F040E006F008F00012E
:10246800F66B01011C6B1D6B1E6B1F6B0001E16B92
:1024780001012E6B1200A09A6A6A686A706A710E6E
:10248800016E0F0E026E046A036A066A020E056E7A
:1024980066EC1FF0160E6F6E9F0E6B6E7B0E696EEC
:1024A800096A0950040D000EF324D96E040EF420B5
:1024B800DA6EDE6ADE6ADE6ADD6A092A0B0E0964F4
:1024C800F0D76D8C6E6A6D986D9C68960001C16B33
:1024D800B96BBA6BBB6B68B6F8D7010E01012F6FE9
:1024E800306F0001DD6BDE6BDC6B096A0950020D91
:1024F800100EF324D96E010EF420DA6EDE6ADD6A5E
:102508000950020D160EF324D96E010EF420DA6E6E
:10251800DE6ADD6A200E0924D96EDA6A010EDA2233
:10252800DF6A230E0924D96EDA6A010EDA22DF6A1D
:10253800092A020E0964DAD7080E0101106F040E89
:10254800116F160E706E040E0401036F300E026FC9
:10255800080E016F040E006F008F0001F66B010179
:102568001C6B1D6B1E6B1F6B0001E16B01012E6B59
:1025780012006D980001C1BF37D0B9AF0AD0020E62
:10258800E26FDE5102E1D5EC19F00101306B2F6BDF
:10259800120020EE01F0D051D926D151DA22080ECE
:1025A800DF6E20EE02F0D051D926D151DA22300E5A
:1025B800DE6E040EDD6ED0C0D9FFD1C0DAFF0C0E7E
:1025C800DF6ED0C0D9FFD1C0DAFF000EDB8E10C19C
:1025D800D9FF11C1DAFF040EDF6E10C1D9FF11C196
:1025E800DAFF000EDB8E000C040130AF10D0010EB4
:1025F8000001E26FDD5102E1D5EC19F00101306B09
:102608002F6B0001DF51D8A41200B5EF15F0020EB0
:102618000001E26F20EE01F0D051D926D151DA2223
:10262800080EDF6E20EE02F0D051D926D151DA2201
:10263800300EDE6E040EDD6ED0C0D9FFD1C0DAFFD9
:10264800DF6ED0C0D9FFD1C0DAFF000EDB8E0101EA
:10265800306B2F6B0001DF5102E1B5EF15F012006E
:10266800C4C082F0C5C083F0C6C084F0C7C085F07E
:10267800EEEC20F0B2EC22F069EC22F01FEC22F034
:10268800000908E01FEC22F00001CA6FCB6B060EB0
:10269800E56F000C87EC1BF0AFEC22F0AFEC22F0FA
:1026A800000E4B6E4A6E25EC21F011EC20F011EC77
:1026B80020F01FEC22F0030A0BE01FEC22F00001CF
:1026C800806F816B0C0E8011CA6F8151CB6FDFD781
:1026D800A4EC13F06DC07DF06EC07EF0030E61ECCB
:1026E80021F010EC14F06DC07DF06EC07EF0050E88
:1026F80061EC21F00001866B81B407D09EEC21F0DB
:10270800000903E1010E0001866F86C087F0000111
:1027180087510AE082C06DF083C06EF084C06FF00C
:1027280085C070F043EC1EF020EE54F0DFAE03D00D
:1027380087EC1BF002D0EEEC20F00001875112006C
:102748000001796B7A6B736B746B800E7C6F7B6B9B
:102758005BD07B5179114A6E7C517A114B6E25EC16
:1027680021F0D5EC1AF0D5EC1AF000017B51791163
:102778006F6F7C517A11706F6F51735D705174591E
:102788000AE2010ED8EC1AF0D2EC1AF0CFEC1AF0EB
:1027980069EC22F002D011EC20F000017B51791194
:1027A800736F7C517A11746F776B786B756B766B7E
:1027B80015D0D2EC1AF077C071F078C072F004EC42
:1027C8001EF007C077F008C078F000017751711942
:1027D800EDE178517219EAE1754B762B765107E1F4
:1027E800050E755D04E29EEC21F00009E2E094EC30
:1027F80021F0000905E000017B5179137C517A131F
:102808000001D8907C337B337B517C11A2E179C0E5
:102818006DF07AC06EF012000001796B7A6B736B01
:10282800746B800E7C6F7B6B5BD07B5179114A6E29
:102838007C517A114B6E25EC21F0D5EC1AF0D5ECD1
:102848001AF000017B5179116F6F7C517A11706F0A
:102858006F51735D705174590AE2010ED8EC1AF089
:10286800D2EC1AF0CFEC1AF069EC22F002D011EC9D
:1028780020F000017B517911736F7C517A11746FCC
:10288800776B786B756B766B15D0D2EC1AF077C0D6
:1028980071F078C072F004EC1EF007C077F008C041
:1028A80078F0000177517119EDE178517219EAE178
:1028B800754B762B765107E1050E755D04E29EECAB
:1028C80021F00009E2E0A8EC21F0000905E0000190
:1028D8007B5179137C517A130001D8907C337B3378
:1028E8007B517C11A2E179C06DF07AC06EF01200C4
:1028F8001DC021F0226A236A1C34213601E322809C
:102908002150246E245004E11B6A1C6A1D6A1200BF
:1029180020C021F0226A236A1F34213601E3228075
:102928002150256E255004E11B6A1C6A1D6A12009D
:1029380025507B0F24261DC025F02050251A800E17
:1029480025161C8E1F8E206A1D6A1B501E02F4CF8E
:10295800F3FFF46AF3CF26F0F4CF27F0286A1B5070
:102968001F02F3502626F4502722000E28221C505E
:102978001E02F3502626F4502722000E28221C504F
:102988001F02F3502726F450282228AE05D0D890ED
:10299800283227322632242AD89028322732263263
:1029A80026C001F027C002F028C003F024C004F0BC
:1029B80025C005F067EC1AF001C01BF002C01CF03E
:1029C80003C01DF0120010C1D9FF11C1DAFF0101C7
:1029D800000EDFBC010E126E040E101B080E2E191D
:1029E8000AE1040132517F0B6E6E6E50100ED8B49E
:1029F800040E01012E6F0001E20539E1010120EE0C
:102A080002F01051D9261151DA22380EDE6E040E6A
:102A1800DD6E52EC15F0020EE7190DE110C1D9FF79
:102A280011C1DAFF040EDF6E10C1D9FF11C1DAFF40
:102A3800000EDB8E000C12500DE110C1D9FF11C140
:102A4800DAFF480EDF6E10C1D9FF11C1DAFF000EA0
:102A5800DB8E000C10C1D9FF11C1DAFF080EDF6E42
:102A680010C1D9FF11C1DAFF000EDB8E000CB9AF1F
:102A780013D0BC51BD110EE020EEBCF001D80AD035
:102A88000500FA6EDE50FD6EDE50FE6EF850FF6EE9
:102A9800FA5012000001B99FE26B1200080E016E95
:102AA8000001C3510DE1080EC25D0AE2C2C001F087
:102AB800E75102E1010E03D0E70502E1020EE76FDC
:102AC8000150C25F000EC35B010120EE01F01051FE
:102AD800D9261151DA2201C0DFFF380E0001D26F6A
:102AE800040ED36FC1B13AD01BD0BEC0F6FFBFC031
:102AF800F7FFF86AD2C0D9FFD3C0DAFF070EF76430
:102B080003D00800F55005D0F6CFE9FFF7CFEAFF6C
:102B1800EF50DF6E0001BE4BBF2BD24BD32B01060B
:102B28000150E3E11200BEC0F6FFBFC0F7FFF86A2C
:102B3800D2C0D9FFD3C0DAFF070EF76403D008006C
:102B4800F55005D0F6CFE9FFF7CFEAFFEF50DF6E7B
:102B58000001BE4BBF2BD24BD32B01060150E3E142
:102B6800120001012F51D8A41200010E2F6F30510D
:102B7800D8A41200010E306F020E0001E21915E10F
:102B8800010120EE01F01051D9261151DA22DF6A35
:102B980010C1D9FF11C1DAFF480EDF6E10C1D9FF8D
:102BA80011C1DAFF000EDB8E000CE205D8A412007A
:102BB800D46B20EE01F0CE51D926CF51DA22080E7F
:102BC800DF6E20EE02F0CE51D926CF51DA22300E38
:102BD800DE6E040EDD6ECEC0D9FFCFC0DAFFDF6E29
:102BE800CEC0D9FFCFC0DAFF000EDB8E010ED46F46
:102BF80020EE01F0D051D926D151DA22080EDF6E2D
:102C080020EE02F0D051D926D151DA22300EDE6EF4
:102C1800040EDD6ED0C0D9FFD1C0DAFF800EDF6EA2
:102C2800800C2BC02FF0306A316A2A342F3601E32A
:102C380030802F50366E365004E1296A2A6A2B6A92
:102C480012002EC02FF0306A316A2D342F3601E37E
:102C580030802F50376E375004E1296A2A6A2B6A70
:102C68001200336A346A356A3750890F365E2BC0D2
:102C780037F02E50371A800E37162A8E2B6A2D8E73
:102C88002E6A180E326ED8903336343635362C50BC
:102C9800295C2D502A582E502B5807E32C50295EBA
:102CA8002D502A5A2E502B5A3380D89029362A363E
:102CB8002B36322EE8D733C001F034C002F035C0CD
:102CC80003F036C004F037C005F067EC1AF001C015
:102CD80029F002C02AF003C02BF012000001C18FB6
:102CE800710E016E0F0E026E046A036A066A020E06
:102CF800056E66EC1FF0016A040E026E046A036A30
:102D0800066A300E056E66EC1FF06D8C0001996B3B
:102D1800200E9925D96EDA6A010EDA22DF6A230EAF
:102D28009925D96EDA6A010EDA22DF6A992B020E2A
:102D38009965EED7F40E016E026A046A036A066AA0
:102D4800020E056E66EC1FF06D9C080E0101106FF7
:102D5800040E116F000E0001CE6F040ECF6FCEC0AF
:102D6800D0F0CFC0D1F032C4F6F0F65104E1100E25
:102D780001012E6F100C926B010E916FF60E936F7E
:102D8800946B966B010E956FB9EC1BF0200E010148
:102D98002E6F200C3AC03CF03D6A3E6A39343C360E
:102DA80001E33D803C50466E465005E1386A396A79
:102DB8003A6A3B6A1200170E3C6E38C03DF039C0C3
:102DC8003EF03AC03FF03C28406E04D0D8903F32E5
:102DD8003E323D32402EFAD73D50416E398E3A6A26
:102DE8003850426E3950436E3A50446E456A8E0EE2
:102DF800465E46AE0CD04650800A8F0FD7E3D89077
:102E08004532443243324232463EF9D70CD0170E8F
:102E1800466407D0CBD7D890423643364436453639
:102E280046064650F8E1415008E0451E441E431E40
:102E3800426C000E43224422452242C038F043C06F
:102E480039F044C03AF045C03BF01200516B526B68
:102E5800506B010E4F6F4D6B040E4C6F10D04FC16D
:102E680040F150C141F1436B0A0E426F8FEC1FF0E5
:102E780040C14FF141C150F14C07D8A04D074C510A
:102E8800515D5251800A4A6F4D51800A4A59E7E311
:102E980048C140F149C141F14FC142F150C143F12C
:102EA80032EC1DF040514E6F4E514A6F4B6B300E55
:102EB8004A27000E4B23D8905135D96E5235DA6E19
:102EC800600ED926010EDA224AC1DEFF4BC1DDFFB2
:102ED8004E514F03F3CF4AF1F4CF4BF15003F35067
:102EE8004B274A51485F4B51495B514B522B52BFBC
:102EF800AFD7525103E1050E515DAAE312002D0E22
:102F0800E06FF7C0A1F0FD0EA1174BE1D890F731A3
:102F18003F0B040D000EF324CE6F040EF420CF6F88
:102F2800CEC0D0F0CFC0D1F0040ED01BCEC0D9FF98
:102F3800CFC0DAFFDF30E8320F0B0D0A02E0BDEF39
:102F48001CF0A36B20EE02F0CE51D926CF51DA2225
:102F5800DECFA1F0DDCFA2F0A1C0D9FFA2C0DAFF79
:102F6800300EA325E16EE26A040EE222DFCFE7FF0E
:102F780020EE02F0CE51D926CF51DA22DE2A000EF9
:102F8800DD22A32B070EA365DDD720EE02F0CE517C
:102F9800D926CF51DA22300EDE6E040EDD6E55EFE3
:102FA8001BF0F751FD0B040AD8B4E7EC14F012003B
:102FB800116A126A106A010E0F6E0D6A040E0C6E09
:102FC80010D00FC001F010C002F0046A0A0E036EA0
:102FD800B5EC1FF001C00FF002C010F00C06D8A02D
:102FE8000D060C50115C1250800A0A6E0D50800AB2
:102FF8000A58E7E308C001F009C002F00FC003F067
:1030080010C004F057EC1DF001500E6E0E500A6E01
:103018000B6A300E0A26000E0B22D8901134D96E96
:103028001234DA6E600ED926010EDA220AC0DEFFEB
:103038000BC0DDFF0E500F02F3CF0AF0F4CF0BF0F8
:103048001002F3500B260A50085E0B50095A114A19
:10305800122A12BEAFD7125003E1050E115CAAE383
:103068001200446F0101405107E04451020D100E57
:10307800F324D96E010E06D04451020D160EF32426
:10308800D96E010EF420DA6EDECF45F1DDCF46F1C0
:103098004551461103E1406B416B120020EE02F0EE
:1030A8004551D9264651DA2241C1DEFF42C1DDFF32
:1030B80020EE01F04551D9264651DA2243C1DFFFFF
:1030C80045C1D9FF46C1DAFF400EDF1645C1D9FF19
:1030D80046C1DAFF000EDB8645C1D9FF46C1DAFFDB
:1030E800DB8E405107E04451020D100EF324D96ED7
:1030F800010E06D04451020D160EF324D96E010EAE
:10310800F420DA6E040EDF1A45C140F146C141F1E0
:10311800040C530ED56EF29EF29CD08E0101316BD9
:10312800F0C05CF0F1C05DF0F2C05EF0F3C05FF09B
:10313800200E0201006F000EE8CF4EF0E8CF4FF0EE
:10314800E8CF56F0E8CF57F00001E56BCA6BCB6BC0
:10315800020EFE1903E1000EEEEC21F0FBC002F0B6
:10316800FCC003F0F8EC21F0640EE8CF5AF0000E32
:10317800E8CF5BF054C004F0800E0416100E041261
:1031880004C054F00001F831E832030BE80603E10B
:10319800046A042A01D0046A20EE54F0043A044672
:1031A8000446DF500418BF0B0418DF6EF2946B0E50
:1031B800D66EF184F28EF28CF28AD30ED56ED30CD1
:1031C80004013039E832030B30E012000001C18FEE
:1031D800080E01012E6F080CF60E0001BE6FBF6BC2
:1031E800C181010EC26FC18F010C3451F40F00016F
:1031F800A06FA0C0BEF0BF6BC181010EC26FC18FAE
:10320800010C0001C18F04013451F40FD96EDA6A40
:1032180032C4DFFF12000001926B020E916F936BB4
:10322800946B966B956BB9EF1BF0315102E189EF06
:1032380019F0010A02E107EF0DF0020A02E107EFB7
:103248000DF0060AC3E0030A02E1DCEF0EF0010A02
:10325800E2E00F0AC1E0010A02E172EF16F0030A88
:10326800C4E0010ACEE0070A1200A09A360E63EC09
:1032780020F045C155F146C156F15551561101E1AD
:10328800120055290DE156290BE1250E566FC00E87
:10329800556F55C14CF156C14DF1360E56EC21F023
:1032A8007CEC1DF046C151F147C152F12A512B1156
:1032B8000CE0C00E555D080E565905E3C00E555F6B
:1032C800080E565B02D0556B566B5151555D5251E5
:1032D80056590DE25551515D4F6F56515259506F25
:1032E800C00E4F25536F240E5021546F02D0536BDC
:1032F800546B53C140F154C141F153EC20F053C118
:103308002AF154C12BF1A08A12000401386B396BE1
:1033180036D00001C18F040138810001DB0536E198
:103328000401388333D00001C18F30D00001C18F30
:10333800040134BF08D034510F0B020D160EF324CC
:10334800D96E010E07D034510F0B020D100EF32465
:10335800D96E010EF420DA6EDECF01F0DDCF02F077
:1033680001C0D9FF02C0DAFFDFAE10D001C0D9FF1B
:1033780002C0DAFFDFA40AD0010E386F07D030513F
:103388001F0BC7E0010ACFE0030AD0E00001C1AF7C
:103398001200380EBE6F040EBF6FC181020EC26FDD
:1033A800020CDD6BDE6B020EE2191FE120EE01F06C
:1033B800D051D926D151DA22080EDF6E20EE02F064
:1033C800D051D926D151DA22380EDE6E040EDD6EC8
:1033D800D0C0D9FFD1C0DAFF480EDF6ED0C0D9FF08
:1033E800D1C0DAFF000EDB8E000CC2510401365D3D
:1033F8000001C3510401375904E236C4C2F037C48E
:10340800C3F052EC15F0010120EE02F01051D9265C
:103418001151DA22380EDE6E040EDD6E10C1D9FFAE
:1034280011C1DAFF480EDF6E10C1D9FF11C1DAFFF2
:10343800000EDB8E000C066E076A040E086E015043
:10344800026E036AD890023603360650046E056A87
:10345800D89004360536D89004360536025004262E
:1034680003500522D89004360536D8900436053620
:10347800045007260550082207C0D9FF08C0DAFF04
:10348800DF9E015007E10650020D160EF324D96E97
:10349800010E06D00650020D100EF324D96E010E4F
:1034A800F420DA6E07C0DEFF08C0DDFF07C0D9FFD1
:1034B80008C0DAFFDF9C20EE04F00750D926085038
:1034C800DA22DF8C1200045004E0015002100310CD
:1034D80009E1016A026A036A1200042AD8900332D9
:1034E80002320132066A076AFE0E0314086E06509D
:1034F800071008100AE0F1D7042A012A000E022258
:103508000322D890033202320132066A076A035056
:10351800086E06500710081006E0EED70406D8908B
:1035280001360236033602BE03D0020E0460F6D717
:1035380004A0029ED890043204500312055001E002
:10354800038E01C001F002C002F003C003F01200B4
:1035580000F000F0E82EFED71200020EACEF1AF0D1
:10356800020EADEF1AF0050EAEEF1AF0040EACEF36
:103578001AF00C0EACEF1AF0E84E05D000D000D0CF
:1035880000D000D0F9D700D012000A0EC0EF1AF010
:10359800140EC0EF1AF0640EC0EF1AF0C80EC0EF98
:1035A8001AF0FA0EC0EF1AF0556E554E0BD0FA0EFF
:1035B800E3DF00D0FA0EE0DF00D0FA0EDDDFFA0E0E
:1035C800DBDFF3D7FA0ED8DFFA0ED6DFFA0ED4DF38
:1035D800FA0ED2DF1200E00EF66E440EF76E000E01
:1035E800F86E01EE5EF010EE0CF00900F5CFEEFF7C
:1035F800E550E150FAE1460EF66E450EF76E000E04
:10360800F86E00EEF9F010EE06F00900F5CFEEFFC7
:10361800E550E150FAE101EE10F0300EEE6AE806EE
:10362800FDE100EEB6F0430EEE6AE806FDE14C90CF
:103638004C92000EF86E000115EF1CF04B684A68BA
:1036480025EC21F087EC1BF000017A6B7B6B7C6B1F
:103658007D6B17D0000E4B6E4A6E25EC21F011ECF5
:1036680020F011EC20F04B684A6825EC21F069EC59
:1036780022F069EC22F000017A2B000E7B237C23D8
:103688007D237451766F7551776F786B796B7651AE
:103698007A5D77517B5978517C5979517D59DAE3B4
:1036A8001200E76BDF6BDD6BDE6BD46BE26B10C176
:1036B800D9FF11C1DAFF7F0EDF16040E0101101BBE
:1036C80010C1D9FF11C1DAFF7F0EDF16040E101BDF
:1036D800D0C0D9FFD1C0DAFF7F0EDF160001C16B61
:1036E800C26BC36BB96BBA6BBB6BE4EC18F000012F
:1036F800926B030E916F936B946B966B956BB9EC11
:103708001BF0BDEF12F0F9C002F0FAC003F0F8ECBC
:1037180021F08B8C0A0ED8EC1AF0010E93EC20F0F5
:10372800C4C06DF0C5C06EF0C6C06FF0C7C070F001
:1037380043EC1EF08B840001FD51D8EC1AF0000E0A
:1037480093EC20F0640ED8EC1AF0FBC002F0FCC039
:1037580003F0F8EC21F081A404D020EE54F0DF9EB1
:10376800120020EE54F0DF8E120005D01A0E096EFA
:10377800010EBEEF1EF091C097F092C098F09851DC
:1037880004E07F0AD8A412001DD09751010AEEE088
:10379800030AD8B41200010A02E17EEF0FF0060A0C
:1037A800D8B41200770AD8B41200010A02E193EFE4
:1037B8001CF0070A02E193EF1CF0010AD8A41200DA
:1037C80093EF1CF0971D120087EC1BF0000E4B6E58
:1037D8004A6E25EC21F000017A6B7B6B7C6B7D6B6C
:1037E80010D08B84AFEC22F0AFEC22F08B94B2ECCB
:1037F80022F0B2EC22F000017A2B000E7B237C230E
:103808007D237451766F7551776F786B796B76512C
:103818007A5D77517B5978517C5979517D59E1E32B
:103828001200000EE8CF4EF0E8CF4FF0E8CF54F08A
:10383800E8CF56F0E8CF57F033EC20F0000E43EC19
:1038480020F0080E63EC20F045C148F146C149F16B
:103858002AEC17F0C1EC11F0F4EC1EF039EC19F079
:10386800200E2E6101D0F8D76DB2F6D7A09AB7EC2A
:103878000BF0A08AF1D7400E8B6E390E946E100EA5
:103888008A6EF50E936E070E8D6EF80E966E380ED4
:10389800896EC00E926E956AB70EE8CF50F050C090
:1038A8008CFF898089907A0EE8CF51F051C08CFF47
:1038B80089828992A90EE8CF52F052C08CFF898480
:1038C80089948998010EDBEF1FF0436F0101435182
:1038D80041EC22F00101411904E1426B010E416FF4
:1038E800010C43C1A9FF41C1A8FFA69EA69CA684BE
:1038F800F29C550EA76EAA0EA76EA682A6B2FED798
:10390800F28CA694A1980101435141EC22F00101E7
:103918004119010ED8A4000E416F426B12006DA22E
:103928001FD0010EE4EF21F0010EDAEC21F01DD0DA
:103938000001C805C91104E1010EDAEC21F015D027
:10394800320EC819C91104E1010EE4EC21F00DD0C2
:10395800B70EC85D030EC95908E3C86BC96B05D01B
:1039680001012E51200AE0E0E3D70001C84BC92B22
:103978001200020EE21902E1A9EF10F0E26BD45135
:103988001FE120EE01F0D051D926D151DA22080EDC
:10399800DF6E20EE02F0D051D926D151DA22300E56
:1039A800DE6E040EDD6ED0C0D9FFD1C0DAFF0C0E7A
:1039B800DF6ED0C0D9FFD1C0DAFF000EDB8E000C5D
:1039C800D46B12008E0E116E06D0D8900C320B32CA
:1039D8000A320932112A0D6A0E6A0F6A0C50106EEB
:1039E8000D500E100F101010F0E109C001F00AC0C0
:1039F80002F00BC003F011C004F0000E056E67EC76
:103A08001AF001C009F002C00AF003C00BF012005E
:103A1800046E045061EC22F0021804E1036A010EFE
:103A2800026E010C04C0A9FF02C0A8FFA69EA69CB6
:103A3800A684F29C550EA76EAA0EA76EA682A6B201
:103A4800FED7F28CA694A198045061EC22F00218DB
:103A5800010ED8A4000E026E036A1200446B456B77
:103A6800425143111BE0010E466F04D0D8904237F3
:103A78004337462B43AFFAD7D8904437453742519E
:103A8800405D4351415905E34251405F4351415B19
:103A98004481D89043334233462FEED744C140F196
:103AA80045C141F11200056A066A035004101BE083
:103AB800010E076E04D0D89003360436072A04AEE8
:103AC800FAD7D890053606360350015C04500258E0
:103AD80005E30350015E0450025A0580D890043271
:103AE8000332072EEED705C001F006C002F012001F
:103AF800F2AA07D0E00E2C15486FFF0E2D15496F5E
:103B080011D0010EB3EC20F06CEC21F0000E010195
:103B1800416B51EC1FF0E00E4115486F4251496F5F
:103B280076EC21F00101D8904837493748C146F171
:103B380049C147F11200496F01014A6B44C147F17D
:103B480045C148F1010E4B6F11D047C1D9FF48C19B
:103B5800DAFFDF50416F495169EC1CF041514B6F5E
:103B6800474B482B492B4B5101E04A2B4B5103E063
:103B780046074629EAE14A511200F2AA08D0E00EA7
:103B880001012C15096EFF0E2D150A6E10D0010EBD
:103B98000AEC21F0BCEC21F0000E026AFFEC1FF0E9
:103BA800E00E0214096E03500A6E02EC22F0D8905F
:103BB80009360A3609C007F00AC008F012000A6E72
:103BC8000B6A05C008F006C009F0010E0C6E11D092
:103BD80008C0D9FF09C0DAFFDF50026E0A500CECAA
:103BE8001DF002500C6E084A092A0A2A0C5001E0FE
:103BF8000B2A0C5003E007060728EAE10B501200D5
:103C0800000E0AEC21F0C6EC21F0B40E32EC21F0E3
:103C1800BAEC1AF002EC22F0BDEC1AF0C6EC21F076
:103C2800230E026E010EFFEC1FF002C009F003C064
:103C38000AF002EC22F009C007F00AC008F01200EE
:103C480070A01BD0CEC0D9FFCFC0DAFF800EDE181F
:103C580013E110C1D9FF11C1DAFF840EDE180CE19F
:103C6800CEC0D9FFCFC0DAFF0C0EDF6ECEC0D9FFB1
:103C7800CFC0DAFF000EDB8E7090689A12006DC01C
:103C880038F06EC039F06FC03AF070C03BF0A0EC6D
:103C98001EF038C071F039C072F03AC073F071C0CC
:103CA80047F072C048F073C049F018EC10F047C0F4
:103CB8004AF048C04BF025EC21F0010C000E0AEC4C
:103CC80021F0C6EC21F0F40E32EC21F0BAEC1AF037
:103CD80002EC22F0BDEC1AF0C6EC21F0026AF40EF8
:103CE800FFEC1FF002C009F003C00AF002EC22F05A
:103CF80009C007F00AC008F01200000E0AEC21F013
:103D0800D0EC21F0F40E32EC21F0BAEC1AF002EC0F
:103D180022F0BDEC1AF0D0EC21F0026AF40EFFECB0
:103D28001FF002C009F003C00AF002EC22F009C03B
:103D380007F00AC008F0120038C009F039C00AF0CC
:103D48003AC00BF03BC00CF0E6EC1CF009C029F0BF
:103D58000AC02AF00BC02BF02C6A800E2D6E490E7B
:103D68002E6E15EC16F029C038F02AC039F02BC099
:103D78003AF012000C6E09A404D0016A0C501FEC32
:103D88001AF009A205D0010E016E0C501FEC1AF0B2
:103D9800700E0C240A6E0B6A0F0E0B220AC0D9FF94
:103DA8000BC0DAFF09C0DFFF0F0C185019101A10EA
:103DB80002E0800E1A1A15C009F016C00AF017C0E2
:103DC8000BF018C00CF019C00DF01AC00EF02EEC54
:103DD8000EF009C015F00AC016F00BC017F012005B
:103DE80001012E51D8B482A012006D6A696A160EBC
:103DF8006F6E9F0E6B6E7B0E696ED08EA29AA08A34
:103E0800F28EF28C01D06D866DA6FDD7010E0101F0
:103E18002E6F010C530ED56EF29A000EE8CF5CF0AF
:103E2800E8CF5DF0E8CF5EF0E8CF5FF0020E00016A
:103E3800FE1902E0A9EF22F0010E4BEC21F0A9EFE8
:103E480022F0530ED56EF29A000EE8CF5CF0E8CF60
:103E58005DF0E8CF5EF0E8CF5FF0020E0001FE19DA
:103E680002E0ACEF22F0010EEEEC21F0ACEF22F014
:103E780040C146F141C147F108D046C1D9FF47C109
:103E8800DAFF42C1DFFF464B472B4407D8A045075E
:103E98004429F3E14529F1E11200436F010143513F
:103EA800E0EC20F00101446F456B4451456F446BD1
:103EB8004151E0EC20F00101441344C141F145C1F6
:103EC80042F1120001C007F002C008F008D007C094
:103ED800D9FF08C0DAFF03C0DFFF074A082A050632
:103EE800D8A006060528F3E10628F1E11200000132
:103EF800DC6B926B740E916F936B946B966B956BF6
:103F0800B9EC1BF06D92699401D0689468B4FDD740
:103F18000001E16B120040514203F3CF44F1F4CFAA
:103F280045F140514303F350452741514203F350B3
:103F3800452744C140F145C141F11200446F0CD0FE
:103F4800445141EC22F041C1D9FF42C1DAFFDF6E92
:103F58000101442B414B422B010143074329F0E166
:103F6800120001500302F3CF05F0F4CF06F0015020
:103F78000402F350062602500302F350062605C039
:103F880001F006C002F012000A6E3A0E026E010E2F
:103F9800036E040E046E0A5022EC20F03AC106F0BB
:103FA8003BC107F03CC108F03DC109F01200010116
:103FB800406F20EE50F040B102D0DF9801D0DF888A
:103FC80039EC22F00101405102E1B8EF22F0A6EFEE
:103FD80022F009C001F00AC002F0036A8E0E046ED6
:103FE800000E056E67EC1AF001C009F002C00AF075
:103FF80003C00BF01200046E0450FCEC20F0056EB8
:10400800066A0550066E056A0250FCEC20F005129F
:1040180005C002F006C003F01200010ED8EC1AF039
:10402800D5EC1AF0D5EC1AF0D5EC1AF0CCEC1AF065
:10403800CCEC1AF0CCEC1AF0C9EF1AF0056E0BD0E4
:10404800055061EC22F002C0D9FF03C0DAFFDF6E31
:10405800052A024A032A04060428F2E112008FEC1A
:1040680022F03FEC1CF076EC21F0780ECB6EBB6AA8
:10407800BA6A9396050ECA6E0C0EBA6E0C0C010144
:10408800416F06D0010EBCEC22F0010E3FEF21F08B
:1040980001014151F7E0010AD8A4030A120041C105
:1040A800BBFF40C142F141C143F1D8904333423391
:1040B800D8904333423342510C09BA6E1200476F0D
:1040C8003E0E0101416F010E426F020E436F4751D0
:1040D800A2EC1FF03EC145F13FC146F112006984D0
:1040E80068986D82010E0001DC6FE16B926B750EB2
:1040F800916F936B946B966B956BB9EF1BF002C045
:10410800BBFF01C003F002C004F0D89004320332B0
:10411800D8900432033203500C09BA6E1200016EB3
:1041280020EE50F001B002D0DF9801D0DF8859ECC2
:1041380022F0015002E1BAEF22F0B5EF22F0BC6B99
:10414800BD6BA09AECC00DF0EDC00EF0EEC00FF004
:10415800EFC010F0E35128EC22F0A08A1200406F63
:104168000101405104E0010EC66EC76A03D0C66A59
:10417800400EC76EC68AC69EC950120001011C2B8C
:10418800000E1D231E231F230001DC51D8A412009A
:10419800E12BE151D8B4E1691200086E3E0E026EBF
:1041A800010E036E020E046E085022EC20F03EC190
:1041B80006F03FC107F01200406FC69E40C1C9FF1C
:1041C800C6AE04D020EE54F0DF84FF0CC7A0FED7A3
:1041D800C95012000A0ED8EC1AF08B941E0ED8ECB7
:1041E8001AF0010E93EC20F020EE54F0DF9E12003E
:1041F800016EC69E01C0C9FFC6AE04D020EE54F0C1
:10420800DF84FF0CC7A0FED7C9501200016E015011
:1042180004E0010EC66EC76A03D0C66A400EC76EB8
:10422800C68AC69EC9501200026E02C001F020EE76
:1042380051F0013ADF5001180F0B0118DF6E49EFFA
:1042480022F0000E0AEC21F0B2EC21F04B5032ECD7
:1042580021F04A5032EC21F002EF22F0016E01C049
:10426800C9FFC6AE05D0C69E20EE54F0DF8412000A
:10427800C7B01200FDD70101406F02D09388120029
:1042880001014051D8B41200010AF8E012000101FE
:10429800406F20EE52F040B102D0DF9A01D0DF8AA1
:1042A80031EF22F04E6F4C0E0101446F010E456F45
:1042B800020E466F4E519FEF1DF000017F6F7D0E7D
:1042C800056E000E066E020E076E7F51E3EF1DF0BD
:1042D80050C040F1D00E40172F0E401340C150F08F
:1042E80039EF22F050C040F1D00E4017270E40138E
:1042F80040C150F039EF22F0016E20EE52F0DF504D
:104308000118F00B0118DF6E51EF22F0016E20EE5C
:1043180051F0DF500118F00B0118DF6E49EF22F061
:1043280076EC22F0000E83B0010E016E280E896E25
:104338000150120076EC22F0000E83BA010E016ED5
:10434800280E896E0150120076EC22F0000E83B21E
:10435800010E016E280E896E0150120050C001F046
:10436800D00E0116230E011201C050F059EF22F0B1
:1043780050C001F0D00E01162F0E011201C050F0EE
:1043880059EF22F050C001F0D00E0116260E01128E
:1043980001C050F059EF22F050C001F0D00E0116C4
:1043A800250E011201C050F059EF22F0016E02D023
:1043B8008B8212000150D8B41200010AF9E01200F1
:1043C800016E02D08B9212000150D8B41200010A7B
:1043D800F9E01200016E20EE52F001B002D0DF9A2F
:1043E80001D0DF8A51EF22F0000E0AEC21F00CEC2C
:1043F80022F0035032EC21F002EF22F050C001F01D
:10440800D00E0116270E011201C050F059EF22F00C
:1044180050C001F0D00E0116070E011201C050F075
:1044280059EF22F06D96370ED8EC1AF008EF00F02D
:10443800016A026A120076EC22F08350030B016EC7
:10444800280E896E01501200116E0D0E056E066A57
:10445800040E076E1150E3EF1DF0280E896E52C04E
:104468008CFF956A898489941200280E896E50C041
:104478008CFF956A898089901200406F40C1A9FF1E
:10448800A69CA69EA680A8501200280E896E51C030
:104498008CFF956A898289921200280E896E52C013
:1044A8008CFF956A898489941200280E896E50C001
:1044B8008CFF956A898089901200016E01C0A9FF5E
:1044C800A69CA69EA680A8501200010ED8EC1AF051
:1044D800D2EC1AF0CFEF1AF00C03300030003000A5
:1044E80030003000280E896E95688996120020EEFB
:1044F80052F0DF500F0B120020EE51F0DF500F0B7F
:10450800120020EE51F0DF380F0B1200CCC001F082
:10451800CDC002F012009392949E9380120020EE78
:1045280052F0DF50120020EE51F0DF50120020EE62
:1045380050F0DF501200BC6BBD6B8DEF18F00031EE
:1045480000991402819893981200070E8D12070C97
:10455800070E8D12070C370ED8EF1AF0B40ED8EFED
:104568001AF0819893981200938812009388120089
:0245780012002F
:020000040020DA
:08000000FFFFFFFFFFFFFFFF00
:020000040030CA
:0E000000250E3F1EFF8081FF0FC00FA00F4096
:00000001FF
